{
  "contractName": "CarbonDollar",
  "abi": [
    {
      "constant": false,
      "inputs": [
        {
          "name": "_spender",
          "type": "address"
        },
        {
          "name": "_value",
          "type": "uint256"
        }
      ],
      "name": "approve",
      "outputs": [
        {
          "name": "",
          "type": "bool"
        }
      ],
      "payable": false,
      "stateMutability": "nonpayable",
      "type": "function"
    },
    {
      "constant": true,
      "inputs": [],
      "name": "totalSupply",
      "outputs": [
        {
          "name": "",
          "type": "uint256"
        }
      ],
      "payable": false,
      "stateMutability": "view",
      "type": "function"
    },
    {
      "constant": false,
      "inputs": [
        {
          "name": "_from",
          "type": "address"
        },
        {
          "name": "_to",
          "type": "address"
        },
        {
          "name": "_amount",
          "type": "uint256"
        }
      ],
      "name": "transferFrom",
      "outputs": [
        {
          "name": "",
          "type": "bool"
        }
      ],
      "payable": false,
      "stateMutability": "nonpayable",
      "type": "function"
    },
    {
      "constant": false,
      "inputs": [],
      "name": "unpause",
      "outputs": [],
      "payable": false,
      "stateMutability": "nonpayable",
      "type": "function"
    },
    {
      "constant": false,
      "inputs": [
        {
          "name": "_amount",
          "type": "uint256"
        }
      ],
      "name": "burn",
      "outputs": [],
      "payable": false,
      "stateMutability": "nonpayable",
      "type": "function"
    },
    {
      "constant": false,
      "inputs": [],
      "name": "claimOwnership",
      "outputs": [],
      "payable": false,
      "stateMutability": "nonpayable",
      "type": "function"
    },
    {
      "constant": true,
      "inputs": [],
      "name": "blacklisted",
      "outputs": [
        {
          "name": "",
          "type": "bool"
        }
      ],
      "payable": false,
      "stateMutability": "view",
      "type": "function"
    },
    {
      "constant": true,
      "inputs": [],
      "name": "paused",
      "outputs": [
        {
          "name": "",
          "type": "bool"
        }
      ],
      "payable": false,
      "stateMutability": "view",
      "type": "function"
    },
    {
      "constant": false,
      "inputs": [
        {
          "name": "_spender",
          "type": "address"
        },
        {
          "name": "_subtractedValue",
          "type": "uint256"
        }
      ],
      "name": "decreaseApproval",
      "outputs": [
        {
          "name": "",
          "type": "bool"
        }
      ],
      "payable": false,
      "stateMutability": "nonpayable",
      "type": "function"
    },
    {
      "constant": false,
      "inputs": [
        {
          "name": "_blacklistedAccount",
          "type": "address"
        }
      ],
      "name": "approveBlacklistedAddressSpender",
      "outputs": [],
      "payable": false,
      "stateMutability": "nonpayable",
      "type": "function"
    },
    {
      "constant": true,
      "inputs": [
        {
          "name": "_addr",
          "type": "address"
        }
      ],
      "name": "balanceOf",
      "outputs": [
        {
          "name": "",
          "type": "uint256"
        }
      ],
      "payable": false,
      "stateMutability": "view",
      "type": "function"
    },
    {
      "constant": false,
      "inputs": [],
      "name": "pause",
      "outputs": [],
      "payable": false,
      "stateMutability": "nonpayable",
      "type": "function"
    },
    {
      "constant": true,
      "inputs": [],
      "name": "isMethodEnabled",
      "outputs": [
        {
          "name": "",
          "type": "bool"
        }
      ],
      "payable": false,
      "stateMutability": "view",
      "type": "function"
    },
    {
      "constant": true,
      "inputs": [],
      "name": "owner",
      "outputs": [
        {
          "name": "",
          "type": "address"
        }
      ],
      "payable": false,
      "stateMutability": "view",
      "type": "function"
    },
    {
      "constant": true,
      "inputs": [],
      "name": "tokenStorage_CD",
      "outputs": [
        {
          "name": "",
          "type": "address"
        }
      ],
      "payable": false,
      "stateMutability": "view",
      "type": "function"
    },
    {
      "constant": false,
      "inputs": [],
      "name": "unlock",
      "outputs": [],
      "payable": false,
      "stateMutability": "nonpayable",
      "type": "function"
    },
    {
      "constant": false,
      "inputs": [
        {
          "name": "_to",
          "type": "address"
        },
        {
          "name": "_amount",
          "type": "uint256"
        }
      ],
      "name": "transfer",
      "outputs": [
        {
          "name": "",
          "type": "bool"
        }
      ],
      "payable": false,
      "stateMutability": "nonpayable",
      "type": "function"
    },
    {
      "constant": true,
      "inputs": [],
      "name": "tokenStorage",
      "outputs": [
        {
          "name": "",
          "type": "address"
        }
      ],
      "payable": false,
      "stateMutability": "view",
      "type": "function"
    },
    {
      "constant": false,
      "inputs": [
        {
          "name": "_who",
          "type": "address"
        },
        {
          "name": "_amount",
          "type": "uint256"
        }
      ],
      "name": "destroyBlacklistedTokens",
      "outputs": [],
      "payable": false,
      "stateMutability": "nonpayable",
      "type": "function"
    },
    {
      "constant": false,
      "inputs": [
        {
          "name": "_newRegulator",
          "type": "address"
        }
      ],
      "name": "setRegulator",
      "outputs": [],
      "payable": false,
      "stateMutability": "nonpayable",
      "type": "function"
    },
    {
      "constant": false,
      "inputs": [
        {
          "name": "_spender",
          "type": "address"
        },
        {
          "name": "_addedValue",
          "type": "uint256"
        }
      ],
      "name": "increaseApproval",
      "outputs": [
        {
          "name": "",
          "type": "bool"
        }
      ],
      "payable": false,
      "stateMutability": "nonpayable",
      "type": "function"
    },
    {
      "constant": true,
      "inputs": [
        {
          "name": "owner",
          "type": "address"
        },
        {
          "name": "spender",
          "type": "address"
        }
      ],
      "name": "allowance",
      "outputs": [
        {
          "name": "",
          "type": "uint256"
        }
      ],
      "payable": false,
      "stateMutability": "view",
      "type": "function"
    },
    {
      "constant": true,
      "inputs": [],
      "name": "regulator",
      "outputs": [
        {
          "name": "",
          "type": "address"
        }
      ],
      "payable": false,
      "stateMutability": "view",
      "type": "function"
    },
    {
      "constant": true,
      "inputs": [],
      "name": "pendingOwner",
      "outputs": [
        {
          "name": "",
          "type": "address"
        }
      ],
      "payable": false,
      "stateMutability": "view",
      "type": "function"
    },
    {
      "constant": false,
      "inputs": [
        {
          "name": "_newOwner",
          "type": "address"
        }
      ],
      "name": "transferOwnership",
      "outputs": [],
      "payable": false,
      "stateMutability": "nonpayable",
      "type": "function"
    },
    {
      "constant": false,
      "inputs": [],
      "name": "lock",
      "outputs": [],
      "payable": false,
      "stateMutability": "nonpayable",
      "type": "function"
    },
    {
      "inputs": [
        {
          "name": "_regulator",
          "type": "address"
        }
      ],
      "payable": false,
      "stateMutability": "nonpayable",
      "type": "constructor"
    },
    {
      "anonymous": false,
      "inputs": [
        {
          "indexed": true,
          "name": "user",
          "type": "address"
        },
        {
          "indexed": false,
          "name": "amount",
          "type": "uint256"
        }
      ],
      "name": "ConvertedToWT",
      "type": "event"
    },
    {
      "anonymous": false,
      "inputs": [
        {
          "indexed": true,
          "name": "user",
          "type": "address"
        },
        {
          "indexed": false,
          "name": "feedAmount",
          "type": "uint256"
        },
        {
          "indexed": false,
          "name": "chargedFee",
          "type": "uint256"
        }
      ],
      "name": "BurnedCUSD",
      "type": "event"
    },
    {
      "anonymous": false,
      "inputs": [
        {
          "indexed": true,
          "name": "account",
          "type": "address"
        },
        {
          "indexed": false,
          "name": "amount",
          "type": "uint256"
        }
      ],
      "name": "DestroyedBlacklistedTokens",
      "type": "event"
    },
    {
      "anonymous": false,
      "inputs": [
        {
          "indexed": true,
          "name": "owner",
          "type": "address"
        },
        {
          "indexed": true,
          "name": "spender",
          "type": "address"
        },
        {
          "indexed": false,
          "name": "value",
          "type": "uint256"
        }
      ],
      "name": "ApprovedBlacklistedAddressSpender",
      "type": "event"
    },
    {
      "anonymous": false,
      "inputs": [
        {
          "indexed": true,
          "name": "to",
          "type": "address"
        },
        {
          "indexed": false,
          "name": "value",
          "type": "uint256"
        }
      ],
      "name": "Mint",
      "type": "event"
    },
    {
      "anonymous": false,
      "inputs": [
        {
          "indexed": true,
          "name": "burner",
          "type": "address"
        },
        {
          "indexed": false,
          "name": "value",
          "type": "uint256"
        }
      ],
      "name": "Burn",
      "type": "event"
    },
    {
      "anonymous": false,
      "inputs": [
        {
          "indexed": true,
          "name": "from",
          "type": "address"
        },
        {
          "indexed": true,
          "name": "to",
          "type": "address"
        },
        {
          "indexed": false,
          "name": "value",
          "type": "uint256"
        }
      ],
      "name": "Transfer",
      "type": "event"
    },
    {
      "anonymous": false,
      "inputs": [
        {
          "indexed": true,
          "name": "owner",
          "type": "address"
        },
        {
          "indexed": true,
          "name": "spender",
          "type": "address"
        },
        {
          "indexed": false,
          "name": "value",
          "type": "uint256"
        }
      ],
      "name": "Approval",
      "type": "event"
    },
    {
      "anonymous": false,
      "inputs": [
        {
          "indexed": true,
          "name": "oldRegulator",
          "type": "address"
        },
        {
          "indexed": true,
          "name": "newRegulator",
          "type": "address"
        }
      ],
      "name": "ChangedRegulator",
      "type": "event"
    },
    {
      "anonymous": false,
      "inputs": [],
      "name": "Unlocked",
      "type": "event"
    },
    {
      "anonymous": false,
      "inputs": [],
      "name": "Locked",
      "type": "event"
    },
    {
      "anonymous": false,
      "inputs": [],
      "name": "Pause",
      "type": "event"
    },
    {
      "anonymous": false,
      "inputs": [],
      "name": "Unpause",
      "type": "event"
    },
    {
      "anonymous": false,
      "inputs": [
        {
          "indexed": true,
          "name": "previousOwner",
          "type": "address"
        },
        {
          "indexed": true,
          "name": "newOwner",
          "type": "address"
        }
      ],
      "name": "OwnershipTransferred",
      "type": "event"
    },
    {
      "constant": false,
      "inputs": [
        {
          "name": "_stablecoin",
          "type": "address"
        }
      ],
      "name": "listToken",
      "outputs": [],
      "payable": false,
      "stateMutability": "nonpayable",
      "type": "function"
    },
    {
      "constant": false,
      "inputs": [
        {
          "name": "_stablecoin",
          "type": "address"
        }
      ],
      "name": "unlistToken",
      "outputs": [],
      "payable": false,
      "stateMutability": "nonpayable",
      "type": "function"
    },
    {
      "constant": false,
      "inputs": [
        {
          "name": "stablecoin",
          "type": "address"
        },
        {
          "name": "_newFee",
          "type": "uint256"
        }
      ],
      "name": "setFee",
      "outputs": [],
      "payable": false,
      "stateMutability": "nonpayable",
      "type": "function"
    },
    {
      "constant": false,
      "inputs": [
        {
          "name": "stablecoin",
          "type": "address"
        }
      ],
      "name": "removeFee",
      "outputs": [],
      "payable": false,
      "stateMutability": "nonpayable",
      "type": "function"
    },
    {
      "constant": false,
      "inputs": [
        {
          "name": "_newFee",
          "type": "uint256"
        }
      ],
      "name": "setDefaultFee",
      "outputs": [],
      "payable": false,
      "stateMutability": "nonpayable",
      "type": "function"
    },
    {
      "constant": false,
      "inputs": [
        {
          "name": "_to",
          "type": "address"
        },
        {
          "name": "_amount",
          "type": "uint256"
        }
      ],
      "name": "mint",
      "outputs": [],
      "payable": false,
      "stateMutability": "nonpayable",
      "type": "function"
    },
    {
      "constant": false,
      "inputs": [
        {
          "name": "stablecoin",
          "type": "address"
        },
        {
          "name": "_amount",
          "type": "uint256"
        }
      ],
      "name": "convertCarbonDollar",
      "outputs": [],
      "payable": false,
      "stateMutability": "nonpayable",
      "type": "function"
    },
    {
      "constant": false,
      "inputs": [
        {
          "name": "stablecoin",
          "type": "address"
        },
        {
          "name": "_amount",
          "type": "uint256"
        }
      ],
      "name": "burnCarbonDollar",
      "outputs": [],
      "payable": false,
      "stateMutability": "nonpayable",
      "type": "function"
    },
    {
      "constant": true,
      "inputs": [
        {
          "name": "stablecoin",
          "type": "address"
        }
      ],
      "name": "computeFeeRate",
      "outputs": [
        {
          "name": "feeRate",
          "type": "uint256"
        }
      ],
      "payable": false,
      "stateMutability": "view",
      "type": "function"
    },
    {
      "constant": true,
      "inputs": [
        {
          "name": "_stablecoin",
          "type": "address"
        }
      ],
      "name": "isWhitelisted",
      "outputs": [
        {
          "name": "",
          "type": "bool"
        }
      ],
      "payable": false,
      "stateMutability": "view",
      "type": "function"
    },
    {
      "constant": true,
      "inputs": [
        {
          "name": "stablecoin",
          "type": "address"
        }
      ],
      "name": "getFee",
      "outputs": [
        {
          "name": "",
          "type": "uint256"
        }
      ],
      "payable": false,
      "stateMutability": "view",
      "type": "function"
    },
    {
      "constant": true,
      "inputs": [],
      "name": "getDefaultFee",
      "outputs": [
        {
          "name": "",
          "type": "uint256"
        }
      ],
      "payable": false,
      "stateMutability": "view",
      "type": "function"
    }
  ],
  "bytecode": "0x60806040526001805460a060020a61ffff02191690553480156200002257600080fd5b5060405160208062005bac83398101604052516000805433600160a060020a031991821617909155600180548216905560038054909116600160a060020a03831617905580620000716200010e565b604051809103906000f0801580156200008e573d6000803e3d6000fd5b5060028054600160a060020a0319908116600160a060020a03938416179091556003805490911691841691909117905550620000c96200011f565b604051809103906000f080158015620000e6573d6000803e3d6000fd5b5060048054600160a060020a031916600160a060020a03929092169190911790555062000130565b6040516108f580620049ed83390190565b6040516108ca80620052e283390190565b6148ad80620001406000396000f3006080604052600436106101d75763ffffffff7c0100000000000000000000000000000000000000000000000000000000600035041663095ea7b381146101dc5780630d4b82081461022157806318160ddd146102545780631fc1e25f1461027b57806321bacf28146102a957806323b872dd146102be5780633af32abf146102f55780633f4ba83a1461032357806340c10f191461033857806342966c68146103695780634e71e0c8146103815780635bae9ce9146103965780635c975abb146103ab57806366188463146103c0578063662f94c0146103f15780636ad266111461041f57806370a082311461044d5780638456cb591461047b578063873ab2ce1461049057806388fa2617146104be5780638da5cb5b146104d35780639d36b5c414610511578063a69df4b514610526578063a9059cbb1461053b578063abcb99341461056c578063b199efb51461059a578063b88c9148146105af578063ba6f4ab0146105dd578063c534ba4b1461060e578063c93a6c841461063f578063cde0a4f814610657578063d73dd62314610685578063dd62ed3e146106b6578063dd8fee14146106ea578063e30c3978146106ff578063e55156b514610714578063f2fde38b14610745578063f83d08ba14610773575b600080fd5b3480156101e857600080fd5b5061020d73ffffffffffffffffffffffffffffffffffffffff60043516602435610788565b604080519115158252519081900360200190f35b34801561022d57600080fd5b5061025273ffffffffffffffffffffffffffffffffffffffff60043516602435610ae6565b005b34801561026057600080fd5b506102696110a9565b60408051918252519081900360200190f35b34801561028757600080fd5b5061025273ffffffffffffffffffffffffffffffffffffffff60043516611146565b3480156102b557600080fd5b50610269611225565b3480156102ca57600080fd5b5061020d73ffffffffffffffffffffffffffffffffffffffff600435811690602435166044356112ad565b34801561030157600080fd5b5061020d73ffffffffffffffffffffffffffffffffffffffff60043516611984565b34801561032f57600080fd5b50610252611a32565b34801561034457600080fd5b5061025273ffffffffffffffffffffffffffffffffffffffff60043516602435611ad2565b34801561037557600080fd5b50610252600435611ba4565b34801561038d57600080fd5b50610252611d37565b3480156103a257600080fd5b5061020d611df1565b3480156103b757600080fd5b5061020d611f53565b3480156103cc57600080fd5b5061020d73ffffffffffffffffffffffffffffffffffffffff60043516602435611f74565b3480156103fd57600080fd5b5061025273ffffffffffffffffffffffffffffffffffffffff600435166121cd565b34801561042b57600080fd5b5061025273ffffffffffffffffffffffffffffffffffffffff60043516612576565b34801561045957600080fd5b5061026973ffffffffffffffffffffffffffffffffffffffff600435166126d6565b34801561048757600080fd5b5061025261274e565b34801561049c57600080fd5b5061026973ffffffffffffffffffffffffffffffffffffffff60043516612804565b3480156104ca57600080fd5b5061020d612834565b3480156104df57600080fd5b506104e8612856565b6040805173ffffffffffffffffffffffffffffffffffffffff9092168252519081900360200190f35b34801561051d57600080fd5b506104e8612872565b34801561053257600080fd5b5061025261288e565b34801561054757600080fd5b5061020d73ffffffffffffffffffffffffffffffffffffffff6004351660243561291d565b34801561057857600080fd5b5061025273ffffffffffffffffffffffffffffffffffffffff60043516612dd7565b3480156105a657600080fd5b506104e8612e9b565b3480156105bb57600080fd5b5061026973ffffffffffffffffffffffffffffffffffffffff60043516612eb7565b3480156105e957600080fd5b5061025273ffffffffffffffffffffffffffffffffffffffff60043516602435612f31565b34801561061a57600080fd5b5061025273ffffffffffffffffffffffffffffffffffffffff6004351660243561344c565b34801561064b57600080fd5b50610252600435613852565b34801561066357600080fd5b5061025273ffffffffffffffffffffffffffffffffffffffff6004351661390f565b34801561069157600080fd5b5061020d73ffffffffffffffffffffffffffffffffffffffff60043516602435613ad2565b3480156106c257600080fd5b5061026973ffffffffffffffffffffffffffffffffffffffff60043581169060243516613d20565b3480156106f657600080fd5b506104e8613dd3565b34801561070b57600080fd5b506104e8613def565b34801561072057600080fd5b5061025273ffffffffffffffffffffffffffffffffffffffff60043516602435613e0b565b34801561075157600080fd5b5061025273ffffffffffffffffffffffffffffffffffffffff60043516613f8e565b34801561077f57600080fd5b5061025261401b565b600354604080517f7ccce85100000000000000000000000000000000000000000000000000000000815273ffffffffffffffffffffffffffffffffffffffff8086166004830152915160009386931691637ccce85191602480830192602092919082900301818887803b1580156107fe57600080fd5b505af1158015610812573d6000803e3d6000fd5b505050506040513d602081101561082857600080fd5b50511561089657604080517f08c379a000000000000000000000000000000000000000000000000000000000815260206004820152601c60248201527f55736572206d757374206e6f7420626520626c61636b6c697374656400000000604482015290519081900360640190fd5b600354604080517f7ccce85100000000000000000000000000000000000000000000000000000000815233600482018190529151919273ffffffffffffffffffffffffffffffffffffffff1691637ccce851916024808201926020929091908290030181600087803b15801561090b57600080fd5b505af115801561091f573d6000803e3d6000fd5b505050506040513d602081101561093557600080fd5b5051156109a357604080517f08c379a000000000000000000000000000000000000000000000000000000000815260206004820152601c60248201527f55736572206d757374206e6f7420626520626c61636b6c697374656400000000604482015290519081900360640190fd5b60015474010000000000000000000000000000000000000000900460ff16156109cb57600080fd5b6001547501000000000000000000000000000000000000000000900460ff1615156109f557600080fd5b600254604080517fda46098c00000000000000000000000000000000000000000000000000000000815233600482015273ffffffffffffffffffffffffffffffffffffffff8881166024830152604482018890529151919092169163da46098c91606480830192600092919082900301818387803b158015610a7657600080fd5b505af1158015610a8a573d6000803e3d6000fd5b505060408051878152905173ffffffffffffffffffffffffffffffffffffffff891693503392507f8c5be1e5ebec7d5bd14f71427d1e84f3dd0314c0f7b2291e5b200ac8c7c3b9259181900360200190a3506001949350505050565b600354604080517f14db6d58000000000000000000000000000000000000000000000000000000008152336004820152600080357fffffffff00000000000000000000000000000000000000000000000000000000166024830152915191928392839273ffffffffffffffffffffffffffffffffffffffff909216916314db6d5891604480830192602092919082900301818787803b158015610b8857600080fd5b505af1158015610b9c573d6000803e3d6000fd5b505050506040513d6020811015610bb257600080fd5b50511515610c4757604080517f08c379a000000000000000000000000000000000000000000000000000000000815260206004820152603160248201527f5573657220646f6573206e6f742068617665207065726d697373696f6e20746f60448201527f20657865637574652066756e6374696f6e000000000000000000000000000000606482015290519081900360840190fd5b60015474010000000000000000000000000000000000000000900460ff1615610c6f57600080fd5b610c7885611984565b1515610d0b57604080517f08c379a000000000000000000000000000000000000000000000000000000000815260206004820152603e60248201527f537461626c65636f696e206d7573742062652077686974656c6973746564207060448201527f72696f7220746f2073657474696e6720636f6e76657273696f6e206665650000606482015290519081900360840190fd5b604080517f70a082310000000000000000000000000000000000000000000000000000000081523060048201529051869450859173ffffffffffffffffffffffffffffffffffffffff8616916370a08231916024808201926020929091908290030181600087803b158015610d7f57600080fd5b505af1158015610d93573d6000803e3d6000fd5b505050506040513d6020811015610da957600080fd5b50511015610e6457604080517f08c379a000000000000000000000000000000000000000000000000000000000815260206004820152604360248201527f436172626f6e20657363726f77206163636f756e7420696e2057543020646f6560448201527f736e2774206861766520656e6f75676820746f6b656e7320666f72206275726e60648201527f696e670000000000000000000000000000000000000000000000000000000000608482015290519081900360a40190fd5b60045473ffffffffffffffffffffffffffffffffffffffff16632ff284c285610e8c88612804565b6040518363ffffffff167c01000000000000000000000000000000000000000000000000000000000281526004018083815260200182815260200192505050602060405180830381600087803b158015610ee557600080fd5b505af1158015610ef9573d6000803e3d6000fd5b505050506040513d6020811015610f0f57600080fd5b50519150610f23848363ffffffff61409216565b9050610f2f33856140a4565b604080517fa9059cbb00000000000000000000000000000000000000000000000000000000815233600482015260248101839052905173ffffffffffffffffffffffffffffffffffffffff85169163a9059cbb9160448083019260209291908290030181600087803b158015610fa457600080fd5b505af1158015610fb8573d6000803e3d6000fd5b505050506040513d6020811015610fce57600080fd5b50511515610fdb57600080fd5b8273ffffffffffffffffffffffffffffffffffffffff166342966c68836040518263ffffffff167c010000000000000000000000000000000000000000000000000000000002815260040180828152602001915050600060405180830381600087803b15801561104a57600080fd5b505af115801561105e573d6000803e3d6000fd5b5050505061106c30836142d7565b60408051858152905133917f3a91515f120c05831525e72379609e84b30a70ab21104f3222d0e91411aadc52919081900360200190a25050505050565b600254604080517f18160ddd000000000000000000000000000000000000000000000000000000008152905160009273ffffffffffffffffffffffffffffffffffffffff16916318160ddd91600480830192602092919082900301818787803b15801561111557600080fd5b505af1158015611129573d6000803e3d6000fd5b505050506040513d602081101561113f57600080fd5b5051905090565b60005473ffffffffffffffffffffffffffffffffffffffff16331461116a57600080fd5b60015474010000000000000000000000000000000000000000900460ff161561119257600080fd5b60048054604080517f0418945a00000000000000000000000000000000000000000000000000000000815273ffffffffffffffffffffffffffffffffffffffff8581169482019490945290519290911691630418945a9160248082019260009290919082900301818387803b15801561120a57600080fd5b505af115801561121e573d6000803e3d6000fd5b5050505050565b6000600460009054906101000a900473ffffffffffffffffffffffffffffffffffffffff1673ffffffffffffffffffffffffffffffffffffffff16635a6c72d06040518163ffffffff167c0100000000000000000000000000000000000000000000000000000000028152600401602060405180830381600087803b15801561111557600080fd5b60015460009074010000000000000000000000000000000000000000900460ff16156112d857600080fd5b600354604080517f7ccce85100000000000000000000000000000000000000000000000000000000815273ffffffffffffffffffffffffffffffffffffffff808716600483015291518793879360009384939190921691637ccce85191602480830192602092919082900301818787803b15801561135557600080fd5b505af1158015611369573d6000803e3d6000fd5b505050506040513d602081101561137f57600080fd5b5051156113ed57604080517f08c379a000000000000000000000000000000000000000000000000000000000815260206004820152601f60248201527f526563697069656e742063616e6e6f7420626520626c61636b6c697374656400604482015290519081900360640190fd5b600354604080517f7ccce85100000000000000000000000000000000000000000000000000000000815273ffffffffffffffffffffffffffffffffffffffff878116600483015291519190921691637ccce8519160248083019260209291908290030181600087803b15801561146257600080fd5b505af1158015611476573d6000803e3d6000fd5b505050506040513d602081101561148c57600080fd5b5051600354604080517f91c4529f000000000000000000000000000000000000000000000000000000008152336004820152905192945073ffffffffffffffffffffffffffffffffffffffff909116916391c4529f916024808201926020929091908290030181600087803b15801561150457600080fd5b505af1158015611518573d6000803e3d6000fd5b505050506040513d602081101561152e57600080fd5b5051905081158061153c5750805b15156115f557604080517f08c379a000000000000000000000000000000000000000000000000000000000815260206004820152604c60248201527f4f726967696e2063616e6e6f7420626520626c61636b6c69737465642069662060448201527f7370656e646572206973206e6f7420616e20617070726f76656420626c61636b60648201527f6c697374207370656e6465720000000000000000000000000000000000000000608482015290519081900360a40190fd5b6115ff8833613d20565b86111561166d57604080517f08c379a000000000000000000000000000000000000000000000000000000000815260206004820181905260248201527f6e6f7420656e6f75676820616c6c6f77616e636520746f207472616e73666572604482015290519081900360640190fd5b73ffffffffffffffffffffffffffffffffffffffff871615156116f157604080517f08c379a000000000000000000000000000000000000000000000000000000000815260206004820152601860248201527f746f20616464726573732063616e6e6f74206265203078300000000000000000604482015290519081900360640190fd5b6116fa886126d6565b86111561176857604080517f08c379a000000000000000000000000000000000000000000000000000000000815260206004820152601e60248201527f6e6f7420656e6f7567682062616c616e636520746f207472616e736665720000604482015290519081900360640190fd5b600254604080517f97d88cd200000000000000000000000000000000000000000000000000000000815273ffffffffffffffffffffffffffffffffffffffff8b81166004830152336024830152604482018a9052915191909216916397d88cd291606480830192600092919082900301818387803b1580156117e957600080fd5b505af11580156117fd573d6000803e3d6000fd5b5050600254604080517f21e5383a00000000000000000000000000000000000000000000000000000000815273ffffffffffffffffffffffffffffffffffffffff8c81166004830152602482018c905291519190921693506321e5383a9250604480830192600092919082900301818387803b15801561187c57600080fd5b505af1158015611890573d6000803e3d6000fd5b5050600254604080517fcf8eeb7e00000000000000000000000000000000000000000000000000000000815273ffffffffffffffffffffffffffffffffffffffff8d81166004830152602482018c9052915191909216935063cf8eeb7e9250604480830192600092919082900301818387803b15801561190f57600080fd5b505af1158015611923573d6000803e3d6000fd5b505060408051898152905173ffffffffffffffffffffffffffffffffffffffff808c1694508c1692507fddf252ad1be2c89b69c2b068fc378daa952ba7f163c4a11628f55a4df523b3ef9181900360200190a3506001979650505050505050565b60048054604080517f9b19251a00000000000000000000000000000000000000000000000000000000815273ffffffffffffffffffffffffffffffffffffffff85811694820194909452905160009390921691639b19251a9160248082019260209290919082900301818787803b1580156119fe57600080fd5b505af1158015611a12573d6000803e3d6000fd5b505050506040513d6020811015611a2857600080fd5b505190505b919050565b60005473ffffffffffffffffffffffffffffffffffffffff163314611a5657600080fd5b60015474010000000000000000000000000000000000000000900460ff161515611a7f57600080fd5b600180547fffffffffffffffffffffff00ffffffffffffffffffffffffffffffffffffffff1690556040517f7805862f689e2f13df9f062ff482ad3ad112aca9e0847911ed832e158c525b3390600090a1565b611adb33611984565b1515611b6e57604080517f08c379a000000000000000000000000000000000000000000000000000000000815260206004820152602b60248201527f53656e646572206d75737420626520612077686974656c697374656420746f6b60448201527f656e20636f6e7472616374000000000000000000000000000000000000000000606482015290519081900360840190fd5b60015474010000000000000000000000000000000000000000900460ff1615611b9657600080fd5b611ba082826142d7565b5050565b600354604080517f14db6d58000000000000000000000000000000000000000000000000000000008152336004820152600080357fffffffff00000000000000000000000000000000000000000000000000000000166024830152915173ffffffffffffffffffffffffffffffffffffffff909316926314db6d5892604480840193602093929083900390910190829087803b158015611c4357600080fd5b505af1158015611c57573d6000803e3d6000fd5b505050506040513d6020811015611c6d57600080fd5b50511515611d0257604080517f08c379a000000000000000000000000000000000000000000000000000000000815260206004820152603160248201527f5573657220646f6573206e6f742068617665207065726d697373696f6e20746f60448201527f20657865637574652066756e6374696f6e000000000000000000000000000000606482015290519081900360840190fd5b60015474010000000000000000000000000000000000000000900460ff1615611d2a57600080fd5b611d3433826140a4565b50565b60015473ffffffffffffffffffffffffffffffffffffffff163314611d5b57600080fd5b6001546000805460405173ffffffffffffffffffffffffffffffffffffffff93841693909116917f8be0079c531659141344cd1fd0a4f28419497f9722a3daafe3b4186f6b6457e091a360018054600080547fffffffffffffffffffffffff000000000000000000000000000000000000000090811673ffffffffffffffffffffffffffffffffffffffff841617909155169055565b600354604080517f14db6d58000000000000000000000000000000000000000000000000000000008152336004820152600080357fffffffff000000000000000000000000000000000000000000000000000000001660248301529151919273ffffffffffffffffffffffffffffffffffffffff16916314db6d589160448082019260209290919082900301818787803b158015611e8e57600080fd5b505af1158015611ea2573d6000803e3d6000fd5b505050506040513d6020811015611eb857600080fd5b50511515611f4d57604080517f08c379a000000000000000000000000000000000000000000000000000000000815260206004820152603160248201527f5573657220646f6573206e6f742068617665207065726d697373696f6e20746f60448201527f20657865637574652066756e6374696f6e000000000000000000000000000000606482015290519081900360840190fd5b50600190565b60015474010000000000000000000000000000000000000000900460ff1681565b600354604080517f7ccce85100000000000000000000000000000000000000000000000000000000815273ffffffffffffffffffffffffffffffffffffffff8086166004830152915160009386931691637ccce85191602480830192602092919082900301818887803b158015611fea57600080fd5b505af1158015611ffe573d6000803e3d6000fd5b505050506040513d602081101561201457600080fd5b50511561208257604080517f08c379a000000000000000000000000000000000000000000000000000000000815260206004820152601c60248201527f55736572206d757374206e6f7420626520626c61636b6c697374656400000000604482015290519081900360640190fd5b600354604080517f7ccce85100000000000000000000000000000000000000000000000000000000815233600482018190529151919273ffffffffffffffffffffffffffffffffffffffff1691637ccce851916024808201926020929091908290030181600087803b1580156120f757600080fd5b505af115801561210b573d6000803e3d6000fd5b505050506040513d602081101561212157600080fd5b50511561218f57604080517f08c379a000000000000000000000000000000000000000000000000000000000815260206004820152601c60248201527f55736572206d757374206e6f7420626520626c61636b6c697374656400000000604482015290519081900360640190fd5b60015474010000000000000000000000000000000000000000900460ff16156121b757600080fd5b6121c28585336142e1565b506001949350505050565b600354604080517f7ccce85100000000000000000000000000000000000000000000000000000000815273ffffffffffffffffffffffffffffffffffffffff8085166004830152915184939290921691637ccce851916024808201926020929091908290030181600087803b15801561224557600080fd5b505af1158015612259573d6000803e3d6000fd5b505050506040513d602081101561226f57600080fd5b505115156122de57604080517f08c379a000000000000000000000000000000000000000000000000000000000815260206004820152601860248201527f55736572206d75737420626520626c61636b6c69737465640000000000000000604482015290519081900360640190fd5b60015474010000000000000000000000000000000000000000900460ff161561230657600080fd5b600354604080517f14db6d58000000000000000000000000000000000000000000000000000000008152336004820152600080357fffffffff00000000000000000000000000000000000000000000000000000000166024830152915173ffffffffffffffffffffffffffffffffffffffff909316926314db6d5892604480840193602093929083900390910190829087803b1580156123a557600080fd5b505af11580156123b9573d6000803e3d6000fd5b505050506040513d60208110156123cf57600080fd5b5051151561246457604080517f08c379a000000000000000000000000000000000000000000000000000000000815260206004820152603160248201527f5573657220646f6573206e6f742068617665207065726d697373696f6e20746f60448201527f20657865637574652066756e6374696f6e000000000000000000000000000000606482015290519081900360840190fd5b60025473ffffffffffffffffffffffffffffffffffffffff1663da46098c833361248d826126d6565b604080517c010000000000000000000000000000000000000000000000000000000063ffffffff871602815273ffffffffffffffffffffffffffffffffffffffff948516600482015292909316602483015260448201529051606480830192600092919082900301818387803b15801561250657600080fd5b505af115801561251a573d6000803e3d6000fd5b50339250505073ffffffffffffffffffffffffffffffffffffffff83167f3b1ffca3903932aa264fbb5b7b381746e2b7b61c9c5a6024bad48d23f958a6c2612561856126d6565b60408051918252519081900360200190a35050565b60005473ffffffffffffffffffffffffffffffffffffffff16331461259a57600080fd5b60015474010000000000000000000000000000000000000000900460ff16156125c257600080fd5b6125cb81611984565b151561265e57604080517f08c379a000000000000000000000000000000000000000000000000000000000815260206004820152603e60248201527f537461626c65636f696e206d7573742062652077686974656c6973746564207060448201527f72696f7220746f2073657474696e6720636f6e76657273696f6e206665650000606482015290519081900360840190fd5b60048054604080517f6ad2661100000000000000000000000000000000000000000000000000000000815273ffffffffffffffffffffffffffffffffffffffff8581169482019490945290519290911691636ad266119160248082019260009290919082900301818387803b15801561120a57600080fd5b600254604080517f27e235e300000000000000000000000000000000000000000000000000000000815273ffffffffffffffffffffffffffffffffffffffff8481166004830152915160009392909216916327e235e39160248082019260209290919082900301818787803b1580156119fe57600080fd5b60005473ffffffffffffffffffffffffffffffffffffffff16331461277257600080fd5b60015474010000000000000000000000000000000000000000900460ff161561279a57600080fd5b600180547fffffffffffffffffffffff00ffffffffffffffffffffffffffffffffffffffff16740100000000000000000000000000000000000000001790556040517f6985a02210a168e66602d3235cb6db0e70f92b3ba4d376a33c0f3d9434bff62590600090a1565b60008061281083612eb7565b11156128265761281f82612eb7565b9050611a2d565b61282e611225565b92915050565b6001547501000000000000000000000000000000000000000000900460ff1681565b60005473ffffffffffffffffffffffffffffffffffffffff1681565b60045473ffffffffffffffffffffffffffffffffffffffff1681565b60005473ffffffffffffffffffffffffffffffffffffffff1633146128b257600080fd5b600180547fffffffffffffffffffff00ffffffffffffffffffffffffffffffffffffffffff1675010000000000000000000000000000000000000000001790556040517f19aad37188a1d3921e29eb3c66acf43d81975e107cb650d58cca878627955fd690600090a1565b600354604080517f7ccce85100000000000000000000000000000000000000000000000000000000815273ffffffffffffffffffffffffffffffffffffffff8086166004830152915160009386931691637ccce85191602480830192602092919082900301818887803b15801561299357600080fd5b505af11580156129a7573d6000803e3d6000fd5b505050506040513d60208110156129bd57600080fd5b505115612a2b57604080517f08c379a000000000000000000000000000000000000000000000000000000000815260206004820152601c60248201527f55736572206d757374206e6f7420626520626c61636b6c697374656400000000604482015290519081900360640190fd5b600354604080517f7ccce85100000000000000000000000000000000000000000000000000000000815233600482018190529151919273ffffffffffffffffffffffffffffffffffffffff1691637ccce851916024808201926020929091908290030181600087803b158015612aa057600080fd5b505af1158015612ab4573d6000803e3d6000fd5b505050506040513d6020811015612aca57600080fd5b505115612b3857604080517f08c379a000000000000000000000000000000000000000000000000000000000815260206004820152601c60248201527f55736572206d757374206e6f7420626520626c61636b6c697374656400000000604482015290519081900360640190fd5b60015474010000000000000000000000000000000000000000900460ff1615612b6057600080fd5b73ffffffffffffffffffffffffffffffffffffffff85161515612be457604080517f08c379a000000000000000000000000000000000000000000000000000000000815260206004820152601860248201527f746f20616464726573732063616e6e6f74206265203078300000000000000000604482015290519081900360640190fd5b612bed336126d6565b841115612c5b57604080517f08c379a000000000000000000000000000000000000000000000000000000000815260206004820152601e60248201527f6e6f7420656e6f7567682062616c616e636520746f207472616e736665720000604482015290519081900360640190fd5b600254604080517fcf8eeb7e00000000000000000000000000000000000000000000000000000000815233600482015260248101879052905173ffffffffffffffffffffffffffffffffffffffff9092169163cf8eeb7e9160448082019260009290919082900301818387803b158015612cd457600080fd5b505af1158015612ce8573d6000803e3d6000fd5b5050600254604080517f21e5383a00000000000000000000000000000000000000000000000000000000815273ffffffffffffffffffffffffffffffffffffffff8a81166004830152602482018a905291519190921693506321e5383a9250604480830192600092919082900301818387803b158015612d6757600080fd5b505af1158015612d7b573d6000803e3d6000fd5b505060408051878152905173ffffffffffffffffffffffffffffffffffffffff891693503392507fddf252ad1be2c89b69c2b068fc378daa952ba7f163c4a11628f55a4df523b3ef9181900360200190a3506001949350505050565b60005473ffffffffffffffffffffffffffffffffffffffff163314612dfb57600080fd5b60015474010000000000000000000000000000000000000000900460ff1615612e2357600080fd5b60048054604080517f3b947d2b00000000000000000000000000000000000000000000000000000000815273ffffffffffffffffffffffffffffffffffffffff8581169482019490945290519290911691633b947d2b9160248082019260009290919082900301818387803b15801561120a57600080fd5b60025473ffffffffffffffffffffffffffffffffffffffff1681565b60048054604080517ffaaebd2100000000000000000000000000000000000000000000000000000000815273ffffffffffffffffffffffffffffffffffffffff8581169482019490945290516000939092169163faaebd219160248082019260209290919082900301818787803b1580156119fe57600080fd5b600354604080517f14db6d58000000000000000000000000000000000000000000000000000000008152336004820152600080357fffffffff00000000000000000000000000000000000000000000000000000000166024830152915191928392839273ffffffffffffffffffffffffffffffffffffffff909216916314db6d5891604480830192602092919082900301818787803b158015612fd357600080fd5b505af1158015612fe7573d6000803e3d6000fd5b505050506040513d6020811015612ffd57600080fd5b5051151561309257604080517f08c379a000000000000000000000000000000000000000000000000000000000815260206004820152603160248201527f5573657220646f6573206e6f742068617665207065726d697373696f6e20746f60448201527f20657865637574652066756e6374696f6e000000000000000000000000000000606482015290519081900360840190fd5b60015474010000000000000000000000000000000000000000900460ff16156130ba57600080fd5b6130c385611984565b151561315657604080517f08c379a000000000000000000000000000000000000000000000000000000000815260206004820152603e60248201527f537461626c65636f696e206d7573742062652077686974656c6973746564207060448201527f72696f7220746f2073657474696e6720636f6e76657273696f6e206665650000606482015290519081900360840190fd5b604080517f70a082310000000000000000000000000000000000000000000000000000000081523060048201529051869450859173ffffffffffffffffffffffffffffffffffffffff8616916370a08231916024808201926020929091908290030181600087803b1580156131ca57600080fd5b505af11580156131de573d6000803e3d6000fd5b505050506040513d60208110156131f457600080fd5b505110156132af57604080517f08c379a000000000000000000000000000000000000000000000000000000000815260206004820152604360248201527f436172626f6e20657363726f77206163636f756e7420696e2057543020646f6560448201527f736e2774206861766520656e6f75676820746f6b656e7320666f72206275726e60648201527f696e670000000000000000000000000000000000000000000000000000000000608482015290519081900360a40190fd5b60045473ffffffffffffffffffffffffffffffffffffffff16632ff284c2856132d788612804565b6040518363ffffffff167c01000000000000000000000000000000000000000000000000000000000281526004018083815260200182815260200192505050602060405180830381600087803b15801561333057600080fd5b505af1158015613344573d6000803e3d6000fd5b505050506040513d602081101561335a57600080fd5b5051915061336e848363ffffffff61409216565b905061337a33856140a4565b8273ffffffffffffffffffffffffffffffffffffffff166342966c68856040518263ffffffff167c010000000000000000000000000000000000000000000000000000000002815260040180828152602001915050600060405180830381600087803b1580156133e957600080fd5b505af11580156133fd573d6000803e3d6000fd5b5050505061340b30836142d7565b6040805182815260208101849052815133927f8a1387ce462b7423a12c936187028c782512f204b670218701c0d35e92bc0527928290030190a25050505050565b600354604080517f7ccce85100000000000000000000000000000000000000000000000000000000815273ffffffffffffffffffffffffffffffffffffffff8086166004830152915185939290921691637ccce851916024808201926020929091908290030181600087803b1580156134c457600080fd5b505af11580156134d8573d6000803e3d6000fd5b505050506040513d60208110156134ee57600080fd5b5051151561355d57604080517f08c379a000000000000000000000000000000000000000000000000000000000815260206004820152601860248201527f55736572206d75737420626520626c61636b6c69737465640000000000000000604482015290519081900360640190fd5b60015474010000000000000000000000000000000000000000900460ff161561358557600080fd5b600354604080517f14db6d58000000000000000000000000000000000000000000000000000000008152336004820152600080357fffffffff00000000000000000000000000000000000000000000000000000000166024830152915173ffffffffffffffffffffffffffffffffffffffff909316926314db6d5892604480840193602093929083900390910190829087803b15801561362457600080fd5b505af1158015613638573d6000803e3d6000fd5b505050506040513d602081101561364e57600080fd5b505115156136e357604080517f08c379a000000000000000000000000000000000000000000000000000000000815260206004820152603160248201527f5573657220646f6573206e6f742068617665207065726d697373696f6e20746f60448201527f20657865637574652066756e6374696f6e000000000000000000000000000000606482015290519081900360840190fd5b600254604080517fcf8eeb7e00000000000000000000000000000000000000000000000000000000815273ffffffffffffffffffffffffffffffffffffffff8681166004830152602482018690529151919092169163cf8eeb7e91604480830192600092919082900301818387803b15801561375e57600080fd5b505af1158015613772573d6000803e3d6000fd5b5050600254604080517f82838c7600000000000000000000000000000000000000000000000000000000815260048101879052905173ffffffffffffffffffffffffffffffffffffffff90921693506382838c76925060248082019260009290919082900301818387803b1580156137e957600080fd5b505af11580156137fd573d6000803e3d6000fd5b505060408051858152905173ffffffffffffffffffffffffffffffffffffffff871693507fb81d1dffb753076892e04e6e1234d137b031f70d859c299876b0486e966424fd92509081900360200190a2505050565b60005473ffffffffffffffffffffffffffffffffffffffff16331461387657600080fd5b60015474010000000000000000000000000000000000000000900460ff161561389e57600080fd5b60048054604080517fc93a6c840000000000000000000000000000000000000000000000000000000081529283018490525173ffffffffffffffffffffffffffffffffffffffff9091169163c93a6c8491602480830192600092919082900301818387803b15801561120a57600080fd5b6000805473ffffffffffffffffffffffffffffffffffffffff16331461393457600080fd5b60035473ffffffffffffffffffffffffffffffffffffffff838116911614156139be57604080517f08c379a000000000000000000000000000000000000000000000000000000000815260206004820152601760248201527f4d7573742062652061206e657720726567756c61746f72000000000000000000604482015290519081900360640190fd5b6139c7826144a1565b1515613a5a57604080517f08c379a000000000000000000000000000000000000000000000000000000000815260206004820152603860248201527f43616e6e6f7420736574206120726567756c61746f722073746f72616765207460448201527f6f2061206e6f6e2d636f6e747261637420616464726573730000000000000000606482015290519081900360840190fd5b506003805473ffffffffffffffffffffffffffffffffffffffff8381167fffffffffffffffffffffffff0000000000000000000000000000000000000000831681179093556040519116919082907f4a59b4b607c6055b37a4716d7813d7d4d2c288e4d0dd8298e365b260a1f262e890600090a35050565b600354604080517f7ccce85100000000000000000000000000000000000000000000000000000000815273ffffffffffffffffffffffffffffffffffffffff8086166004830152915160009386931691637ccce85191602480830192602092919082900301818887803b158015613b4857600080fd5b505af1158015613b5c573d6000803e3d6000fd5b505050506040513d6020811015613b7257600080fd5b505115613be057604080517f08c379a000000000000000000000000000000000000000000000000000000000815260206004820152601c60248201527f55736572206d757374206e6f7420626520626c61636b6c697374656400000000604482015290519081900360640190fd5b600354604080517f7ccce85100000000000000000000000000000000000000000000000000000000815233600482018190529151919273ffffffffffffffffffffffffffffffffffffffff1691637ccce851916024808201926020929091908290030181600087803b158015613c5557600080fd5b505af1158015613c69573d6000803e3d6000fd5b505050506040513d6020811015613c7f57600080fd5b505115613ced57604080517f08c379a000000000000000000000000000000000000000000000000000000000815260206004820152601c60248201527f55736572206d757374206e6f7420626520626c61636b6c697374656400000000604482015290519081900360640190fd5b60015474010000000000000000000000000000000000000000900460ff1615613d1557600080fd5b6121c28585336144a9565b600254604080517f55b6ed5c00000000000000000000000000000000000000000000000000000000815273ffffffffffffffffffffffffffffffffffffffff85811660048301528481166024830152915160009392909216916355b6ed5c9160448082019260209290919082900301818787803b158015613da057600080fd5b505af1158015613db4573d6000803e3d6000fd5b505050506040513d6020811015613dca57600080fd5b50519392505050565b60035473ffffffffffffffffffffffffffffffffffffffff1681565b60015473ffffffffffffffffffffffffffffffffffffffff1681565b60005473ffffffffffffffffffffffffffffffffffffffff163314613e2f57600080fd5b60015474010000000000000000000000000000000000000000900460ff1615613e5757600080fd5b613e6082611984565b1515613ef357604080517f08c379a000000000000000000000000000000000000000000000000000000000815260206004820152603e60248201527f537461626c65636f696e206d7573742062652077686974656c6973746564207060448201527f72696f7220746f2073657474696e6720636f6e76657273696f6e206665650000606482015290519081900360840190fd5b60048054604080517fe55156b500000000000000000000000000000000000000000000000000000000815273ffffffffffffffffffffffffffffffffffffffff86811694820194909452602481018590529051929091169163e55156b59160448082019260009290919082900301818387803b158015613f7257600080fd5b505af1158015613f86573d6000803e3d6000fd5b505050505050565b60005473ffffffffffffffffffffffffffffffffffffffff163314613fb257600080fd5b73ffffffffffffffffffffffffffffffffffffffff81161515613fd457600080fd5b600180547fffffffffffffffffffffffff00000000000000000000000000000000000000001673ffffffffffffffffffffffffffffffffffffffff92909216919091179055565b60005473ffffffffffffffffffffffffffffffffffffffff16331461403f57600080fd5b600180547fffffffffffffffffffff00ffffffffffffffffffffffffffffffffffffffffff1690556040517f0f2e5b6c72c6a4491efd919a9f9a409f324ef0708c11ee57d410c2cb06c0992b90600090a1565b60008282111561409e57fe5b50900390565b6140ad826126d6565b81111561411b57604080517f08c379a000000000000000000000000000000000000000000000000000000000815260206004820152601a60248201527f6e6f7420656e6f7567682062616c616e636520746f206275726e000000000000604482015290519081900360640190fd5b600254604080517fcf8eeb7e00000000000000000000000000000000000000000000000000000000815273ffffffffffffffffffffffffffffffffffffffff8581166004830152602482018590529151919092169163cf8eeb7e91604480830192600092919082900301818387803b15801561419657600080fd5b505af11580156141aa573d6000803e3d6000fd5b5050600254604080517f82838c7600000000000000000000000000000000000000000000000000000000815260048101869052905173ffffffffffffffffffffffffffffffffffffffff90921693506382838c76925060248082019260009290919082900301818387803b15801561422157600080fd5b505af1158015614235573d6000803e3d6000fd5b505060408051848152905173ffffffffffffffffffffffffffffffffffffffff861693507fcc16f5dbb4873280815c1ee09dbd06736cffcc184412cf7a71a0fdb75d397ca592509081900360200190a260408051828152905160009173ffffffffffffffffffffffffffffffffffffffff8516917fddf252ad1be2c89b69c2b068fc378daa952ba7f163c4a11628f55a4df523b3ef9181900360200190a35050565b611ba082826145b3565b60006142ed8285613d20565b90508083111561439557600254604080517fda46098c00000000000000000000000000000000000000000000000000000000815273ffffffffffffffffffffffffffffffffffffffff85811660048301528781166024830152600060448301819052925193169263da46098c9260648084019391929182900301818387803b15801561437857600080fd5b505af115801561438c573d6000803e3d6000fd5b50505050614431565b600254604080517f97d88cd200000000000000000000000000000000000000000000000000000000815273ffffffffffffffffffffffffffffffffffffffff8581166004830152878116602483015260448201879052915191909216916397d88cd291606480830192600092919082900301818387803b15801561441857600080fd5b505af115801561442c573d6000803e3d6000fd5b505050505b8373ffffffffffffffffffffffffffffffffffffffff168273ffffffffffffffffffffffffffffffffffffffff167f8c5be1e5ebec7d5bd14f71427d1e84f3dd0314c0f7b2291e5b200ac8c7c3b92561448a8588613d20565b60408051918252519081900360200190a350505050565b6000903b1190565b600254604080517f5fd72d1600000000000000000000000000000000000000000000000000000000815273ffffffffffffffffffffffffffffffffffffffff848116600483015286811660248301526044820186905291519190921691635fd72d1691606480830192600092919082900301818387803b15801561452c57600080fd5b505af1158015614540573d6000803e3d6000fd5b505050508273ffffffffffffffffffffffffffffffffffffffff168173ffffffffffffffffffffffffffffffffffffffff167f8c5be1e5ebec7d5bd14f71427d1e84f3dd0314c0f7b2291e5b200ac8c7c3b92561459d8487613d20565b60408051918252519081900360200190a3505050565b600354604080517fd88c271e00000000000000000000000000000000000000000000000000000000815273ffffffffffffffffffffffffffffffffffffffff808616600483015291518593929092169163d88c271e916024808201926020929091908290030181600087803b15801561462b57600080fd5b505af115801561463f573d6000803e3d6000fd5b505050506040513d602081101561465557600080fd5b505115156146c457604080517f08c379a000000000000000000000000000000000000000000000000000000000815260206004820152601860248201527f55736572206d7573742062652077686974656c69737465640000000000000000604482015290519081900360640190fd5b600254604080517fe468688e00000000000000000000000000000000000000000000000000000000815260048101859052905173ffffffffffffffffffffffffffffffffffffffff9092169163e468688e9160248082019260009290919082900301818387803b15801561473757600080fd5b505af115801561474b573d6000803e3d6000fd5b5050600254604080517f21e5383a00000000000000000000000000000000000000000000000000000000815273ffffffffffffffffffffffffffffffffffffffff88811660048301526024820188905291519190921693506321e5383a9250604480830192600092919082900301818387803b1580156147ca57600080fd5b505af11580156147de573d6000803e3d6000fd5b505060408051858152905173ffffffffffffffffffffffffffffffffffffffff871693507f0f6798a560793a54c3bcfe86a93cde1e73087d944c0ea20544137d412139688592509081900360200190a260408051838152905173ffffffffffffffffffffffffffffffffffffffff8516916000917fddf252ad1be2c89b69c2b068fc378daa952ba7f163c4a11628f55a4df523b3ef9181900360200190a35050505600a165627a7a72305820d30e903efdaacff8d8f6ee1678a662bf3418462597656bda98ddb1bfa6913bf70029608060405260008054600160a060020a031990811633179091556001805490911690556108c4806100316000396000f3006080604052600436106100e55763ffffffff7c010000000000000000000000000000000000000000000000000000000060003504166318160ddd81146100ea57806321e5383a1461011157806327e235e3146101445780634e71e0c81461017257806355b6ed5c146101875780635fd72d16146101bb57806382838c76146101f25780638da5cb5b1461020a57806397d88cd214610248578063cf8eeb7e1461027f578063da46098c146102b0578063e30443bc146102e7578063e30c397814610318578063e468688e1461032d578063f2fde38b14610345578063f7ea7a3d14610373575b600080fd5b3480156100f657600080fd5b506100ff61038b565b60408051918252519081900360200190f35b34801561011d57600080fd5b5061014273ffffffffffffffffffffffffffffffffffffffff60043516602435610391565b005b34801561015057600080fd5b506100ff73ffffffffffffffffffffffffffffffffffffffff60043516610418565b34801561017e57600080fd5b5061014261042a565b34801561019357600080fd5b506100ff73ffffffffffffffffffffffffffffffffffffffff600435811690602435166104e4565b3480156101c757600080fd5b5061014273ffffffffffffffffffffffffffffffffffffffff60043581169060243516604435610501565b3480156101fe57600080fd5b506101426004356105a6565b34801561021657600080fd5b5061021f6105e3565b6040805173ffffffffffffffffffffffffffffffffffffffff9092168252519081900360200190f35b34801561025457600080fd5b5061014273ffffffffffffffffffffffffffffffffffffffff600435811690602435166044356105ff565b34801561028b57600080fd5b5061014273ffffffffffffffffffffffffffffffffffffffff60043516602435610666565b3480156102bc57600080fd5b5061014273ffffffffffffffffffffffffffffffffffffffff600435811690602435166044356106c0565b3480156102f357600080fd5b5061014273ffffffffffffffffffffffffffffffffffffffff6004351660243561071d565b34801561032457600080fd5b5061021f61076a565b34801561033957600080fd5b50610142600435610786565b34801561035157600080fd5b5061014273ffffffffffffffffffffffffffffffffffffffff600435166107bd565b34801561037f57600080fd5b5061014260043561084a565b60045481565b60005473ffffffffffffffffffffffffffffffffffffffff1633146103b557600080fd5b73ffffffffffffffffffffffffffffffffffffffff82166000908152600360205260409020546103eb908263ffffffff61087316565b73ffffffffffffffffffffffffffffffffffffffff90921660009081526003602052604090209190915550565b60036020526000908152604090205481565b60015473ffffffffffffffffffffffffffffffffffffffff16331461044e57600080fd5b6001546000805460405173ffffffffffffffffffffffffffffffffffffffff93841693909116917f8be0079c531659141344cd1fd0a4f28419497f9722a3daafe3b4186f6b6457e091a360018054600080547fffffffffffffffffffffffff000000000000000000000000000000000000000090811673ffffffffffffffffffffffffffffffffffffffff841617909155169055565b600260209081526000928352604080842090915290825290205481565b60005473ffffffffffffffffffffffffffffffffffffffff16331461052557600080fd5b73ffffffffffffffffffffffffffffffffffffffff808416600090815260026020908152604080832093861683529290522054610568908263ffffffff61087316565b73ffffffffffffffffffffffffffffffffffffffff938416600090815260026020908152604080832095909616825293909352929091209190915550565b60005473ffffffffffffffffffffffffffffffffffffffff1633146105ca57600080fd5b6004546105dd908263ffffffff61088616565b60045550565b60005473ffffffffffffffffffffffffffffffffffffffff1681565b60005473ffffffffffffffffffffffffffffffffffffffff16331461062357600080fd5b73ffffffffffffffffffffffffffffffffffffffff808416600090815260026020908152604080832093861683529290522054610568908263ffffffff61088616565b60005473ffffffffffffffffffffffffffffffffffffffff16331461068a57600080fd5b73ffffffffffffffffffffffffffffffffffffffff82166000908152600360205260409020546103eb908263ffffffff61088616565b60005473ffffffffffffffffffffffffffffffffffffffff1633146106e457600080fd5b73ffffffffffffffffffffffffffffffffffffffff92831660009081526002602090815260408083209490951682529290925291902055565b60005473ffffffffffffffffffffffffffffffffffffffff16331461074157600080fd5b73ffffffffffffffffffffffffffffffffffffffff909116600090815260036020526040902055565b60015473ffffffffffffffffffffffffffffffffffffffff1681565b60005473ffffffffffffffffffffffffffffffffffffffff1633146107aa57600080fd5b6004546105dd908263ffffffff61087316565b60005473ffffffffffffffffffffffffffffffffffffffff1633146107e157600080fd5b73ffffffffffffffffffffffffffffffffffffffff8116151561080357600080fd5b600180547fffffffffffffffffffffffff00000000000000000000000000000000000000001673ffffffffffffffffffffffffffffffffffffffff92909216919091179055565b60005473ffffffffffffffffffffffffffffffffffffffff16331461086e57600080fd5b600455565b8181018281101561088057fe5b92915050565b60008282111561089257fe5b509003905600a165627a7a72305820154605ec09aa8a1a2acc2d7f30e7d20d0314a1d7d019d398a5a0b41dee8e8e4a0029608060405260008054600160a060020a03199081163317909155600180549091169055610899806100316000396000f3006080604052600436106100cf5763ffffffff7c01000000000000000000000000000000000000000000000000000000006000350416630418945a81146100d4578063166e55d9146101045780632ff284c2146101475780633b947d2b146101625780634e71e0c8146101905780635a6c72d0146101a55780636ad26611146101ba5780638da5cb5b146101e85780639b19251a14610226578063c93a6c8414610268578063e30c397814610280578063e55156b514610295578063f2fde38b146102c6578063faaebd21146102f4575b600080fd5b3480156100e057600080fd5b5061010273ffffffffffffffffffffffffffffffffffffffff60043516610322565b005b34801561011057600080fd5b5061013560043573ffffffffffffffffffffffffffffffffffffffff602435166103bd565b60408051918252519081900360200190f35b34801561015357600080fd5b506101356004356024356103f5565b34801561016e57600080fd5b5061010273ffffffffffffffffffffffffffffffffffffffff60043516610422565b34801561019c57600080fd5b506101026104ba565b3480156101b157600080fd5b50610135610574565b3480156101c657600080fd5b5061010273ffffffffffffffffffffffffffffffffffffffff6004351661057a565b3480156101f457600080fd5b506101fd610621565b6040805173ffffffffffffffffffffffffffffffffffffffff9092168252519081900360200190f35b34801561023257600080fd5b5061025473ffffffffffffffffffffffffffffffffffffffff6004351661063d565b604080519115158252519081900360200190f35b34801561027457600080fd5b50610102600435610652565b34801561028c57600080fd5b506101fd6106c6565b3480156102a157600080fd5b5061010273ffffffffffffffffffffffffffffffffffffffff600435166024356106e2565b3480156102d257600080fd5b5061010273ffffffffffffffffffffffffffffffffffffffff60043516610790565b34801561030057600080fd5b5061013573ffffffffffffffffffffffffffffffffffffffff6004351661081d565b60005473ffffffffffffffffffffffffffffffffffffffff16331461034657600080fd5b73ffffffffffffffffffffffffffffffffffffffff811660008181526004602052604080822080547fffffffffffffffffffffffffffffffffffffffffffffffffffffffffffffff00166001179055517f3db297c09c19972ba6a701ff373ab97e21ff1e4992e863c7abe44e9b2fed08479190a250565b73ffffffffffffffffffffffffffffffffffffffff81166000908152600260205260408120546103ed84826103f5565b949350505050565b60006104196103e861040d858563ffffffff61082f16565b9063ffffffff61085816565b90505b92915050565b60005473ffffffffffffffffffffffffffffffffffffffff16331461044657600080fd5b73ffffffffffffffffffffffffffffffffffffffff811660008181526004602052604080822080547fffffffffffffffffffffffffffffffffffffffffffffffffffffffffffffff00169055517f3302a1b37f04242bb55603f5449e7ecd690a35eef08ba1353c48c20e2aae9cda9190a250565b60015473ffffffffffffffffffffffffffffffffffffffff1633146104de57600080fd5b6001546000805460405173ffffffffffffffffffffffffffffffffffffffff93841693909116917f8be0079c531659141344cd1fd0a4f28419497f9722a3daafe3b4186f6b6457e091a360018054600080547fffffffffffffffffffffffff000000000000000000000000000000000000000090811673ffffffffffffffffffffffffffffffffffffffff841617909155169055565b60035481565b6000805473ffffffffffffffffffffffffffffffffffffffff16331461059f57600080fd5b5073ffffffffffffffffffffffffffffffffffffffff811660009081526002602052604081208054919055801561061d5760408051828152905173ffffffffffffffffffffffffffffffffffffffff8416917fe4ca060d5956a829454e1f8734d008a552f7c9a701ba632810443acc98435c68919081900360200190a25b5050565b60005473ffffffffffffffffffffffffffffffffffffffff1681565b60046020526000908152604090205460ff1681565b6000805473ffffffffffffffffffffffffffffffffffffffff16331461067757600080fd5b50600380549082905581811461061d57604080518281526020810184905281517f2faa036c952bde05f63e87e0c61278ffd974bfc128a2b0ef03fafdb57f5d5cea929181900390910190a15050565b60015473ffffffffffffffffffffffffffffffffffffffff1681565b6000805473ffffffffffffffffffffffffffffffffffffffff16331461070757600080fd5b5073ffffffffffffffffffffffffffffffffffffffff8216600090815260026020526040902080549082905581811461078b576040805182815260208101849052815173ffffffffffffffffffffffffffffffffffffffff8616927ff98c81ad0a5eb3551c3561de8dc9d1512e8680fb77425ea138ebfe9a9c0065ff928290030190a25b505050565b60005473ffffffffffffffffffffffffffffffffffffffff1633146107b457600080fd5b73ffffffffffffffffffffffffffffffffffffffff811615156107d657600080fd5b600180547fffffffffffffffffffffffff00000000000000000000000000000000000000001673ffffffffffffffffffffffffffffffffffffffff92909216919091179055565b60026020526000908152604090205481565b60008215156108405750600061041c565b5081810281838281151561085057fe5b041461041c57fe5b6000818381151561086557fe5b0493925050505600a165627a7a723058202aeb0fca47f05bad7bd07aba2ece66395af1df4309999c8bbe013b61a64b9ce20029",
  "source": "pragma solidity ^0.4.24;\r\n\r\nimport \"./dataStorage/CarbonDollarStorage.sol\";\r\nimport \"../permissionedToken/PermissionedToken.sol\";\r\nimport \"../whitelistedToken/WhitelistedToken.sol\";\r\nimport '../../regulator/carbonDollarRegulator/CarbonDollarRegulator.sol';\r\n\r\n/**\r\n* @title CarbonDollar\r\n* @notice The main functionality for the CarbonUSD metatoken. (CarbonUSD is just a proxy\r\n* that implements this contract's functionality.) This is a permissioned token, so users have to be \r\n* whitelisted before they can do any mint/burn/convert operation. Every CarbonDollar token is backed by one\r\n* whitelisted stablecoin credited to the balance of this contract address.\r\n*/\r\ncontract CarbonDollar is PermissionedToken {\r\n    \r\n    // Events\r\n\r\n    event ConvertedToWT(address indexed user, uint256 amount);\r\n    event BurnedCUSD(address indexed user, uint256 feedAmount, uint256 chargedFee);\r\n    \r\n    /**\r\n        Modifiers\r\n    */\r\n    modifier requiresWhitelistedToken() {\r\n        require(isWhitelisted(msg.sender), \"Sender must be a whitelisted token contract\");\r\n        _;\r\n    }\r\n\r\n    CarbonDollarStorage public tokenStorage_CD;\r\n\r\n    /** CONSTRUCTOR\r\n    * @dev Passes along arguments to base class.\r\n    */\r\n    constructor(address _regulator) public PermissionedToken(_regulator) {\r\n\r\n        // base class override\r\n        regulator = CarbonDollarRegulator(_regulator);\r\n\r\n        tokenStorage_CD = new CarbonDollarStorage();\r\n    }\r\n\r\n    /**\r\n     * @notice Add new stablecoin to whitelist.\r\n     * @param _stablecoin Address of stablecoin contract.\r\n     */\r\n    function listToken(address _stablecoin) public onlyOwner whenNotPaused {\r\n        tokenStorage_CD.addStablecoin(_stablecoin); \r\n    }\r\n\r\n    /**\r\n     * @notice Remove existing stablecoin from whitelist.\r\n     * @param _stablecoin Address of stablecoin contract.\r\n     */\r\n    function unlistToken(address _stablecoin) public onlyOwner whenNotPaused {\r\n        tokenStorage_CD.removeStablecoin(_stablecoin);\r\n    }\r\n\r\n    /**\r\n     * @notice Change fees associated with going from CarbonUSD to a particular stablecoin.\r\n     * @param stablecoin Address of the stablecoin contract.\r\n     * @param _newFee The new fee rate to set, in tenths of a percent. \r\n     */\r\n    function setFee(address stablecoin, uint256 _newFee) public onlyOwner whenNotPaused {\r\n        require(isWhitelisted(stablecoin), \"Stablecoin must be whitelisted prior to setting conversion fee\");\r\n        tokenStorage_CD.setFee(stablecoin, _newFee);\r\n    }\r\n\r\n    /**\r\n     * @notice Remove fees associated with going from CarbonUSD to a particular stablecoin.\r\n     * The default fee still may apply.\r\n     * @param stablecoin Address of the stablecoin contract.\r\n     */\r\n    function removeFee(address stablecoin) public onlyOwner whenNotPaused {\r\n        require(isWhitelisted(stablecoin), \"Stablecoin must be whitelisted prior to setting conversion fee\");\r\n       tokenStorage_CD.removeFee(stablecoin);\r\n    }\r\n\r\n    /**\r\n     * @notice Change the default fee associated with going from CarbonUSD to a WhitelistedToken.\r\n     * This fee amount is used if the fee for a WhitelistedToken is not specified.\r\n     * @param _newFee The new fee rate to set, in tenths of a percent.\r\n     */\r\n    function setDefaultFee(uint256 _newFee) public onlyOwner whenNotPaused {\r\n        tokenStorage_CD.setDefaultFee(_newFee);\r\n    }\r\n\r\n    /**\r\n     * @notice Mints CUSD on behalf of a user. Note the use of the \"requiresWhitelistedToken\"\r\n     * modifier; this means that minting authority does not belong to any personal account; \r\n     * only whitelisted token contracts can call this function. The intended functionality is that the only\r\n     * way to mint CUSD is for the user to actually burn a whitelisted token to convert into CUSD\r\n     * @param _to User to send CUSD to\r\n     * @param _amount Amount of CarbonUSD to mint.\r\n     */\r\n    function mint(address _to, uint256 _amount) public requiresWhitelistedToken whenNotPaused {\r\n        _mint(_to, _amount);\r\n    }\r\n\r\n    /**\r\n     * @notice user can convert CarbonUSD umbrella token into a whitelisted stablecoin. \r\n     * @param stablecoin represents the type of coin the users wishes to receive for burning carbonUSD\r\n     * @param _amount Amount of CarbonUSD to convert.\r\n     * we credit the user's account at the sender address with the _amount minus the percentage fee we want to charge.\r\n     */\r\n    function convertCarbonDollar(address stablecoin, uint256 _amount) public requiresPermission whenNotPaused  {\r\n        require(isWhitelisted(stablecoin), \"Stablecoin must be whitelisted prior to setting conversion fee\");\r\n        WhitelistedToken whitelisted = WhitelistedToken(stablecoin);\r\n        require(whitelisted.balanceOf(address(this)) >= _amount, \"Carbon escrow account in WT0 doesn't have enough tokens for burning\");\r\n \r\n        // Send back WT0 to calling user, but with a fee reduction.\r\n        // Transfer this fee into the whitelisted token's CarbonDollar account (this contract's address)\r\n        uint256 chargedFee = tokenStorage_CD.computeFee(_amount, computeFeeRate(stablecoin));\r\n        uint256 feedAmount = _amount.sub(chargedFee);\r\n        _burn(msg.sender, _amount);\r\n        require(whitelisted.transfer(msg.sender, feedAmount));\r\n        whitelisted.burn(chargedFee);\r\n        _mint(address(this), chargedFee);\r\n        emit ConvertedToWT(msg.sender, _amount);\r\n    }\r\n\r\n     /**\r\n     * @notice burns CarbonDollar and an equal amount of whitelisted stablecoin from the CarbonDollar address\r\n     * @param stablecoin Represents the stablecoin whose fee will be charged.\r\n     * @param _amount Amount of CarbonUSD to burn.\r\n     */\r\n    function burnCarbonDollar(address stablecoin, uint256 _amount) public requiresPermission whenNotPaused {\r\n        require(isWhitelisted(stablecoin), \"Stablecoin must be whitelisted prior to setting conversion fee\");\r\n        WhitelistedToken whitelisted = WhitelistedToken(stablecoin);\r\n        require(whitelisted.balanceOf(address(this)) >= _amount, \"Carbon escrow account in WT0 doesn't have enough tokens for burning\");\r\n \r\n        // Burn user's CUSD, but with a fee reduction.\r\n        uint256 chargedFee = tokenStorage_CD.computeFee(_amount, computeFeeRate(stablecoin));\r\n        uint256 feedAmount = _amount.sub(chargedFee);\r\n        _burn(msg.sender, _amount);\r\n        whitelisted.burn(_amount);\r\n        _mint(address(this), chargedFee);\r\n        emit BurnedCUSD(msg.sender, feedAmount, chargedFee); // Whitelisted trust account should send user feedAmount USD\r\n    }\r\n\r\n    /** Computes fee percentage associated with burning into a particular stablecoin.\r\n     * @param stablecoin The stablecoin whose fee will be charged. Precondition: is a whitelisted\r\n     * stablecoin.\r\n     * @return The fee that will be charged. If the stablecoin's fee is not set, the default\r\n     * fee is returned.\r\n     */\r\n    function computeFeeRate(address stablecoin) public view returns (uint256 feeRate) {\r\n        if (getFee(stablecoin) > 0) \r\n            feeRate = getFee(stablecoin);\r\n        else\r\n            feeRate = getDefaultFee();\r\n    }\r\n\r\n    /**\r\n    * @notice Check if whitelisted token is whitelisted\r\n    * @return bool true if whitelisted, false if not\r\n    **/\r\n    function isWhitelisted(address _stablecoin) public view returns (bool) {\r\n        return tokenStorage_CD.whitelist(_stablecoin);\r\n    }\r\n\r\n    /**\r\n     * @notice Get the fee associated with going from CarbonUSD to a specific WhitelistedToken.\r\n     * @param stablecoin The stablecoin whose fee is being checked.\r\n     * @return The fee associated with the stablecoin.\r\n     */\r\n    function getFee(address stablecoin) public view returns (uint256) {\r\n        return tokenStorage_CD.fees(stablecoin);\r\n    }\r\n\r\n    /**\r\n     * @notice Get the default fee associated with going from CarbonUSD to a specific WhitelistedToken.\r\n     * @return The default fee for stablecoin trades.\r\n     */\r\n    function getDefaultFee() public view returns (uint256) {\r\n        return tokenStorage_CD.defaultFee();\r\n    }\r\n\r\n    function _mint(address _to, uint256 _amount) internal {\r\n        super._mint(_to, _amount);\r\n    }\r\n\r\n}",
  "sourcePath": "C:\\Users\\npain\\Projects\\Carbon\\fiat_gateway\\contracts\\tokens\\carbonToken\\CarbonDollar.sol",
  "compiler": {
    "name": "solc",
    "version": "0.4.24+commit.e67f0147.Emscripten.clang"
  },
  "schemaVersion": "2.0.1",
  "updatedAt": "2018-09-21T21:01:17.945Z"
}