{
  "contractName": "CarbonDollarProxyFactory",
  "abi": [
    {
      "constant": true,
      "inputs": [
        {
          "name": "",
          "type": "uint256"
        }
      ],
      "name": "tokens",
      "outputs": [
        {
          "name": "",
          "type": "address"
        }
      ],
      "payable": false,
      "stateMutability": "view",
      "type": "function"
    },
    {
      "anonymous": false,
      "inputs": [
        {
          "indexed": false,
          "name": "newToken",
          "type": "address"
        },
        {
          "indexed": false,
          "name": "index",
          "type": "uint256"
        }
      ],
      "name": "CreatedCarbonDollarProxy",
      "type": "event"
    },
    {
      "constant": false,
      "inputs": [
        {
          "name": "tokenImplementation",
          "type": "address"
        },
        {
          "name": "regulator",
          "type": "address"
        }
      ],
      "name": "createToken",
      "outputs": [],
      "payable": false,
      "stateMutability": "nonpayable",
      "type": "function"
    },
    {
      "constant": true,
      "inputs": [],
      "name": "getCount",
      "outputs": [
        {
          "name": "",
          "type": "uint256"
        }
      ],
      "payable": false,
      "stateMutability": "view",
      "type": "function"
    },
    {
      "constant": true,
      "inputs": [
        {
          "name": "i",
          "type": "uint256"
        }
      ],
      "name": "getToken",
      "outputs": [
        {
          "name": "",
          "type": "address"
        }
      ],
      "payable": false,
      "stateMutability": "view",
      "type": "function"
    }
  ],
  "bytecode": "0x608060405234801561001057600080fd5b50611dc5806100206000396000f3006080604052600436106100615763ffffffff7c01000000000000000000000000000000000000000000000000000000006000350416634f64b2be81146100665780636ed776b2146100a7578063a87d942c146100dd578063e4b50cb814610104575b600080fd5b34801561007257600080fd5b5061007e60043561011c565b6040805173ffffffffffffffffffffffffffffffffffffffff9092168252519081900360200190f35b3480156100b357600080fd5b506100db73ffffffffffffffffffffffffffffffffffffffff60043581169060243516610151565b005b3480156100e957600080fd5b506100f26102f5565b60408051918252519081900360200190f35b34801561011057600080fd5b5061007e6004356102fb565b600080548290811061012a57fe5b60009182526020909120015473ffffffffffffffffffffffffffffffffffffffff16905081565b6000828261015d6103b1565b73ffffffffffffffffffffffffffffffffffffffff928316815291166020820152604080519182900301906000f08015801561019d573d6000803e3d6000fd5b50604080517ff2fde38b000000000000000000000000000000000000000000000000000000008152336004820152905191925073ffffffffffffffffffffffffffffffffffffffff83169163f2fde38b9160248082019260009290919082900301818387803b15801561020f57600080fd5b505af1158015610223573d6000803e3d6000fd5b505060008054600180820183559180527f290decd9548b62a8d60345a988386fc84ba6bc95484008f6362f93160ef3e5630180547fffffffffffffffffffffffff00000000000000000000000000000000000000001673ffffffffffffffffffffffffffffffffffffffff86161790557f1889898577158b61e96f525de9eeb035536fedbd033530a14408f2e4cf42287492508391506102c16102f5565b6040805173ffffffffffffffffffffffffffffffffffffffff909416845291900360208301528051918290030190a1505050565b60005490565b600080548210801561030e575060008210155b151561037b57604080517f08c379a000000000000000000000000000000000000000000000000000000000815260206004820152600d60248201527f496e76616c696420696e64657800000000000000000000000000000000000000604482015290519081900360640190fd5b600080548390811061038957fe5b60009182526020909120015473ffffffffffffffffffffffffffffffffffffffff1692915050565b6040516119d8806103c2833901905600608060405234801561001057600080fd5b506040516040806119d883398101604081815282516020938401517f6f72672e7a657070656c696e6f732e70726f78792e696d706c656d656e74617484527f696f6e0000000000000000000000000000000000000000000000000000000000948401949094529051918290036023019091209091908290829082906000805160206119b8833981519152146100a157fe5b6100b381640100000000610189810204565b506000805433600160a060020a031991821617909155600180548216905560038054909116600160a060020a0383161790556100ed61024f565b604051809103906000f080158015610109573d6000803e3d6000fd5b5060028054600160a060020a0319908116600160a060020a03938416179091556003805490911691851691909117905550610144905061025f565b604051809103906000f080158015610160573d6000803e3d6000fd5b5060048054600160a060020a031916600160a060020a03929092169190911790555061026f9050565b60006101a18264010000000061054761024782021704565b151561023457604080517f08c379a000000000000000000000000000000000000000000000000000000000815260206004820152603b60248201527f43616e6e6f742073657420612070726f787920696d706c656d656e746174696f60448201527f6e20746f2061206e6f6e2d636f6e747261637420616464726573730000000000606482015290519081900360840190fd5b506000805160206119b883398151915255565b6000903b1190565b6040516108f5806107f983390190565b6040516108ca806110ee83390190565b61057b8061027e6000396000f3006080604052600436106100985763ffffffff7c01000000000000000000000000000000000000000000000000000000006000350416633659cfe681146100a25780634e71e0c8146100d05780635c60da1b146100e55780638da5cb5b146101235780639d36b5c414610138578063b199efb51461014d578063dd8fee1414610162578063e30c397814610177578063f2fde38b1461018c575b6100a06101ba565b005b3480156100ae57600080fd5b506100a073ffffffffffffffffffffffffffffffffffffffff600435166101d4565b3480156100dc57600080fd5b506100a0610204565b3480156100f157600080fd5b506100fa6102be565b6040805173ffffffffffffffffffffffffffffffffffffffff9092168252519081900360200190f35b34801561012f57600080fd5b506100fa6102cd565b34801561014457600080fd5b506100fa6102e9565b34801561015957600080fd5b506100fa610305565b34801561016e57600080fd5b506100fa610321565b34801561018357600080fd5b506100fa61033d565b34801561019857600080fd5b506100a073ffffffffffffffffffffffffffffffffffffffff60043516610359565b6101c26101d2565b6101d26101cd6103e6565b61040b565b565b60005473ffffffffffffffffffffffffffffffffffffffff1633146101f857600080fd5b6102018161042f565b50565b60015473ffffffffffffffffffffffffffffffffffffffff16331461022857600080fd5b6001546000805460405173ffffffffffffffffffffffffffffffffffffffff93841693909116917f8be0079c531659141344cd1fd0a4f28419497f9722a3daafe3b4186f6b6457e091a360018054600080547fffffffffffffffffffffffff000000000000000000000000000000000000000090811673ffffffffffffffffffffffffffffffffffffffff841617909155169055565b60006102c86103e6565b905090565b60005473ffffffffffffffffffffffffffffffffffffffff1681565b60045473ffffffffffffffffffffffffffffffffffffffff1681565b60025473ffffffffffffffffffffffffffffffffffffffff1681565b60035473ffffffffffffffffffffffffffffffffffffffff1681565b60015473ffffffffffffffffffffffffffffffffffffffff1681565b60005473ffffffffffffffffffffffffffffffffffffffff16331461037d57600080fd5b73ffffffffffffffffffffffffffffffffffffffff8116151561039f57600080fd5b600180547fffffffffffffffffffffffff00000000000000000000000000000000000000001673ffffffffffffffffffffffffffffffffffffffff92909216919091179055565b7f7050c9e0f4ca769c69bd3a8ef740bc37934f8e2c036e5a723fd8ee048ed3f8c35490565b3660008037600080366000845af43d6000803e80801561042a573d6000f35b3d6000fd5b61043881610484565b6040805173ffffffffffffffffffffffffffffffffffffffff8316815290517fbc7cd75a20ee27fd9adebab32041f755214dbc6bffa90cc0225b39da2e5c2d3b9181900360200190a150565b600061048f82610547565b151561052257604080517f08c379a000000000000000000000000000000000000000000000000000000000815260206004820152603b60248201527f43616e6e6f742073657420612070726f787920696d706c656d656e746174696f60448201527f6e20746f2061206e6f6e2d636f6e747261637420616464726573730000000000606482015290519081900360840190fd5b507f7050c9e0f4ca769c69bd3a8ef740bc37934f8e2c036e5a723fd8ee048ed3f8c355565b6000903b11905600a165627a7a72305820f0dabe48ac688edc834c9d21626b0151df19e3cb5a2055107b65eee334d401640029608060405260008054600160a060020a031990811633179091556001805490911690556108c4806100316000396000f3006080604052600436106100e55763ffffffff7c010000000000000000000000000000000000000000000000000000000060003504166318160ddd81146100ea57806321e5383a1461011157806327e235e3146101445780634e71e0c81461017257806355b6ed5c146101875780635fd72d16146101bb57806382838c76146101f25780638da5cb5b1461020a57806397d88cd214610248578063cf8eeb7e1461027f578063da46098c146102b0578063e30443bc146102e7578063e30c397814610318578063e468688e1461032d578063f2fde38b14610345578063f7ea7a3d14610373575b600080fd5b3480156100f657600080fd5b506100ff61038b565b60408051918252519081900360200190f35b34801561011d57600080fd5b5061014273ffffffffffffffffffffffffffffffffffffffff60043516602435610391565b005b34801561015057600080fd5b506100ff73ffffffffffffffffffffffffffffffffffffffff60043516610418565b34801561017e57600080fd5b5061014261042a565b34801561019357600080fd5b506100ff73ffffffffffffffffffffffffffffffffffffffff600435811690602435166104e4565b3480156101c757600080fd5b5061014273ffffffffffffffffffffffffffffffffffffffff60043581169060243516604435610501565b3480156101fe57600080fd5b506101426004356105a6565b34801561021657600080fd5b5061021f6105e3565b6040805173ffffffffffffffffffffffffffffffffffffffff9092168252519081900360200190f35b34801561025457600080fd5b5061014273ffffffffffffffffffffffffffffffffffffffff600435811690602435166044356105ff565b34801561028b57600080fd5b5061014273ffffffffffffffffffffffffffffffffffffffff60043516602435610666565b3480156102bc57600080fd5b5061014273ffffffffffffffffffffffffffffffffffffffff600435811690602435166044356106c0565b3480156102f357600080fd5b5061014273ffffffffffffffffffffffffffffffffffffffff6004351660243561071d565b34801561032457600080fd5b5061021f61076a565b34801561033957600080fd5b50610142600435610786565b34801561035157600080fd5b5061014273ffffffffffffffffffffffffffffffffffffffff600435166107bd565b34801561037f57600080fd5b5061014260043561084a565b60045481565b60005473ffffffffffffffffffffffffffffffffffffffff1633146103b557600080fd5b73ffffffffffffffffffffffffffffffffffffffff82166000908152600360205260409020546103eb908263ffffffff61087316565b73ffffffffffffffffffffffffffffffffffffffff90921660009081526003602052604090209190915550565b60036020526000908152604090205481565b60015473ffffffffffffffffffffffffffffffffffffffff16331461044e57600080fd5b6001546000805460405173ffffffffffffffffffffffffffffffffffffffff93841693909116917f8be0079c531659141344cd1fd0a4f28419497f9722a3daafe3b4186f6b6457e091a360018054600080547fffffffffffffffffffffffff000000000000000000000000000000000000000090811673ffffffffffffffffffffffffffffffffffffffff841617909155169055565b600260209081526000928352604080842090915290825290205481565b60005473ffffffffffffffffffffffffffffffffffffffff16331461052557600080fd5b73ffffffffffffffffffffffffffffffffffffffff808416600090815260026020908152604080832093861683529290522054610568908263ffffffff61087316565b73ffffffffffffffffffffffffffffffffffffffff938416600090815260026020908152604080832095909616825293909352929091209190915550565b60005473ffffffffffffffffffffffffffffffffffffffff1633146105ca57600080fd5b6004546105dd908263ffffffff61088616565b60045550565b60005473ffffffffffffffffffffffffffffffffffffffff1681565b60005473ffffffffffffffffffffffffffffffffffffffff16331461062357600080fd5b73ffffffffffffffffffffffffffffffffffffffff808416600090815260026020908152604080832093861683529290522054610568908263ffffffff61088616565b60005473ffffffffffffffffffffffffffffffffffffffff16331461068a57600080fd5b73ffffffffffffffffffffffffffffffffffffffff82166000908152600360205260409020546103eb908263ffffffff61088616565b60005473ffffffffffffffffffffffffffffffffffffffff1633146106e457600080fd5b73ffffffffffffffffffffffffffffffffffffffff92831660009081526002602090815260408083209490951682529290925291902055565b60005473ffffffffffffffffffffffffffffffffffffffff16331461074157600080fd5b73ffffffffffffffffffffffffffffffffffffffff909116600090815260036020526040902055565b60015473ffffffffffffffffffffffffffffffffffffffff1681565b60005473ffffffffffffffffffffffffffffffffffffffff1633146107aa57600080fd5b6004546105dd908263ffffffff61087316565b60005473ffffffffffffffffffffffffffffffffffffffff1633146107e157600080fd5b73ffffffffffffffffffffffffffffffffffffffff8116151561080357600080fd5b600180547fffffffffffffffffffffffff00000000000000000000000000000000000000001673ffffffffffffffffffffffffffffffffffffffff92909216919091179055565b60005473ffffffffffffffffffffffffffffffffffffffff16331461086e57600080fd5b600455565b8181018281101561088057fe5b92915050565b60008282111561089257fe5b509003905600a165627a7a72305820154605ec09aa8a1a2acc2d7f30e7d20d0314a1d7d019d398a5a0b41dee8e8e4a0029608060405260008054600160a060020a03199081163317909155600180549091169055610899806100316000396000f3006080604052600436106100cf5763ffffffff7c01000000000000000000000000000000000000000000000000000000006000350416630418945a81146100d4578063166e55d9146101045780632ff284c2146101475780633b947d2b146101625780634e71e0c8146101905780635a6c72d0146101a55780636ad26611146101ba5780638da5cb5b146101e85780639b19251a14610226578063c93a6c8414610268578063e30c397814610280578063e55156b514610295578063f2fde38b146102c6578063faaebd21146102f4575b600080fd5b3480156100e057600080fd5b5061010273ffffffffffffffffffffffffffffffffffffffff60043516610322565b005b34801561011057600080fd5b5061013560043573ffffffffffffffffffffffffffffffffffffffff602435166103bd565b60408051918252519081900360200190f35b34801561015357600080fd5b506101356004356024356103f5565b34801561016e57600080fd5b5061010273ffffffffffffffffffffffffffffffffffffffff60043516610422565b34801561019c57600080fd5b506101026104ba565b3480156101b157600080fd5b50610135610574565b3480156101c657600080fd5b5061010273ffffffffffffffffffffffffffffffffffffffff6004351661057a565b3480156101f457600080fd5b506101fd610621565b6040805173ffffffffffffffffffffffffffffffffffffffff9092168252519081900360200190f35b34801561023257600080fd5b5061025473ffffffffffffffffffffffffffffffffffffffff6004351661063d565b604080519115158252519081900360200190f35b34801561027457600080fd5b50610102600435610652565b34801561028c57600080fd5b506101fd6106c6565b3480156102a157600080fd5b5061010273ffffffffffffffffffffffffffffffffffffffff600435166024356106e2565b3480156102d257600080fd5b5061010273ffffffffffffffffffffffffffffffffffffffff60043516610790565b34801561030057600080fd5b5061013573ffffffffffffffffffffffffffffffffffffffff6004351661081d565b60005473ffffffffffffffffffffffffffffffffffffffff16331461034657600080fd5b73ffffffffffffffffffffffffffffffffffffffff811660008181526004602052604080822080547fffffffffffffffffffffffffffffffffffffffffffffffffffffffffffffff00166001179055517f3db297c09c19972ba6a701ff373ab97e21ff1e4992e863c7abe44e9b2fed08479190a250565b73ffffffffffffffffffffffffffffffffffffffff81166000908152600260205260408120546103ed84826103f5565b949350505050565b60006104196103e861040d858563ffffffff61082f16565b9063ffffffff61085816565b90505b92915050565b60005473ffffffffffffffffffffffffffffffffffffffff16331461044657600080fd5b73ffffffffffffffffffffffffffffffffffffffff811660008181526004602052604080822080547fffffffffffffffffffffffffffffffffffffffffffffffffffffffffffffff00169055517f3302a1b37f04242bb55603f5449e7ecd690a35eef08ba1353c48c20e2aae9cda9190a250565b60015473ffffffffffffffffffffffffffffffffffffffff1633146104de57600080fd5b6001546000805460405173ffffffffffffffffffffffffffffffffffffffff93841693909116917f8be0079c531659141344cd1fd0a4f28419497f9722a3daafe3b4186f6b6457e091a360018054600080547fffffffffffffffffffffffff000000000000000000000000000000000000000090811673ffffffffffffffffffffffffffffffffffffffff841617909155169055565b60035481565b6000805473ffffffffffffffffffffffffffffffffffffffff16331461059f57600080fd5b5073ffffffffffffffffffffffffffffffffffffffff811660009081526002602052604081208054919055801561061d5760408051828152905173ffffffffffffffffffffffffffffffffffffffff8416917fe4ca060d5956a829454e1f8734d008a552f7c9a701ba632810443acc98435c68919081900360200190a25b5050565b60005473ffffffffffffffffffffffffffffffffffffffff1681565b60046020526000908152604090205460ff1681565b6000805473ffffffffffffffffffffffffffffffffffffffff16331461067757600080fd5b50600380549082905581811461061d57604080518281526020810184905281517f2faa036c952bde05f63e87e0c61278ffd974bfc128a2b0ef03fafdb57f5d5cea929181900390910190a15050565b60015473ffffffffffffffffffffffffffffffffffffffff1681565b6000805473ffffffffffffffffffffffffffffffffffffffff16331461070757600080fd5b5073ffffffffffffffffffffffffffffffffffffffff8216600090815260026020526040902080549082905581811461078b576040805182815260208101849052815173ffffffffffffffffffffffffffffffffffffffff8616927ff98c81ad0a5eb3551c3561de8dc9d1512e8680fb77425ea138ebfe9a9c0065ff928290030190a25b505050565b60005473ffffffffffffffffffffffffffffffffffffffff1633146107b457600080fd5b73ffffffffffffffffffffffffffffffffffffffff811615156107d657600080fd5b600180547fffffffffffffffffffffffff00000000000000000000000000000000000000001673ffffffffffffffffffffffffffffffffffffffff92909216919091179055565b60026020526000908152604090205481565b60008215156108405750600061041c565b5081810281838281151561085057fe5b041461041c57fe5b6000818381151561086557fe5b0493925050505600a165627a7a723058202aeb0fca47f05bad7bd07aba2ece66395af1df4309999c8bbe013b61a64b9ce200297050c9e0f4ca769c69bd3a8ef740bc37934f8e2c036e5a723fd8ee048ed3f8c3a165627a7a723058206e38c2aca4a71e43056113df4830fa418e72924a2b152f7022845cbf5b81bf9f0029",
  "source": "pragma solidity ^0.4.24;\r\n\r\nimport \"../tokens/carbonToken/CarbonDollarProxy.sol\";\r\nimport \"../tokens/carbonToken/CarbonDollar.sol\";\r\n\r\n/**\r\n*\r\n* @dev CarbonDollarProxyFactory creates new CarbonDollarProxy contracts with new data storage sheets, properly configured\r\n* with ownership, and the proxy logic implementations are based on a user-specified CarbonDollar. \r\n*\r\n**/\r\ncontract CarbonDollarProxyFactory {\r\n    // Parameters\r\n    address[] public tokens;\r\n\r\n    // Events\r\n    event CreatedCarbonDollarProxy(address newToken, uint256 index);\r\n    \r\n    /**\r\n    *\r\n    * @dev generate a new proxy address that users can cast to a PermissionedToken or PermissionedTokenProxy. The\r\n    * proxy has empty data storage contracts connected to it and it is set with an initial logic contract\r\n    * to which it will delegate functionality\r\n    * @param regulator the address of the initial regulator contract that regulates the proxy\r\n    * @param tokenImplementation the address of the initial PT token implementation\r\n    *\r\n    **/\r\n    function createToken(address tokenImplementation, address regulator) public {\r\n        \r\n        address proxy = address(new CarbonDollarProxy(tokenImplementation, regulator));\r\n\r\n        // The function caller should own the proxy contract\r\n        CarbonDollarProxy(proxy).transferOwnership(msg.sender);\r\n\r\n        tokens.push(proxy);\r\n        emit CreatedCarbonDollarProxy(proxy, getCount()-1);\r\n    }\r\n\r\n    // Return number of token proxy contracts created so far\r\n    function getCount() public view returns (uint256) {\r\n        return tokens.length;\r\n    }\r\n\r\n    // Return the i'th created token\r\n    function getToken(uint i) public view returns(address) {\r\n        require((i < tokens.length) && (i >= 0), \"Invalid index\");\r\n        return tokens[i];\r\n    }\r\n}\r\n\r\n",
  "sourcePath": "C:\\Users\\npain\\Projects\\Carbon\\fiat_gateway\\contracts\\factories\\CarbonDollarProxyFactory.sol",
  "compiler": {
    "name": "solc",
    "version": "0.4.24+commit.e67f0147.Emscripten.clang"
  },
  "schemaVersion": "2.0.1",
  "updatedAt": "2018-09-21T20:59:21.238Z"
}