{
  "contractName": "RegulatorProxyFactory",
  "abi": [
    {
      "constant": true,
      "inputs": [
        {
          "name": "",
          "type": "uint256"
        }
      ],
      "name": "regulators",
      "outputs": [
        {
          "name": "",
          "type": "address"
        }
      ],
      "payable": false,
      "stateMutability": "view",
      "type": "function"
    },
    {
      "anonymous": false,
      "inputs": [
        {
          "indexed": false,
          "name": "newRegulator",
          "type": "address"
        },
        {
          "indexed": false,
          "name": "index",
          "type": "uint256"
        }
      ],
      "name": "CreatedRegulatorProxy",
      "type": "event"
    },
    {
      "constant": false,
      "inputs": [
        {
          "name": "regulatorImplementation",
          "type": "address"
        }
      ],
      "name": "createRegulatorProxy",
      "outputs": [],
      "payable": false,
      "stateMutability": "nonpayable",
      "type": "function"
    },
    {
      "constant": false,
      "inputs": [
        {
          "name": "regulator",
          "type": "address"
        }
      ],
      "name": "addAllPermissions",
      "outputs": [],
      "payable": false,
      "stateMutability": "nonpayable",
      "type": "function"
    },
    {
      "constant": true,
      "inputs": [],
      "name": "getCount",
      "outputs": [
        {
          "name": "",
          "type": "uint256"
        }
      ],
      "payable": false,
      "stateMutability": "view",
      "type": "function"
    },
    {
      "constant": true,
      "inputs": [
        {
          "name": "i",
          "type": "uint256"
        }
      ],
      "name": "getRegulatorProxy",
      "outputs": [
        {
          "name": "",
          "type": "address"
        }
      ],
      "payable": false,
      "stateMutability": "view",
      "type": "function"
    }
  ],
  "bytecode": "0x608060405234801561001057600080fd5b50613008806100206000396000f30060806040526004361061006c5763ffffffff7c0100000000000000000000000000000000000000000000000000000000600035041663286ae97f811461007157806353986e75146100a15780635b508cf0146100e25780636ffa1ea714610110578063a87d942c14610128575b600080fd5b34801561007d57600080fd5b5061009f73ffffffffffffffffffffffffffffffffffffffff6004351661014f565b005b3480156100ad57600080fd5b506100b9600435610ee9565b6040805173ffffffffffffffffffffffffffffffffffffffff9092168252519081900360200190f35b3480156100ee57600080fd5b5061009f73ffffffffffffffffffffffffffffffffffffffff60043516610f1e565b34801561011c57600080fd5b506100b960043561114d565b34801561013457600080fd5b5061013d611203565b60408051918252519081900360200190f35b604080517f4d238c8e000000000000000000000000000000000000000000000000000000008152306004820152905173ffffffffffffffffffffffffffffffffffffffff831691634d238c8e91602480830192600092919082900301818387803b1580156101bc57600080fd5b505af11580156101d0573d6000803e3d6000fd5b505050508073ffffffffffffffffffffffffffffffffffffffff1663780bfed08273ffffffffffffffffffffffffffffffffffffffff166388f14b0e6040518163ffffffff167c0100000000000000000000000000000000000000000000000000000000028152600401602060405180830381600087803b15801561025457600080fd5b505af1158015610268573d6000803e3d6000fd5b505050506040513d602081101561027e57600080fd5b5051604080517c010000000000000000000000000000000000000000000000000000000063ffffffff85160281527fffffffff0000000000000000000000000000000000000000000000000000000090921660048301526080602483015260006084830181905260c0604484015260c483018190526101006064840152610104830181905290516101448084019382900301818387803b15801561032157600080fd5b505af1158015610335573d6000803e3d6000fd5b505050508073ffffffffffffffffffffffffffffffffffffffff1663780bfed08273ffffffffffffffffffffffffffffffffffffffff1663cfbf1b906040518163ffffffff167c0100000000000000000000000000000000000000000000000000000000028152600401602060405180830381600087803b1580156103b957600080fd5b505af11580156103cd573d6000803e3d6000fd5b505050506040513d60208110156103e357600080fd5b5051604080517c010000000000000000000000000000000000000000000000000000000063ffffffff85160281527fffffffff0000000000000000000000000000000000000000000000000000000090921660048301526080602483015260006084830181905260c0604484015260c483018190526101006064840152610104830181905290516101448084019382900301818387803b15801561048657600080fd5b505af115801561049a573d6000803e3d6000fd5b505050508073ffffffffffffffffffffffffffffffffffffffff1663780bfed08273ffffffffffffffffffffffffffffffffffffffff1663ab96cb466040518163ffffffff167c0100000000000000000000000000000000000000000000000000000000028152600401602060405180830381600087803b15801561051e57600080fd5b505af1158015610532573d6000803e3d6000fd5b505050506040513d602081101561054857600080fd5b5051604080517c010000000000000000000000000000000000000000000000000000000063ffffffff85160281527fffffffff0000000000000000000000000000000000000000000000000000000090921660048301526080602483015260006084830181905260c0604484015260c483018190526101006064840152610104830181905290516101448084019382900301818387803b1580156105eb57600080fd5b505af11580156105ff573d6000803e3d6000fd5b505050508073ffffffffffffffffffffffffffffffffffffffff1663780bfed08273ffffffffffffffffffffffffffffffffffffffff16638f959f546040518163ffffffff167c0100000000000000000000000000000000000000000000000000000000028152600401602060405180830381600087803b15801561068357600080fd5b505af1158015610697573d6000803e3d6000fd5b505050506040513d60208110156106ad57600080fd5b5051604080517c010000000000000000000000000000000000000000000000000000000063ffffffff85160281527fffffffff0000000000000000000000000000000000000000000000000000000090921660048301526080602483015260006084830181905260c0604484015260c483018190526101006064840152610104830181905290516101448084019382900301818387803b15801561075057600080fd5b505af1158015610764573d6000803e3d6000fd5b505050508073ffffffffffffffffffffffffffffffffffffffff1663780bfed08273ffffffffffffffffffffffffffffffffffffffff16639491951b6040518163ffffffff167c0100000000000000000000000000000000000000000000000000000000028152600401602060405180830381600087803b1580156107e857600080fd5b505af11580156107fc573d6000803e3d6000fd5b505050506040513d602081101561081257600080fd5b5051604080517c010000000000000000000000000000000000000000000000000000000063ffffffff85160281527fffffffff0000000000000000000000000000000000000000000000000000000090921660048301526080602483015260006084830181905260c0604484015260c483018190526101006064840152610104830181905290516101448084019382900301818387803b1580156108b557600080fd5b505af11580156108c9573d6000803e3d6000fd5b505050508073ffffffffffffffffffffffffffffffffffffffff1663780bfed08273ffffffffffffffffffffffffffffffffffffffff1663f9d505436040518163ffffffff167c0100000000000000000000000000000000000000000000000000000000028152600401602060405180830381600087803b15801561094d57600080fd5b505af1158015610961573d6000803e3d6000fd5b505050506040513d602081101561097757600080fd5b5051604080517c010000000000000000000000000000000000000000000000000000000063ffffffff85160281527fffffffff0000000000000000000000000000000000000000000000000000000090921660048301526080602483015260006084830181905260c0604484015260c483018190526101006064840152610104830181905290516101448084019382900301818387803b158015610a1a57600080fd5b505af1158015610a2e573d6000803e3d6000fd5b505050508073ffffffffffffffffffffffffffffffffffffffff1663780bfed08273ffffffffffffffffffffffffffffffffffffffff1663c1c49cbb6040518163ffffffff167c0100000000000000000000000000000000000000000000000000000000028152600401602060405180830381600087803b158015610ab257600080fd5b505af1158015610ac6573d6000803e3d6000fd5b505050506040513d6020811015610adc57600080fd5b5051604080517c010000000000000000000000000000000000000000000000000000000063ffffffff85160281527fffffffff0000000000000000000000000000000000000000000000000000000090921660048301526080602483015260006084830181905260c0604484015260c483018190526101006064840152610104830181905290516101448084019382900301818387803b158015610b7f57600080fd5b505af1158015610b93573d6000803e3d6000fd5b505050508073ffffffffffffffffffffffffffffffffffffffff1663780bfed08273ffffffffffffffffffffffffffffffffffffffff16638b7c81096040518163ffffffff167c0100000000000000000000000000000000000000000000000000000000028152600401602060405180830381600087803b158015610c1757600080fd5b505af1158015610c2b573d6000803e3d6000fd5b505050506040513d6020811015610c4157600080fd5b5051604080517c010000000000000000000000000000000000000000000000000000000063ffffffff85160281527fffffffff0000000000000000000000000000000000000000000000000000000090921660048301526080602483015260006084830181905260c0604484015260c483018190526101006064840152610104830181905290516101448084019382900301818387803b158015610ce457600080fd5b505af1158015610cf8573d6000803e3d6000fd5b505050508073ffffffffffffffffffffffffffffffffffffffff1663780bfed08273ffffffffffffffffffffffffffffffffffffffff1663639c44cf6040518163ffffffff167c0100000000000000000000000000000000000000000000000000000000028152600401602060405180830381600087803b158015610d7c57600080fd5b505af1158015610d90573d6000803e3d6000fd5b505050506040513d6020811015610da657600080fd5b5051604080517c010000000000000000000000000000000000000000000000000000000063ffffffff85160281527fffffffff0000000000000000000000000000000000000000000000000000000090921660048301526080602483015260006084830181905260c0604484015260c483018190526101006064840152610104830181905290516101448084019382900301818387803b158015610e4957600080fd5b505af1158015610e5d573d6000803e3d6000fd5b5050604080517f40a141ff000000000000000000000000000000000000000000000000000000008152306004820152905173ffffffffffffffffffffffffffffffffffffffff851693506340a141ff9250602480830192600092919082900301818387803b158015610ece57600080fd5b505af1158015610ee2573d6000803e3d6000fd5b5050505050565b6000805482908110610ef757fe5b60009182526020909120015473ffffffffffffffffffffffffffffffffffffffff16905081565b60008082610f2a611209565b73ffffffffffffffffffffffffffffffffffffffff909116815260405190819003602001906000f080158015610f64573d6000803e3d6000fd5b50604080517f4d238c8e000000000000000000000000000000000000000000000000000000008152336004820152905191935083925073ffffffffffffffffffffffffffffffffffffffff831691634d238c8e9160248082019260009290919082900301818387803b158015610fd957600080fd5b505af1158015610fed573d6000803e3d6000fd5b50505050610ffa8161014f565b604080517ff2fde38b000000000000000000000000000000000000000000000000000000008152336004820152905173ffffffffffffffffffffffffffffffffffffffff84169163f2fde38b91602480830192600092919082900301818387803b15801561106757600080fd5b505af115801561107b573d6000803e3d6000fd5b505060008054600180820183559180527f290decd9548b62a8d60345a988386fc84ba6bc95484008f6362f93160ef3e5630180547fffffffffffffffffffffffff00000000000000000000000000000000000000001673ffffffffffffffffffffffffffffffffffffffff87161790557f03c438f0cc356e051e1bcece6a83a35d5c1205342a7f62cc8c40d3b153fcc9009250849150611119611203565b6040805173ffffffffffffffffffffffffffffffffffffffff909416845291900360208301528051918290030190a1505050565b6000805482108015611160575060008210155b15156111cd57604080517f08c379a000000000000000000000000000000000000000000000000000000000815260206004820152600d60248201527f496e76616c696420696e64657800000000000000000000000000000000000000604482015290519081900360640190fd5b60008054839081106111db57fe5b60009182526020909120015473ffffffffffffffffffffffffffffffffffffffff1692915050565b60005490565b604051611dc38061121a83390190560060806040523480156200001157600080fd5b5060405160208062001dc383398101604081815291517f6f72672e7a657070656c696e6f732e70726f78792e696d706c656d656e74617482527f696f6e000000000000000000000000000000000000000000000000000000000060208301529151908190036023019020819060008051602062001da3833981519152146200009557fe5b620000a981640100000000620000cf810204565b505060008054600160a060020a031990811633179091556001805490911690556200019a565b6000620000ea8264010000000062001b026200019282021704565b15156200017e57604080517f08c379a000000000000000000000000000000000000000000000000000000000815260206004820152603b60248201527f43616e6e6f742073657420612070726f787920696d706c656d656e746174696f60448201527f6e20746f2061206e6f6e2d636f6e747261637420616464726573730000000000606482015290519081900360840190fd5b5060008051602062001da383398151915255565b6000903b1190565b611bf980620001aa6000396000f3006080604052600436106101695763ffffffff7c010000000000000000000000000000000000000000000000000000000060003504166314db6d5881146101735780631830f493146101da5780631c870eee146103605780633659cfe6146103b3578063395a7b30146103e157806340a141ff1461041b5780634d238c8e146104495780634e71e0c8146104775780635317e4441461048c5780635c60da1b146104df578063639c44cf1461051d578063780bfed0146105675780638707e2f41461066357806388f14b0e146106b65780638b7c8109146106cb5780638da5cb5b146106e05780638f959f54146106f5578063933aa6671461070a5780639491951b14610744578063ab96cb4614610759578063b8ccbd171461076e578063c1c49cbb146107a8578063cfbf1b90146107bd578063e30c3978146107d2578063f2fde38b146107e7578063f9d5054314610815578063fa52c7d81461082a578063facd743b14610858575b610171610886565b005b34801561017f57600080fd5b506101c673ffffffffffffffffffffffffffffffffffffffff600435167fffffffff00000000000000000000000000000000000000000000000000000000602435166108a0565b604080519115158252519081900360200190f35b3480156101e657600080fd5b506102147fffffffff00000000000000000000000000000000000000000000000000000000600435166108fc565b604080518215156060820152608080825286519082015285519091829160208084019284019160a08501918a019080838360005b83811015610260578181015183820152602001610248565b50505050905090810190601f16801561028d5780820380516001836020036101000a031916815260200191505b50848103835287518152875160209182019189019080838360005b838110156102c05781810151838201526020016102a8565b50505050905090810190601f1680156102ed5780820380516001836020036101000a031916815260200191505b50848103825286518152865160209182019188019080838360005b83811015610320578181015183820152602001610308565b50505050905090810190601f16801561034d5780820380516001836020036101000a031916815260200191505b5097505050505050505060405180910390f35b34801561036c57600080fd5b5061017173ffffffffffffffffffffffffffffffffffffffff600435167fffffffff0000000000000000000000000000000000000000000000000000000060243516610b5b565b3480156103bf57600080fd5b5061017173ffffffffffffffffffffffffffffffffffffffff60043516610d1a565b3480156103ed57600080fd5b506102147fffffffff0000000000000000000000000000000000000000000000000000000060043516610d4a565b34801561042757600080fd5b5061017173ffffffffffffffffffffffffffffffffffffffff60043516610f5a565b34801561045557600080fd5b5061017173ffffffffffffffffffffffffffffffffffffffff60043516610ff2565b34801561048357600080fd5b5061017161108d565b34801561049857600080fd5b5061017173ffffffffffffffffffffffffffffffffffffffff600435167fffffffff0000000000000000000000000000000000000000000000000000000060243516611147565b3480156104eb57600080fd5b506104f4611303565b6040805173ffffffffffffffffffffffffffffffffffffffff9092168252519081900360200190f35b34801561052957600080fd5b50610532611313565b604080517fffffffff000000000000000000000000000000000000000000000000000000009092168252519081900360200190f35b34801561057357600080fd5b5060408051602060046024803582810135601f81018590048502860185019096528585526101719583357fffffffff000000000000000000000000000000000000000000000000000000001695369560449491939091019190819084018382808284375050604080516020601f89358b018035918201839004830284018301909452808352979a99988101979196509182019450925082915084018382808284375050604080516020601f89358b018035918201839004830284018301909452808352979a9998810197919650918201945092508291508401838280828437509497506113489650505050505050565b34801561066f57600080fd5b506101c673ffffffffffffffffffffffffffffffffffffffff600435167fffffffff00000000000000000000000000000000000000000000000000000000602435166114fa565b3480156106c257600080fd5b5061053261151a565b3480156106d757600080fd5b5061053261154f565b3480156106ec57600080fd5b506104f4611584565b34801561070157600080fd5b506105326115a0565b34801561071657600080fd5b506101c67fffffffff00000000000000000000000000000000000000000000000000000000600435166115fb565b34801561075057600080fd5b50610532611635565b34801561076557600080fd5b5061053261166a565b34801561077a57600080fd5b506101717fffffffff00000000000000000000000000000000000000000000000000000000600435166116c5565b3480156107b457600080fd5b506105326117cd565b3480156107c957600080fd5b50610532611828565b3480156107de57600080fd5b506104f461185d565b3480156107f357600080fd5b5061017173ffffffffffffffffffffffffffffffffffffffff60043516611879565b34801561082157600080fd5b50610532611906565b34801561083657600080fd5b506101c673ffffffffffffffffffffffffffffffffffffffff60043516611961565b34801561086457600080fd5b506101c673ffffffffffffffffffffffffffffffffffffffff60043516611976565b61088e61089e565b61089e6108996119a1565b6119c6565b565b73ffffffffffffffffffffffffffffffffffffffff821660009081526004602090815260408083207fffffffff000000000000000000000000000000000000000000000000000000008516845290915290205460ff1692915050565b7fffffffff0000000000000000000000000000000000000000000000000000000081166000908152600260208181526040808420600381015481548351610100600180841615919091027fffffffffffffffffffffffffffffffffffffffffffffffffffffffffffffffff01909216879004601f8101879004870282018701909552848152606097889788979196938601949086019360ff90911692918691908301828280156109ed5780601f106109c2576101008083540402835291602001916109ed565b820191906000526020600020905b8154815290600101906020018083116109d057829003601f168201915b5050865460408051602060026001851615610100027fffffffffffffffffffffffffffffffffffffffffffffffffffffffffffffffff0190941693909304601f810184900484028201840190925281815295995088945092508401905082828015610a995780601f10610a6e57610100808354040283529160200191610a99565b820191906000526020600020905b815481529060010190602001808311610a7c57829003601f168201915b5050855460408051602060026001851615610100027fffffffffffffffffffffffffffffffffffffffffffffffffffffffffffffffff0190941693909304601f810184900484028201840190925281815295985087945092508401905082828015610b455780601f10610b1a57610100808354040283529160200191610b45565b820191906000526020600020905b815481529060010190602001808311610b2857829003601f168201915b5050505050915093509350935093509193509193565b610b6433611976565b1515610bd157604080517f08c379a000000000000000000000000000000000000000000000000000000000815260206004820152601860248201527f53656e646572206d7573742062652076616c696461746f720000000000000000604482015290519081900360640190fd5b7fffffffff00000000000000000000000000000000000000000000000000000000811660009081526002602052604090206003015460ff161515610c9c57604080517f08c379a000000000000000000000000000000000000000000000000000000000815260206004820152603960248201527f5065726d697373696f6e206265696e6720736574206d75737420626520666f7260448201527f20612076616c6964206d6574686f64207369676e617475726500000000000000606482015290519081900360840190fd5b73ffffffffffffffffffffffffffffffffffffffff90911660009081526004602090815260408083207fffffffff0000000000000000000000000000000000000000000000000000000090941683529290522080547fffffffffffffffffffffffffffffffffffffffffffffffffffffffffffffff00166001179055565b60005473ffffffffffffffffffffffffffffffffffffffff163314610d3e57600080fd5b610d47816119ea565b50565b600260208181526000928352604092839020805484516001821615610100027fffffffffffffffffffffffffffffffffffffffffffffffffffffffffffffffff0190911693909304601f8101839004830284018301909452838352928391830182828015610df95780601f10610dce57610100808354040283529160200191610df9565b820191906000526020600020905b815481529060010190602001808311610ddc57829003601f168201915b505050505090806001018054600181600116156101000203166002900480601f016020809104026020016040519081016040528092919081815260200182805460018160011615610100020316600290048015610e975780601f10610e6c57610100808354040283529160200191610e97565b820191906000526020600020905b815481529060010190602001808311610e7a57829003601f168201915b50505060028085018054604080516020601f7fffffffffffffffffffffffffffffffffffffffffffffffffffffffffffffffff6101006001871615020190941695909504928301859004850281018501909152818152959695945090925090830182828015610f475780601f10610f1c57610100808354040283529160200191610f47565b820191906000526020600020905b815481529060010190602001808311610f2a57829003601f168201915b5050506003909301549192505060ff1684565b60005473ffffffffffffffffffffffffffffffffffffffff163314610f7e57600080fd5b73ffffffffffffffffffffffffffffffffffffffff811660008181526003602052604080822080547fffffffffffffffffffffffffffffffffffffffffffffffffffffffffffffff00169055517fe1434e25d6611e0db941968fdc97811c982ac1602e951637d206f5fdda9dd8f19190a250565b60005473ffffffffffffffffffffffffffffffffffffffff16331461101657600080fd5b73ffffffffffffffffffffffffffffffffffffffff811660008181526003602052604080822080547fffffffffffffffffffffffffffffffffffffffffffffffffffffffffffffff00166001179055517fe366c1c0452ed8eec96861e9e54141ebff23c9ec89fe27b996b45f5ec38849879190a250565b60015473ffffffffffffffffffffffffffffffffffffffff1633146110b157600080fd5b6001546000805460405173ffffffffffffffffffffffffffffffffffffffff93841693909116917f8be0079c531659141344cd1fd0a4f28419497f9722a3daafe3b4186f6b6457e091a360018054600080547fffffffffffffffffffffffff000000000000000000000000000000000000000090811673ffffffffffffffffffffffffffffffffffffffff841617909155169055565b61115033611976565b15156111bd57604080517f08c379a000000000000000000000000000000000000000000000000000000000815260206004820152601860248201527f53656e646572206d7573742062652076616c696461746f720000000000000000604482015290519081900360640190fd5b7fffffffff00000000000000000000000000000000000000000000000000000000811660009081526002602052604090206003015460ff16151561128857604080517f08c379a000000000000000000000000000000000000000000000000000000000815260206004820152603d60248201527f5065726d697373696f6e206265696e672072656d6f766564206d75737420626560448201527f20666f7220612076616c6964206d6574686f64207369676e6174757265000000606482015290519081900360840190fd5b73ffffffffffffffffffffffffffffffffffffffff90911660009081526004602090815260408083207fffffffff0000000000000000000000000000000000000000000000000000000090941683529290522080547fffffffffffffffffffffffffffffffffffffffffffffffffffffffffffffff00169055565b600061130d6119a1565b90505b90565b604080517f636f6e7665727457542875696e743235362900000000000000000000000000008152905190819003601201902081565b611350611b0a565b61135933611976565b15156113c657604080517f08c379a000000000000000000000000000000000000000000000000000000000815260206004820152601860248201527f53656e646572206d7573742062652076616c696461746f720000000000000000604482015290519081900360640190fd5b50604080516080810182528481526020808201859052818301849052600160608301527fffffffff00000000000000000000000000000000000000000000000000000000871660009081526002825292909220815180519293849361142e9284920190611b35565b5060208281015180516114479260018501920190611b35565b5060408201518051611463916002840191602090910190611b35565b5060609190910151600390910180547fffffffffffffffffffffffffffffffffffffffffffffffffffffffffffffff0016911515919091179055604080517fffffffff000000000000000000000000000000000000000000000000000000008716815290517f6195913f4ea9fc2f5193c9f6763975b23790b3be094b1eb18f31843739005512916020908290030190a15050505050565b600460209081526000928352604080842090915290825290205460ff1681565b604080517f6d696e7428616464726573732c75696e743235362900000000000000000000008152905190819003601501902081565b604080517f6d696e744355534428616464726573732c75696e7432353629000000000000008152905190819003601901902081565b60005473ffffffffffffffffffffffffffffffffffffffff1681565b604080517f617070726f7665426c61636b6c6973746564416464726573735370656e64657281527f28616464726573732900000000000000000000000000000000000000000000006020820152905190819003602901902081565b7fffffffff000000000000000000000000000000000000000000000000000000001660009081526002602052604090206003015460ff1690565b604080517f626c61636b6c69737465642829000000000000000000000000000000000000008152905190819003600d01902081565b604080517f64657374726f79426c61636b6c6973746564546f6b656e73286164647265737381527f2c75696e743235362900000000000000000000000000000000000000000000006020820152905190819003602901902081565b6116ce33611976565b151561173b57604080517f08c379a000000000000000000000000000000000000000000000000000000000815260206004820152601860248201527f53656e646572206d7573742062652076616c696461746f720000000000000000604482015290519081900360640190fd5b7fffffffff00000000000000000000000000000000000000000000000000000000811660008181526002602090815260409182902060030180547fffffffffffffffffffffffffffffffffffffffffffffffffffffffffffffff00169055815192835290517f65cd5526557cbd93f0739d00ffcdf8f4a663eb2ed509203d884b3470158724c19281900390910190a150565b604080517f6275726e436172626f6e446f6c6c617228616464726573732c75696e7432353681527f29000000000000000000000000000000000000000000000000000000000000006020820152905190819003602101902081565b604080517f6275726e2875696e7432353629000000000000000000000000000000000000008152905190819003600d01902081565b60015473ffffffffffffffffffffffffffffffffffffffff1681565b60005473ffffffffffffffffffffffffffffffffffffffff16331461189d57600080fd5b73ffffffffffffffffffffffffffffffffffffffff811615156118bf57600080fd5b600180547fffffffffffffffffffffffff00000000000000000000000000000000000000001673ffffffffffffffffffffffffffffffffffffffff92909216919091179055565b604080517f636f6e76657274436172626f6e446f6c6c617228616464726573732c75696e7481527f32353629000000000000000000000000000000000000000000000000000000006020820152905190819003602401902081565b60036020526000908152604090205460ff1681565b73ffffffffffffffffffffffffffffffffffffffff1660009081526003602052604090205460ff1690565b7f7050c9e0f4ca769c69bd3a8ef740bc37934f8e2c036e5a723fd8ee048ed3f8c35490565b3660008037600080366000845af43d6000803e8080156119e5573d6000f35b3d6000fd5b6119f381611a3f565b6040805173ffffffffffffffffffffffffffffffffffffffff8316815290517fbc7cd75a20ee27fd9adebab32041f755214dbc6bffa90cc0225b39da2e5c2d3b9181900360200190a150565b6000611a4a82611b02565b1515611add57604080517f08c379a000000000000000000000000000000000000000000000000000000000815260206004820152603b60248201527f43616e6e6f742073657420612070726f787920696d706c656d656e746174696f60448201527f6e20746f2061206e6f6e2d636f6e747261637420616464726573730000000000606482015290519081900360840190fd5b507f7050c9e0f4ca769c69bd3a8ef740bc37934f8e2c036e5a723fd8ee048ed3f8c355565b6000903b1190565b6080604051908101604052806060815260200160608152602001606081526020016000151581525090565b828054600181600116156101000203166002900490600052602060002090601f016020900481019282601f10611b7657805160ff1916838001178555611ba3565b82800160010185558215611ba3579182015b82811115611ba3578251825591602001919060010190611b88565b50611baf929150611bb3565b5090565b61131091905b80821115611baf5760008155600101611bb95600a165627a7a72305820dde9173f21eb1f50e0b504924cc4f84f068783afe01347aff85945b2f25466c300297050c9e0f4ca769c69bd3a8ef740bc37934f8e2c036e5a723fd8ee048ed3f8c3a165627a7a723058205fb884fadd879cc77ff94019b411f8f315b60610d70f27d83bedb243eed969b10029",
  "source": "pragma solidity ^0.4.24;\r\n\r\nimport \"../regulator/RegulatorProxy.sol\";\r\nimport \"../regulator/Regulator.sol\";\r\n\r\n/**\r\n*\r\n* @dev RegulatorProxyFactory creates new RegulatorProxy contracts with new data storage sheets, properly configured\r\n* with ownership, and the proxy logic implementations are based on a user-specified Regulator. \r\n*\r\n**/\r\ncontract RegulatorProxyFactory {\r\n\r\n    // TODO: Instead of a single array of addresses, this should be a mapping or an array\r\n    // of objects of type { address: ...new_regulator, type: whitelisted_or_cusd }\r\n    address[] public regulators;\r\n\r\n    // Events\r\n    event CreatedRegulatorProxy(address newRegulator, uint256 index);\r\n\r\n    /**\r\n    *\r\n    * @dev generate a new proxyaddress that users can cast to a Regulator or RegulatorProxy. The\r\n    * proxy has empty data storage contracts connected to it and it is set with an initial logic contract\r\n    * to which it will delegate functionality\r\n    * @notice the method caller will have to claim ownership of regulators since regulators are claimable\r\n    * @param regulatorImplementation the address of the logic contract that the proxy will initialize its implementation to\r\n    *\r\n    **/\r\n    function createRegulatorProxy(address regulatorImplementation) public {\r\n\r\n        // Store new data storage contracts for regulator proxy\r\n        address proxy = address(new RegulatorProxy(regulatorImplementation));\r\n        Regulator newRegulator = Regulator(proxy);\r\n\r\n        // Testing: Add msg.sender as a validator, add all permissions\r\n        newRegulator.addValidator(msg.sender);\r\n        addAllPermissions(newRegulator);\r\n\r\n        // The function caller should own the proxy contract, so they will need to claim ownership\r\n        RegulatorProxy(proxy).transferOwnership(msg.sender);\r\n\r\n        regulators.push(proxy);\r\n        emit CreatedRegulatorProxy(proxy, getCount()-1);\r\n    }\r\n\r\n    /**\r\n    *\r\n    * @dev Add all permission signatures to regulator\r\n    *\r\n    **/\r\n    function addAllPermissions(Regulator regulator) public {\r\n\r\n        // Make this contract a temporary validator to add all permissions\r\n        regulator.addValidator(this);\r\n        regulator.addPermission(regulator.MINT_SIG(), \"\", \"\", \"\" );\r\n        regulator.addPermission(regulator.BURN_SIG(), \"\", \"\", \"\" );\r\n        regulator.addPermission(regulator.DESTROY_BLACKLISTED_TOKENS_SIG(), \"\", \"\", \"\" );\r\n        regulator.addPermission(regulator.APPROVE_BLACKLISTED_ADDRESS_SPENDER_SIG(), \"\", \"\", \"\" );\r\n        regulator.addPermission(regulator.BLACKLISTED_SIG(), \"\", \"\", \"\" );\r\n        regulator.addPermission(regulator.CONVERT_CARBON_DOLLAR_SIG(), \"\", \"\", \"\" );\r\n        regulator.addPermission(regulator.BURN_CARBON_DOLLAR_SIG(), \"\", \"\", \"\" );\r\n        regulator.addPermission(regulator.MINT_CUSD_SIG(), \"\", \"\", \"\" );\r\n        regulator.addPermission(regulator.CONVERT_WT_SIG(), \"\", \"\", \"\" );\r\n        regulator.removeValidator(this);\r\n    }\r\n\r\n    // Return number of proxies created \r\n    function getCount() public view returns (uint256) {\r\n        return regulators.length;\r\n    }\r\n\r\n    // Return the i'th created proxy. The most recently created proxy will be at position getCount()-1.\r\n    function getRegulatorProxy(uint256 i) public view returns(address) {\r\n        require((i < regulators.length) && (i >= 0), \"Invalid index\");\r\n        return regulators[i];\r\n    }\r\n}\r\n",
  "sourcePath": "C:\\Users\\npain\\Projects\\Carbon\\fiat_gateway\\contracts\\factories\\RegulatorProxyFactory.sol",
  "compiler": {
    "name": "solc",
    "version": "0.4.24+commit.e67f0147.Emscripten.clang"
  },
  "schemaVersion": "2.0.1",
  "updatedAt": "2018-09-21T20:59:21.244Z"
}