{
  "contractName": "WhitelistedToken",
  "abi": [
    {
      "constant": false,
      "inputs": [
        {
          "name": "_spender",
          "type": "address"
        },
        {
          "name": "_value",
          "type": "uint256"
        }
      ],
      "name": "approve",
      "outputs": [
        {
          "name": "",
          "type": "bool"
        }
      ],
      "payable": false,
      "stateMutability": "nonpayable",
      "type": "function"
    },
    {
      "constant": true,
      "inputs": [],
      "name": "totalSupply",
      "outputs": [
        {
          "name": "",
          "type": "uint256"
        }
      ],
      "payable": false,
      "stateMutability": "view",
      "type": "function"
    },
    {
      "constant": false,
      "inputs": [
        {
          "name": "_from",
          "type": "address"
        },
        {
          "name": "_to",
          "type": "address"
        },
        {
          "name": "_amount",
          "type": "uint256"
        }
      ],
      "name": "transferFrom",
      "outputs": [
        {
          "name": "",
          "type": "bool"
        }
      ],
      "payable": false,
      "stateMutability": "nonpayable",
      "type": "function"
    },
    {
      "constant": false,
      "inputs": [],
      "name": "unpause",
      "outputs": [],
      "payable": false,
      "stateMutability": "nonpayable",
      "type": "function"
    },
    {
      "constant": false,
      "inputs": [
        {
          "name": "_to",
          "type": "address"
        },
        {
          "name": "_amount",
          "type": "uint256"
        }
      ],
      "name": "mint",
      "outputs": [],
      "payable": false,
      "stateMutability": "nonpayable",
      "type": "function"
    },
    {
      "constant": false,
      "inputs": [
        {
          "name": "_amount",
          "type": "uint256"
        }
      ],
      "name": "burn",
      "outputs": [],
      "payable": false,
      "stateMutability": "nonpayable",
      "type": "function"
    },
    {
      "constant": false,
      "inputs": [],
      "name": "claimOwnership",
      "outputs": [],
      "payable": false,
      "stateMutability": "nonpayable",
      "type": "function"
    },
    {
      "constant": true,
      "inputs": [],
      "name": "blacklisted",
      "outputs": [
        {
          "name": "",
          "type": "bool"
        }
      ],
      "payable": false,
      "stateMutability": "view",
      "type": "function"
    },
    {
      "constant": true,
      "inputs": [],
      "name": "paused",
      "outputs": [
        {
          "name": "",
          "type": "bool"
        }
      ],
      "payable": false,
      "stateMutability": "view",
      "type": "function"
    },
    {
      "constant": true,
      "inputs": [],
      "name": "cusdAddress",
      "outputs": [
        {
          "name": "",
          "type": "address"
        }
      ],
      "payable": false,
      "stateMutability": "view",
      "type": "function"
    },
    {
      "constant": false,
      "inputs": [
        {
          "name": "_spender",
          "type": "address"
        },
        {
          "name": "_subtractedValue",
          "type": "uint256"
        }
      ],
      "name": "decreaseApproval",
      "outputs": [
        {
          "name": "",
          "type": "bool"
        }
      ],
      "payable": false,
      "stateMutability": "nonpayable",
      "type": "function"
    },
    {
      "constant": false,
      "inputs": [
        {
          "name": "_blacklistedAccount",
          "type": "address"
        }
      ],
      "name": "approveBlacklistedAddressSpender",
      "outputs": [],
      "payable": false,
      "stateMutability": "nonpayable",
      "type": "function"
    },
    {
      "constant": true,
      "inputs": [
        {
          "name": "_addr",
          "type": "address"
        }
      ],
      "name": "balanceOf",
      "outputs": [
        {
          "name": "",
          "type": "uint256"
        }
      ],
      "payable": false,
      "stateMutability": "view",
      "type": "function"
    },
    {
      "constant": false,
      "inputs": [],
      "name": "pause",
      "outputs": [],
      "payable": false,
      "stateMutability": "nonpayable",
      "type": "function"
    },
    {
      "constant": true,
      "inputs": [],
      "name": "isMethodEnabled",
      "outputs": [
        {
          "name": "",
          "type": "bool"
        }
      ],
      "payable": false,
      "stateMutability": "view",
      "type": "function"
    },
    {
      "constant": true,
      "inputs": [],
      "name": "owner",
      "outputs": [
        {
          "name": "",
          "type": "address"
        }
      ],
      "payable": false,
      "stateMutability": "view",
      "type": "function"
    },
    {
      "constant": false,
      "inputs": [],
      "name": "unlock",
      "outputs": [],
      "payable": false,
      "stateMutability": "nonpayable",
      "type": "function"
    },
    {
      "constant": false,
      "inputs": [
        {
          "name": "_to",
          "type": "address"
        },
        {
          "name": "_amount",
          "type": "uint256"
        }
      ],
      "name": "transfer",
      "outputs": [
        {
          "name": "",
          "type": "bool"
        }
      ],
      "payable": false,
      "stateMutability": "nonpayable",
      "type": "function"
    },
    {
      "constant": true,
      "inputs": [],
      "name": "tokenStorage",
      "outputs": [
        {
          "name": "",
          "type": "address"
        }
      ],
      "payable": false,
      "stateMutability": "view",
      "type": "function"
    },
    {
      "constant": false,
      "inputs": [
        {
          "name": "_who",
          "type": "address"
        },
        {
          "name": "_amount",
          "type": "uint256"
        }
      ],
      "name": "destroyBlacklistedTokens",
      "outputs": [],
      "payable": false,
      "stateMutability": "nonpayable",
      "type": "function"
    },
    {
      "constant": false,
      "inputs": [
        {
          "name": "_newRegulator",
          "type": "address"
        }
      ],
      "name": "setRegulator",
      "outputs": [],
      "payable": false,
      "stateMutability": "nonpayable",
      "type": "function"
    },
    {
      "constant": false,
      "inputs": [
        {
          "name": "_spender",
          "type": "address"
        },
        {
          "name": "_addedValue",
          "type": "uint256"
        }
      ],
      "name": "increaseApproval",
      "outputs": [
        {
          "name": "",
          "type": "bool"
        }
      ],
      "payable": false,
      "stateMutability": "nonpayable",
      "type": "function"
    },
    {
      "constant": true,
      "inputs": [
        {
          "name": "owner",
          "type": "address"
        },
        {
          "name": "spender",
          "type": "address"
        }
      ],
      "name": "allowance",
      "outputs": [
        {
          "name": "",
          "type": "uint256"
        }
      ],
      "payable": false,
      "stateMutability": "view",
      "type": "function"
    },
    {
      "constant": true,
      "inputs": [],
      "name": "regulator",
      "outputs": [
        {
          "name": "",
          "type": "address"
        }
      ],
      "payable": false,
      "stateMutability": "view",
      "type": "function"
    },
    {
      "constant": true,
      "inputs": [],
      "name": "pendingOwner",
      "outputs": [
        {
          "name": "",
          "type": "address"
        }
      ],
      "payable": false,
      "stateMutability": "view",
      "type": "function"
    },
    {
      "constant": false,
      "inputs": [
        {
          "name": "_newOwner",
          "type": "address"
        }
      ],
      "name": "transferOwnership",
      "outputs": [],
      "payable": false,
      "stateMutability": "nonpayable",
      "type": "function"
    },
    {
      "constant": false,
      "inputs": [],
      "name": "lock",
      "outputs": [],
      "payable": false,
      "stateMutability": "nonpayable",
      "type": "function"
    },
    {
      "inputs": [
        {
          "name": "_regulator",
          "type": "address"
        },
        {
          "name": "_cusd",
          "type": "address"
        }
      ],
      "payable": false,
      "stateMutability": "nonpayable",
      "type": "constructor"
    },
    {
      "anonymous": false,
      "inputs": [
        {
          "indexed": true,
          "name": "oldCUSD",
          "type": "address"
        },
        {
          "indexed": true,
          "name": "newCUSD",
          "type": "address"
        }
      ],
      "name": "CUSDAddressChanged",
      "type": "event"
    },
    {
      "anonymous": false,
      "inputs": [
        {
          "indexed": true,
          "name": "user",
          "type": "address"
        },
        {
          "indexed": false,
          "name": "amount",
          "type": "uint256"
        }
      ],
      "name": "MintedToCUSD",
      "type": "event"
    },
    {
      "anonymous": false,
      "inputs": [
        {
          "indexed": true,
          "name": "user",
          "type": "address"
        },
        {
          "indexed": false,
          "name": "amount",
          "type": "uint256"
        }
      ],
      "name": "ConvertedToCUSD",
      "type": "event"
    },
    {
      "anonymous": false,
      "inputs": [
        {
          "indexed": true,
          "name": "account",
          "type": "address"
        },
        {
          "indexed": false,
          "name": "amount",
          "type": "uint256"
        }
      ],
      "name": "DestroyedBlacklistedTokens",
      "type": "event"
    },
    {
      "anonymous": false,
      "inputs": [
        {
          "indexed": true,
          "name": "owner",
          "type": "address"
        },
        {
          "indexed": true,
          "name": "spender",
          "type": "address"
        },
        {
          "indexed": false,
          "name": "value",
          "type": "uint256"
        }
      ],
      "name": "ApprovedBlacklistedAddressSpender",
      "type": "event"
    },
    {
      "anonymous": false,
      "inputs": [
        {
          "indexed": true,
          "name": "to",
          "type": "address"
        },
        {
          "indexed": false,
          "name": "value",
          "type": "uint256"
        }
      ],
      "name": "Mint",
      "type": "event"
    },
    {
      "anonymous": false,
      "inputs": [
        {
          "indexed": true,
          "name": "burner",
          "type": "address"
        },
        {
          "indexed": false,
          "name": "value",
          "type": "uint256"
        }
      ],
      "name": "Burn",
      "type": "event"
    },
    {
      "anonymous": false,
      "inputs": [
        {
          "indexed": true,
          "name": "from",
          "type": "address"
        },
        {
          "indexed": true,
          "name": "to",
          "type": "address"
        },
        {
          "indexed": false,
          "name": "value",
          "type": "uint256"
        }
      ],
      "name": "Transfer",
      "type": "event"
    },
    {
      "anonymous": false,
      "inputs": [
        {
          "indexed": true,
          "name": "owner",
          "type": "address"
        },
        {
          "indexed": true,
          "name": "spender",
          "type": "address"
        },
        {
          "indexed": false,
          "name": "value",
          "type": "uint256"
        }
      ],
      "name": "Approval",
      "type": "event"
    },
    {
      "anonymous": false,
      "inputs": [
        {
          "indexed": true,
          "name": "oldRegulator",
          "type": "address"
        },
        {
          "indexed": true,
          "name": "newRegulator",
          "type": "address"
        }
      ],
      "name": "ChangedRegulator",
      "type": "event"
    },
    {
      "anonymous": false,
      "inputs": [],
      "name": "Unlocked",
      "type": "event"
    },
    {
      "anonymous": false,
      "inputs": [],
      "name": "Locked",
      "type": "event"
    },
    {
      "anonymous": false,
      "inputs": [],
      "name": "Pause",
      "type": "event"
    },
    {
      "anonymous": false,
      "inputs": [],
      "name": "Unpause",
      "type": "event"
    },
    {
      "anonymous": false,
      "inputs": [
        {
          "indexed": true,
          "name": "previousOwner",
          "type": "address"
        },
        {
          "indexed": true,
          "name": "newOwner",
          "type": "address"
        }
      ],
      "name": "OwnershipTransferred",
      "type": "event"
    },
    {
      "constant": false,
      "inputs": [
        {
          "name": "_to",
          "type": "address"
        },
        {
          "name": "_amount",
          "type": "uint256"
        }
      ],
      "name": "mintCUSD",
      "outputs": [],
      "payable": false,
      "stateMutability": "nonpayable",
      "type": "function"
    },
    {
      "constant": false,
      "inputs": [
        {
          "name": "_amount",
          "type": "uint256"
        }
      ],
      "name": "convertWT",
      "outputs": [],
      "payable": false,
      "stateMutability": "nonpayable",
      "type": "function"
    },
    {
      "constant": false,
      "inputs": [
        {
          "name": "_cusd",
          "type": "address"
        }
      ],
      "name": "setCUSDAddress",
      "outputs": [],
      "payable": false,
      "stateMutability": "nonpayable",
      "type": "function"
    }
  ],
  "bytecode": "0x60806040526001805460a060020a61ffff02191690553480156200002257600080fd5b506040516040806200482f8339810160405280516020909101516000805433600160a060020a031991821617909155600180548216905560038054909116600160a060020a0384161790558162000078620000dc565b604051809103906000f08015801562000095573d6000803e3d6000fd5b5060028054600160a060020a0319908116600160a060020a0393841617909155600380548216958316959095179094556004805490941692169190911790915550620000ed565b6040516108f58062003f3a83390190565b613e3d80620000fd6000396000f30060806040526004361061017f5763ffffffff7c0100000000000000000000000000000000000000000000000000000000600035041663095ea7b3811461018457806318160ddd146101c957806323b872dd146101f05780633c584d86146102275780633f4ba83a1461024157806340c10f191461025657806342966c68146102875780634e71e0c81461029f5780635bae9ce9146102b45780635c975abb146102c9578063636f0cf8146102de578063661884631461031c578063662f94c01461034d57806370a082311461037b5780638456cb59146103a957806388fa2617146103be5780638da5cb5b146103d357806391dc1b1d146103e8578063a00d774014610419578063a69df4b514610447578063a9059cbb1461045c578063b199efb51461048d578063c534ba4b146104a2578063cde0a4f8146104d3578063d73dd62314610501578063dd62ed3e14610532578063dd8fee1414610566578063e30c39781461057b578063f2fde38b14610590578063f83d08ba146105be575b600080fd5b34801561019057600080fd5b506101b573ffffffffffffffffffffffffffffffffffffffff600435166024356105d3565b604080519115158252519081900360200190f35b3480156101d557600080fd5b506101de610931565b60408051918252519081900360200190f35b3480156101fc57600080fd5b506101b573ffffffffffffffffffffffffffffffffffffffff600435811690602435166044356109ce565b34801561023357600080fd5b5061023f6004356110a5565b005b34801561024d57600080fd5b5061023f611315565b34801561026257600080fd5b5061023f73ffffffffffffffffffffffffffffffffffffffff600435166024356113b5565b34801561029357600080fd5b5061023f600435611549565b3480156102ab57600080fd5b5061023f6116dc565b3480156102c057600080fd5b506101b5611796565b3480156102d557600080fd5b506101b56118f8565b3480156102ea57600080fd5b506102f3611919565b6040805173ffffffffffffffffffffffffffffffffffffffff9092168252519081900360200190f35b34801561032857600080fd5b506101b573ffffffffffffffffffffffffffffffffffffffff60043516602435611935565b34801561035957600080fd5b5061023f73ffffffffffffffffffffffffffffffffffffffff60043516611b8e565b34801561038757600080fd5b506101de73ffffffffffffffffffffffffffffffffffffffff60043516611f37565b3480156103b557600080fd5b5061023f611fe1565b3480156103ca57600080fd5b506101b5612097565b3480156103df57600080fd5b506102f36120b9565b3480156103f457600080fd5b5061023f73ffffffffffffffffffffffffffffffffffffffff600435166024356120d5565b34801561042557600080fd5b5061023f73ffffffffffffffffffffffffffffffffffffffff6004351661237b565b34801561045357600080fd5b5061023f612518565b34801561046857600080fd5b506101b573ffffffffffffffffffffffffffffffffffffffff600435166024356125a7565b34801561049957600080fd5b506102f3612a61565b3480156104ae57600080fd5b5061023f73ffffffffffffffffffffffffffffffffffffffff60043516602435612a7d565b3480156104df57600080fd5b5061023f73ffffffffffffffffffffffffffffffffffffffff60043516612e83565b34801561050d57600080fd5b506101b573ffffffffffffffffffffffffffffffffffffffff60043516602435613046565b34801561053e57600080fd5b506101de73ffffffffffffffffffffffffffffffffffffffff60043581169060243516613294565b34801561057257600080fd5b506102f3613347565b34801561058757600080fd5b506102f3613363565b34801561059c57600080fd5b5061023f73ffffffffffffffffffffffffffffffffffffffff6004351661337f565b3480156105ca57600080fd5b5061023f61340c565b600354604080517f7ccce85100000000000000000000000000000000000000000000000000000000815273ffffffffffffffffffffffffffffffffffffffff8086166004830152915160009386931691637ccce85191602480830192602092919082900301818887803b15801561064957600080fd5b505af115801561065d573d6000803e3d6000fd5b505050506040513d602081101561067357600080fd5b5051156106e157604080517f08c379a000000000000000000000000000000000000000000000000000000000815260206004820152601c60248201527f55736572206d757374206e6f7420626520626c61636b6c697374656400000000604482015290519081900360640190fd5b600354604080517f7ccce85100000000000000000000000000000000000000000000000000000000815233600482018190529151919273ffffffffffffffffffffffffffffffffffffffff1691637ccce851916024808201926020929091908290030181600087803b15801561075657600080fd5b505af115801561076a573d6000803e3d6000fd5b505050506040513d602081101561078057600080fd5b5051156107ee57604080517f08c379a000000000000000000000000000000000000000000000000000000000815260206004820152601c60248201527f55736572206d757374206e6f7420626520626c61636b6c697374656400000000604482015290519081900360640190fd5b60015474010000000000000000000000000000000000000000900460ff161561081657600080fd5b6001547501000000000000000000000000000000000000000000900460ff16151561084057600080fd5b600254604080517fda46098c00000000000000000000000000000000000000000000000000000000815233600482015273ffffffffffffffffffffffffffffffffffffffff8881166024830152604482018890529151919092169163da46098c91606480830192600092919082900301818387803b1580156108c157600080fd5b505af11580156108d5573d6000803e3d6000fd5b505060408051878152905173ffffffffffffffffffffffffffffffffffffffff891693503392507f8c5be1e5ebec7d5bd14f71427d1e84f3dd0314c0f7b2291e5b200ac8c7c3b9259181900360200190a3506001949350505050565b600254604080517f18160ddd000000000000000000000000000000000000000000000000000000008152905160009273ffffffffffffffffffffffffffffffffffffffff16916318160ddd91600480830192602092919082900301818787803b15801561099d57600080fd5b505af11580156109b1573d6000803e3d6000fd5b505050506040513d60208110156109c757600080fd5b5051905090565b60015460009074010000000000000000000000000000000000000000900460ff16156109f957600080fd5b600354604080517f7ccce85100000000000000000000000000000000000000000000000000000000815273ffffffffffffffffffffffffffffffffffffffff808716600483015291518793879360009384939190921691637ccce85191602480830192602092919082900301818787803b158015610a7657600080fd5b505af1158015610a8a573d6000803e3d6000fd5b505050506040513d6020811015610aa057600080fd5b505115610b0e57604080517f08c379a000000000000000000000000000000000000000000000000000000000815260206004820152601f60248201527f526563697069656e742063616e6e6f7420626520626c61636b6c697374656400604482015290519081900360640190fd5b600354604080517f7ccce85100000000000000000000000000000000000000000000000000000000815273ffffffffffffffffffffffffffffffffffffffff878116600483015291519190921691637ccce8519160248083019260209291908290030181600087803b158015610b8357600080fd5b505af1158015610b97573d6000803e3d6000fd5b505050506040513d6020811015610bad57600080fd5b5051600354604080517f91c4529f000000000000000000000000000000000000000000000000000000008152336004820152905192945073ffffffffffffffffffffffffffffffffffffffff909116916391c4529f916024808201926020929091908290030181600087803b158015610c2557600080fd5b505af1158015610c39573d6000803e3d6000fd5b505050506040513d6020811015610c4f57600080fd5b50519050811580610c5d5750805b1515610d1657604080517f08c379a000000000000000000000000000000000000000000000000000000000815260206004820152604c60248201527f4f726967696e2063616e6e6f7420626520626c61636b6c69737465642069662060448201527f7370656e646572206973206e6f7420616e20617070726f76656420626c61636b60648201527f6c697374207370656e6465720000000000000000000000000000000000000000608482015290519081900360a40190fd5b610d208833613294565b861115610d8e57604080517f08c379a000000000000000000000000000000000000000000000000000000000815260206004820181905260248201527f6e6f7420656e6f75676820616c6c6f77616e636520746f207472616e73666572604482015290519081900360640190fd5b73ffffffffffffffffffffffffffffffffffffffff87161515610e1257604080517f08c379a000000000000000000000000000000000000000000000000000000000815260206004820152601860248201527f746f20616464726573732063616e6e6f74206265203078300000000000000000604482015290519081900360640190fd5b610e1b88611f37565b861115610e8957604080517f08c379a000000000000000000000000000000000000000000000000000000000815260206004820152601e60248201527f6e6f7420656e6f7567682062616c616e636520746f207472616e736665720000604482015290519081900360640190fd5b600254604080517f97d88cd200000000000000000000000000000000000000000000000000000000815273ffffffffffffffffffffffffffffffffffffffff8b81166004830152336024830152604482018a9052915191909216916397d88cd291606480830192600092919082900301818387803b158015610f0a57600080fd5b505af1158015610f1e573d6000803e3d6000fd5b5050600254604080517f21e5383a00000000000000000000000000000000000000000000000000000000815273ffffffffffffffffffffffffffffffffffffffff8c81166004830152602482018c905291519190921693506321e5383a9250604480830192600092919082900301818387803b158015610f9d57600080fd5b505af1158015610fb1573d6000803e3d6000fd5b5050600254604080517fcf8eeb7e00000000000000000000000000000000000000000000000000000000815273ffffffffffffffffffffffffffffffffffffffff8d81166004830152602482018c9052915191909216935063cf8eeb7e9250604480830192600092919082900301818387803b15801561103057600080fd5b505af1158015611044573d6000803e3d6000fd5b505060408051898152905173ffffffffffffffffffffffffffffffffffffffff808c1694508c1692507fddf252ad1be2c89b69c2b068fc378daa952ba7f163c4a11628f55a4df523b3ef9181900360200190a3506001979650505050505050565b600354604080517f14db6d58000000000000000000000000000000000000000000000000000000008152336004820152600080357fffffffff00000000000000000000000000000000000000000000000000000000166024830152915173ffffffffffffffffffffffffffffffffffffffff909316926314db6d5892604480840193602093929083900390910190829087803b15801561114457600080fd5b505af1158015611158573d6000803e3d6000fd5b505050506040513d602081101561116e57600080fd5b5051151561120357604080517f08c379a000000000000000000000000000000000000000000000000000000000815260206004820152603160248201527f5573657220646f6573206e6f742068617665207065726d697373696f6e20746f60448201527f20657865637574652066756e6374696f6e000000000000000000000000000000606482015290519081900360840190fd5b60015474010000000000000000000000000000000000000000900460ff161561122b57600080fd5b8061123533611f37565b10156112c857604080517f08c379a000000000000000000000000000000000000000000000000000000000815260206004820152602d60248201527f436f6e76657273696f6e20616d6f756e742073686f756c64206265206c65737360448201527f207468616e2062616c616e636500000000000000000000000000000000000000606482015290519081900360840190fd5b6112d23382613483565b6112dc33826136b6565b60408051828152905133917f8bd92e48ca7380f64ff4556585a7161f9f0b0f67d1bb875fc1df0ae4fe6c0ae8919081900360200190a250565b60005473ffffffffffffffffffffffffffffffffffffffff16331461133957600080fd5b60015474010000000000000000000000000000000000000000900460ff16151561136257600080fd5b600180547fffffffffffffffffffffff00ffffffffffffffffffffffffffffffffffffffff1690556040517f7805862f689e2f13df9f062ff482ad3ad112aca9e0847911ed832e158c525b3390600090a1565b600354604080517f14db6d58000000000000000000000000000000000000000000000000000000008152336004820152600080357fffffffff00000000000000000000000000000000000000000000000000000000166024830152915173ffffffffffffffffffffffffffffffffffffffff909316926314db6d5892604480840193602093929083900390910190829087803b15801561145457600080fd5b505af1158015611468573d6000803e3d6000fd5b505050506040513d602081101561147e57600080fd5b5051151561151357604080517f08c379a000000000000000000000000000000000000000000000000000000000815260206004820152603160248201527f5573657220646f6573206e6f742068617665207065726d697373696f6e20746f60448201527f20657865637574652066756e6374696f6e000000000000000000000000000000606482015290519081900360840190fd5b60015474010000000000000000000000000000000000000000900460ff161561153b57600080fd5b6115458282613871565b5050565b600354604080517f14db6d58000000000000000000000000000000000000000000000000000000008152336004820152600080357fffffffff00000000000000000000000000000000000000000000000000000000166024830152915173ffffffffffffffffffffffffffffffffffffffff909316926314db6d5892604480840193602093929083900390910190829087803b1580156115e857600080fd5b505af11580156115fc573d6000803e3d6000fd5b505050506040513d602081101561161257600080fd5b505115156116a757604080517f08c379a000000000000000000000000000000000000000000000000000000000815260206004820152603160248201527f5573657220646f6573206e6f742068617665207065726d697373696f6e20746f60448201527f20657865637574652066756e6374696f6e000000000000000000000000000000606482015290519081900360840190fd5b60015474010000000000000000000000000000000000000000900460ff16156116cf57600080fd5b6116d93382613483565b50565b60015473ffffffffffffffffffffffffffffffffffffffff16331461170057600080fd5b6001546000805460405173ffffffffffffffffffffffffffffffffffffffff93841693909116917f8be0079c531659141344cd1fd0a4f28419497f9722a3daafe3b4186f6b6457e091a360018054600080547fffffffffffffffffffffffff000000000000000000000000000000000000000090811673ffffffffffffffffffffffffffffffffffffffff841617909155169055565b600354604080517f14db6d58000000000000000000000000000000000000000000000000000000008152336004820152600080357fffffffff000000000000000000000000000000000000000000000000000000001660248301529151919273ffffffffffffffffffffffffffffffffffffffff16916314db6d589160448082019260209290919082900301818787803b15801561183357600080fd5b505af1158015611847573d6000803e3d6000fd5b505050506040513d602081101561185d57600080fd5b505115156118f257604080517f08c379a000000000000000000000000000000000000000000000000000000000815260206004820152603160248201527f5573657220646f6573206e6f742068617665207065726d697373696f6e20746f60448201527f20657865637574652066756e6374696f6e000000000000000000000000000000606482015290519081900360840190fd5b50600190565b60015474010000000000000000000000000000000000000000900460ff1681565b60045473ffffffffffffffffffffffffffffffffffffffff1681565b600354604080517f7ccce85100000000000000000000000000000000000000000000000000000000815273ffffffffffffffffffffffffffffffffffffffff8086166004830152915160009386931691637ccce85191602480830192602092919082900301818887803b1580156119ab57600080fd5b505af11580156119bf573d6000803e3d6000fd5b505050506040513d60208110156119d557600080fd5b505115611a4357604080517f08c379a000000000000000000000000000000000000000000000000000000000815260206004820152601c60248201527f55736572206d757374206e6f7420626520626c61636b6c697374656400000000604482015290519081900360640190fd5b600354604080517f7ccce85100000000000000000000000000000000000000000000000000000000815233600482018190529151919273ffffffffffffffffffffffffffffffffffffffff1691637ccce851916024808201926020929091908290030181600087803b158015611ab857600080fd5b505af1158015611acc573d6000803e3d6000fd5b505050506040513d6020811015611ae257600080fd5b505115611b5057604080517f08c379a000000000000000000000000000000000000000000000000000000000815260206004820152601c60248201527f55736572206d757374206e6f7420626520626c61636b6c697374656400000000604482015290519081900360640190fd5b60015474010000000000000000000000000000000000000000900460ff1615611b7857600080fd5b611b83858533613b3f565b506001949350505050565b600354604080517f7ccce85100000000000000000000000000000000000000000000000000000000815273ffffffffffffffffffffffffffffffffffffffff8085166004830152915184939290921691637ccce851916024808201926020929091908290030181600087803b158015611c0657600080fd5b505af1158015611c1a573d6000803e3d6000fd5b505050506040513d6020811015611c3057600080fd5b50511515611c9f57604080517f08c379a000000000000000000000000000000000000000000000000000000000815260206004820152601860248201527f55736572206d75737420626520626c61636b6c69737465640000000000000000604482015290519081900360640190fd5b60015474010000000000000000000000000000000000000000900460ff1615611cc757600080fd5b600354604080517f14db6d58000000000000000000000000000000000000000000000000000000008152336004820152600080357fffffffff00000000000000000000000000000000000000000000000000000000166024830152915173ffffffffffffffffffffffffffffffffffffffff909316926314db6d5892604480840193602093929083900390910190829087803b158015611d6657600080fd5b505af1158015611d7a573d6000803e3d6000fd5b505050506040513d6020811015611d9057600080fd5b50511515611e2557604080517f08c379a000000000000000000000000000000000000000000000000000000000815260206004820152603160248201527f5573657220646f6573206e6f742068617665207065726d697373696f6e20746f60448201527f20657865637574652066756e6374696f6e000000000000000000000000000000606482015290519081900360840190fd5b60025473ffffffffffffffffffffffffffffffffffffffff1663da46098c8333611e4e82611f37565b604080517c010000000000000000000000000000000000000000000000000000000063ffffffff871602815273ffffffffffffffffffffffffffffffffffffffff948516600482015292909316602483015260448201529051606480830192600092919082900301818387803b158015611ec757600080fd5b505af1158015611edb573d6000803e3d6000fd5b50339250505073ffffffffffffffffffffffffffffffffffffffff83167f3b1ffca3903932aa264fbb5b7b381746e2b7b61c9c5a6024bad48d23f958a6c2611f2285611f37565b60408051918252519081900360200190a35050565b600254604080517f27e235e300000000000000000000000000000000000000000000000000000000815273ffffffffffffffffffffffffffffffffffffffff8481166004830152915160009392909216916327e235e39160248082019260209290919082900301818787803b158015611faf57600080fd5b505af1158015611fc3573d6000803e3d6000fd5b505050506040513d6020811015611fd957600080fd5b505192915050565b60005473ffffffffffffffffffffffffffffffffffffffff16331461200557600080fd5b60015474010000000000000000000000000000000000000000900460ff161561202d57600080fd5b600180547fffffffffffffffffffffff00ffffffffffffffffffffffffffffffffffffffff16740100000000000000000000000000000000000000001790556040517f6985a02210a168e66602d3235cb6db0e70f92b3ba4d376a33c0f3d9434bff62590600090a1565b6001547501000000000000000000000000000000000000000000900460ff1681565b60005473ffffffffffffffffffffffffffffffffffffffff1681565b600354604080517f14db6d58000000000000000000000000000000000000000000000000000000008152336004820152600080357fffffffff00000000000000000000000000000000000000000000000000000000166024830152915173ffffffffffffffffffffffffffffffffffffffff909316926314db6d5892604480840193602093929083900390910190829087803b15801561217457600080fd5b505af1158015612188573d6000803e3d6000fd5b505050506040513d602081101561219e57600080fd5b5051151561223357604080517f08c379a000000000000000000000000000000000000000000000000000000000815260206004820152603160248201527f5573657220646f6573206e6f742068617665207065726d697373696f6e20746f60448201527f20657865637574652066756e6374696f6e000000000000000000000000000000606482015290519081900360840190fd5b60015474010000000000000000000000000000000000000000900460ff161561225b57600080fd5b600354604080517fd88c271e00000000000000000000000000000000000000000000000000000000815273ffffffffffffffffffffffffffffffffffffffff808616600483015291518593929092169163d88c271e916024808201926020929091908290030181600087803b1580156122d357600080fd5b505af11580156122e7573d6000803e3d6000fd5b505050506040513d60208110156122fd57600080fd5b5051151561236c57604080517f08c379a000000000000000000000000000000000000000000000000000000000815260206004820152601860248201527f55736572206d7573742062652077686974656c69737465640000000000000000604482015290519081900360640190fd5b61237683836136b6565b505050565b6000805473ffffffffffffffffffffffffffffffffffffffff1633146123a057600080fd5b60045473ffffffffffffffffffffffffffffffffffffffff8381169116141561242a57604080517f08c379a000000000000000000000000000000000000000000000000000000000815260206004820152601a60248201527f4d7573742062652061206e657720637573642061646472657373000000000000604482015290519081900360640190fd5b61243382613cff565b15156124a057604080517f08c379a000000000000000000000000000000000000000000000000000000000815260206004820152601a60248201527f4d75737420626520616e2061637475616c20636f6e7472616374000000000000604482015290519081900360640190fd5b506004805473ffffffffffffffffffffffffffffffffffffffff8381167fffffffffffffffffffffffff0000000000000000000000000000000000000000831681179093556040519116919082907f0ec1b8e8ba02bcff9ae905a36374bb7e8f3bbd8ac86b05d99e881092f538a0aa90600090a35050565b60005473ffffffffffffffffffffffffffffffffffffffff16331461253c57600080fd5b600180547fffffffffffffffffffff00ffffffffffffffffffffffffffffffffffffffffff1675010000000000000000000000000000000000000000001790556040517f19aad37188a1d3921e29eb3c66acf43d81975e107cb650d58cca878627955fd690600090a1565b600354604080517f7ccce85100000000000000000000000000000000000000000000000000000000815273ffffffffffffffffffffffffffffffffffffffff8086166004830152915160009386931691637ccce85191602480830192602092919082900301818887803b15801561261d57600080fd5b505af1158015612631573d6000803e3d6000fd5b505050506040513d602081101561264757600080fd5b5051156126b557604080517f08c379a000000000000000000000000000000000000000000000000000000000815260206004820152601c60248201527f55736572206d757374206e6f7420626520626c61636b6c697374656400000000604482015290519081900360640190fd5b600354604080517f7ccce85100000000000000000000000000000000000000000000000000000000815233600482018190529151919273ffffffffffffffffffffffffffffffffffffffff1691637ccce851916024808201926020929091908290030181600087803b15801561272a57600080fd5b505af115801561273e573d6000803e3d6000fd5b505050506040513d602081101561275457600080fd5b5051156127c257604080517f08c379a000000000000000000000000000000000000000000000000000000000815260206004820152601c60248201527f55736572206d757374206e6f7420626520626c61636b6c697374656400000000604482015290519081900360640190fd5b60015474010000000000000000000000000000000000000000900460ff16156127ea57600080fd5b73ffffffffffffffffffffffffffffffffffffffff8516151561286e57604080517f08c379a000000000000000000000000000000000000000000000000000000000815260206004820152601860248201527f746f20616464726573732063616e6e6f74206265203078300000000000000000604482015290519081900360640190fd5b61287733611f37565b8411156128e557604080517f08c379a000000000000000000000000000000000000000000000000000000000815260206004820152601e60248201527f6e6f7420656e6f7567682062616c616e636520746f207472616e736665720000604482015290519081900360640190fd5b600254604080517fcf8eeb7e00000000000000000000000000000000000000000000000000000000815233600482015260248101879052905173ffffffffffffffffffffffffffffffffffffffff9092169163cf8eeb7e9160448082019260009290919082900301818387803b15801561295e57600080fd5b505af1158015612972573d6000803e3d6000fd5b5050600254604080517f21e5383a00000000000000000000000000000000000000000000000000000000815273ffffffffffffffffffffffffffffffffffffffff8a81166004830152602482018a905291519190921693506321e5383a9250604480830192600092919082900301818387803b1580156129f157600080fd5b505af1158015612a05573d6000803e3d6000fd5b505060408051878152905173ffffffffffffffffffffffffffffffffffffffff891693503392507fddf252ad1be2c89b69c2b068fc378daa952ba7f163c4a11628f55a4df523b3ef9181900360200190a3506001949350505050565b60025473ffffffffffffffffffffffffffffffffffffffff1681565b600354604080517f7ccce85100000000000000000000000000000000000000000000000000000000815273ffffffffffffffffffffffffffffffffffffffff8086166004830152915185939290921691637ccce851916024808201926020929091908290030181600087803b158015612af557600080fd5b505af1158015612b09573d6000803e3d6000fd5b505050506040513d6020811015612b1f57600080fd5b50511515612b8e57604080517f08c379a000000000000000000000000000000000000000000000000000000000815260206004820152601860248201527f55736572206d75737420626520626c61636b6c69737465640000000000000000604482015290519081900360640190fd5b60015474010000000000000000000000000000000000000000900460ff1615612bb657600080fd5b600354604080517f14db6d58000000000000000000000000000000000000000000000000000000008152336004820152600080357fffffffff00000000000000000000000000000000000000000000000000000000166024830152915173ffffffffffffffffffffffffffffffffffffffff909316926314db6d5892604480840193602093929083900390910190829087803b158015612c5557600080fd5b505af1158015612c69573d6000803e3d6000fd5b505050506040513d6020811015612c7f57600080fd5b50511515612d1457604080517f08c379a000000000000000000000000000000000000000000000000000000000815260206004820152603160248201527f5573657220646f6573206e6f742068617665207065726d697373696f6e20746f60448201527f20657865637574652066756e6374696f6e000000000000000000000000000000606482015290519081900360840190fd5b600254604080517fcf8eeb7e00000000000000000000000000000000000000000000000000000000815273ffffffffffffffffffffffffffffffffffffffff8681166004830152602482018690529151919092169163cf8eeb7e91604480830192600092919082900301818387803b158015612d8f57600080fd5b505af1158015612da3573d6000803e3d6000fd5b5050600254604080517f82838c7600000000000000000000000000000000000000000000000000000000815260048101879052905173ffffffffffffffffffffffffffffffffffffffff90921693506382838c76925060248082019260009290919082900301818387803b158015612e1a57600080fd5b505af1158015612e2e573d6000803e3d6000fd5b505060408051858152905173ffffffffffffffffffffffffffffffffffffffff871693507fb81d1dffb753076892e04e6e1234d137b031f70d859c299876b0486e966424fd92509081900360200190a2505050565b6000805473ffffffffffffffffffffffffffffffffffffffff163314612ea857600080fd5b60035473ffffffffffffffffffffffffffffffffffffffff83811691161415612f3257604080517f08c379a000000000000000000000000000000000000000000000000000000000815260206004820152601760248201527f4d7573742062652061206e657720726567756c61746f72000000000000000000604482015290519081900360640190fd5b612f3b82613cff565b1515612fce57604080517f08c379a000000000000000000000000000000000000000000000000000000000815260206004820152603860248201527f43616e6e6f7420736574206120726567756c61746f722073746f72616765207460448201527f6f2061206e6f6e2d636f6e747261637420616464726573730000000000000000606482015290519081900360840190fd5b506003805473ffffffffffffffffffffffffffffffffffffffff8381167fffffffffffffffffffffffff0000000000000000000000000000000000000000831681179093556040519116919082907f4a59b4b607c6055b37a4716d7813d7d4d2c288e4d0dd8298e365b260a1f262e890600090a35050565b600354604080517f7ccce85100000000000000000000000000000000000000000000000000000000815273ffffffffffffffffffffffffffffffffffffffff8086166004830152915160009386931691637ccce85191602480830192602092919082900301818887803b1580156130bc57600080fd5b505af11580156130d0573d6000803e3d6000fd5b505050506040513d60208110156130e657600080fd5b50511561315457604080517f08c379a000000000000000000000000000000000000000000000000000000000815260206004820152601c60248201527f55736572206d757374206e6f7420626520626c61636b6c697374656400000000604482015290519081900360640190fd5b600354604080517f7ccce85100000000000000000000000000000000000000000000000000000000815233600482018190529151919273ffffffffffffffffffffffffffffffffffffffff1691637ccce851916024808201926020929091908290030181600087803b1580156131c957600080fd5b505af11580156131dd573d6000803e3d6000fd5b505050506040513d60208110156131f357600080fd5b50511561326157604080517f08c379a000000000000000000000000000000000000000000000000000000000815260206004820152601c60248201527f55736572206d757374206e6f7420626520626c61636b6c697374656400000000604482015290519081900360640190fd5b60015474010000000000000000000000000000000000000000900460ff161561328957600080fd5b611b83858533613d07565b600254604080517f55b6ed5c00000000000000000000000000000000000000000000000000000000815273ffffffffffffffffffffffffffffffffffffffff85811660048301528481166024830152915160009392909216916355b6ed5c9160448082019260209290919082900301818787803b15801561331457600080fd5b505af1158015613328573d6000803e3d6000fd5b505050506040513d602081101561333e57600080fd5b50519392505050565b60035473ffffffffffffffffffffffffffffffffffffffff1681565b60015473ffffffffffffffffffffffffffffffffffffffff1681565b60005473ffffffffffffffffffffffffffffffffffffffff1633146133a357600080fd5b73ffffffffffffffffffffffffffffffffffffffff811615156133c557600080fd5b600180547fffffffffffffffffffffffff00000000000000000000000000000000000000001673ffffffffffffffffffffffffffffffffffffffff92909216919091179055565b60005473ffffffffffffffffffffffffffffffffffffffff16331461343057600080fd5b600180547fffffffffffffffffffff00ffffffffffffffffffffffffffffffffffffffffff1690556040517f0f2e5b6c72c6a4491efd919a9f9a409f324ef0708c11ee57d410c2cb06c0992b90600090a1565b61348c82611f37565b8111156134fa57604080517f08c379a000000000000000000000000000000000000000000000000000000000815260206004820152601a60248201527f6e6f7420656e6f7567682062616c616e636520746f206275726e000000000000604482015290519081900360640190fd5b600254604080517fcf8eeb7e00000000000000000000000000000000000000000000000000000000815273ffffffffffffffffffffffffffffffffffffffff8581166004830152602482018590529151919092169163cf8eeb7e91604480830192600092919082900301818387803b15801561357557600080fd5b505af1158015613589573d6000803e3d6000fd5b5050600254604080517f82838c7600000000000000000000000000000000000000000000000000000000815260048101869052905173ffffffffffffffffffffffffffffffffffffffff90921693506382838c76925060248082019260009290919082900301818387803b15801561360057600080fd5b505af1158015613614573d6000803e3d6000fd5b505060408051848152905173ffffffffffffffffffffffffffffffffffffffff861693507fcc16f5dbb4873280815c1ee09dbd06736cffcc184412cf7a71a0fdb75d397ca592509081900360200190a260408051828152905160009173ffffffffffffffffffffffffffffffffffffffff8516917fddf252ad1be2c89b69c2b068fc378daa952ba7f163c4a11628f55a4df523b3ef9181900360200190a35050565b60045473ffffffffffffffffffffffffffffffffffffffff8381169116141561376657604080517f08c379a000000000000000000000000000000000000000000000000000000000815260206004820152602160248201527f43616e6e6f74206d696e7420746f20436172626f6e55534420636f6e7472616360448201527f7400000000000000000000000000000000000000000000000000000000000000606482015290519081900360840190fd5b60048054604080517f40c10f1900000000000000000000000000000000000000000000000000000000815273ffffffffffffffffffffffffffffffffffffffff8681169482019490945260248101859052905192909116916340c10f199160448082019260009290919082900301818387803b1580156137e557600080fd5b505af11580156137f9573d6000803e3d6000fd5b5050600454613821925073ffffffffffffffffffffffffffffffffffffffff16905082613871565b60408051828152905173ffffffffffffffffffffffffffffffffffffffff8416917f0aa3eb15142a2b8e4c65e571df7bdd989b9f56c6034258ede1c26c1f89d6e3c2919081900360200190a25050565b600354604080517fd88c271e00000000000000000000000000000000000000000000000000000000815273ffffffffffffffffffffffffffffffffffffffff808616600483015291518593929092169163d88c271e916024808201926020929091908290030181600087803b1580156138e957600080fd5b505af11580156138fd573d6000803e3d6000fd5b505050506040513d602081101561391357600080fd5b5051151561398257604080517f08c379a000000000000000000000000000000000000000000000000000000000815260206004820152601860248201527f55736572206d7573742062652077686974656c69737465640000000000000000604482015290519081900360640190fd5b600254604080517fe468688e00000000000000000000000000000000000000000000000000000000815260048101859052905173ffffffffffffffffffffffffffffffffffffffff9092169163e468688e9160248082019260009290919082900301818387803b1580156139f557600080fd5b505af1158015613a09573d6000803e3d6000fd5b5050600254604080517f21e5383a00000000000000000000000000000000000000000000000000000000815273ffffffffffffffffffffffffffffffffffffffff88811660048301526024820188905291519190921693506321e5383a9250604480830192600092919082900301818387803b158015613a8857600080fd5b505af1158015613a9c573d6000803e3d6000fd5b505060408051858152905173ffffffffffffffffffffffffffffffffffffffff871693507f0f6798a560793a54c3bcfe86a93cde1e73087d944c0ea20544137d412139688592509081900360200190a260408051838152905173ffffffffffffffffffffffffffffffffffffffff8516916000917fddf252ad1be2c89b69c2b068fc378daa952ba7f163c4a11628f55a4df523b3ef9181900360200190a3505050565b6000613b4b8285613294565b905080831115613bf357600254604080517fda46098c00000000000000000000000000000000000000000000000000000000815273ffffffffffffffffffffffffffffffffffffffff85811660048301528781166024830152600060448301819052925193169263da46098c9260648084019391929182900301818387803b158015613bd657600080fd5b505af1158015613bea573d6000803e3d6000fd5b50505050613c8f565b600254604080517f97d88cd200000000000000000000000000000000000000000000000000000000815273ffffffffffffffffffffffffffffffffffffffff8581166004830152878116602483015260448201879052915191909216916397d88cd291606480830192600092919082900301818387803b158015613c7657600080fd5b505af1158015613c8a573d6000803e3d6000fd5b505050505b8373ffffffffffffffffffffffffffffffffffffffff168273ffffffffffffffffffffffffffffffffffffffff167f8c5be1e5ebec7d5bd14f71427d1e84f3dd0314c0f7b2291e5b200ac8c7c3b925613ce88588613294565b60408051918252519081900360200190a350505050565b6000903b1190565b600254604080517f5fd72d1600000000000000000000000000000000000000000000000000000000815273ffffffffffffffffffffffffffffffffffffffff848116600483015286811660248301526044820186905291519190921691635fd72d1691606480830192600092919082900301818387803b158015613d8a57600080fd5b505af1158015613d9e573d6000803e3d6000fd5b505050508273ffffffffffffffffffffffffffffffffffffffff168173ffffffffffffffffffffffffffffffffffffffff167f8c5be1e5ebec7d5bd14f71427d1e84f3dd0314c0f7b2291e5b200ac8c7c3b925613dfb8487613294565b60408051918252519081900360200190a35050505600a165627a7a723058200d7e1516f590a9babc274430370c436bfbf147dc59608963a38d664df80542120029608060405260008054600160a060020a031990811633179091556001805490911690556108c4806100316000396000f3006080604052600436106100e55763ffffffff7c010000000000000000000000000000000000000000000000000000000060003504166318160ddd81146100ea57806321e5383a1461011157806327e235e3146101445780634e71e0c81461017257806355b6ed5c146101875780635fd72d16146101bb57806382838c76146101f25780638da5cb5b1461020a57806397d88cd214610248578063cf8eeb7e1461027f578063da46098c146102b0578063e30443bc146102e7578063e30c397814610318578063e468688e1461032d578063f2fde38b14610345578063f7ea7a3d14610373575b600080fd5b3480156100f657600080fd5b506100ff61038b565b60408051918252519081900360200190f35b34801561011d57600080fd5b5061014273ffffffffffffffffffffffffffffffffffffffff60043516602435610391565b005b34801561015057600080fd5b506100ff73ffffffffffffffffffffffffffffffffffffffff60043516610418565b34801561017e57600080fd5b5061014261042a565b34801561019357600080fd5b506100ff73ffffffffffffffffffffffffffffffffffffffff600435811690602435166104e4565b3480156101c757600080fd5b5061014273ffffffffffffffffffffffffffffffffffffffff60043581169060243516604435610501565b3480156101fe57600080fd5b506101426004356105a6565b34801561021657600080fd5b5061021f6105e3565b6040805173ffffffffffffffffffffffffffffffffffffffff9092168252519081900360200190f35b34801561025457600080fd5b5061014273ffffffffffffffffffffffffffffffffffffffff600435811690602435166044356105ff565b34801561028b57600080fd5b5061014273ffffffffffffffffffffffffffffffffffffffff60043516602435610666565b3480156102bc57600080fd5b5061014273ffffffffffffffffffffffffffffffffffffffff600435811690602435166044356106c0565b3480156102f357600080fd5b5061014273ffffffffffffffffffffffffffffffffffffffff6004351660243561071d565b34801561032457600080fd5b5061021f61076a565b34801561033957600080fd5b50610142600435610786565b34801561035157600080fd5b5061014273ffffffffffffffffffffffffffffffffffffffff600435166107bd565b34801561037f57600080fd5b5061014260043561084a565b60045481565b60005473ffffffffffffffffffffffffffffffffffffffff1633146103b557600080fd5b73ffffffffffffffffffffffffffffffffffffffff82166000908152600360205260409020546103eb908263ffffffff61087316565b73ffffffffffffffffffffffffffffffffffffffff90921660009081526003602052604090209190915550565b60036020526000908152604090205481565b60015473ffffffffffffffffffffffffffffffffffffffff16331461044e57600080fd5b6001546000805460405173ffffffffffffffffffffffffffffffffffffffff93841693909116917f8be0079c531659141344cd1fd0a4f28419497f9722a3daafe3b4186f6b6457e091a360018054600080547fffffffffffffffffffffffff000000000000000000000000000000000000000090811673ffffffffffffffffffffffffffffffffffffffff841617909155169055565b600260209081526000928352604080842090915290825290205481565b60005473ffffffffffffffffffffffffffffffffffffffff16331461052557600080fd5b73ffffffffffffffffffffffffffffffffffffffff808416600090815260026020908152604080832093861683529290522054610568908263ffffffff61087316565b73ffffffffffffffffffffffffffffffffffffffff938416600090815260026020908152604080832095909616825293909352929091209190915550565b60005473ffffffffffffffffffffffffffffffffffffffff1633146105ca57600080fd5b6004546105dd908263ffffffff61088616565b60045550565b60005473ffffffffffffffffffffffffffffffffffffffff1681565b60005473ffffffffffffffffffffffffffffffffffffffff16331461062357600080fd5b73ffffffffffffffffffffffffffffffffffffffff808416600090815260026020908152604080832093861683529290522054610568908263ffffffff61088616565b60005473ffffffffffffffffffffffffffffffffffffffff16331461068a57600080fd5b73ffffffffffffffffffffffffffffffffffffffff82166000908152600360205260409020546103eb908263ffffffff61088616565b60005473ffffffffffffffffffffffffffffffffffffffff1633146106e457600080fd5b73ffffffffffffffffffffffffffffffffffffffff92831660009081526002602090815260408083209490951682529290925291902055565b60005473ffffffffffffffffffffffffffffffffffffffff16331461074157600080fd5b73ffffffffffffffffffffffffffffffffffffffff909116600090815260036020526040902055565b60015473ffffffffffffffffffffffffffffffffffffffff1681565b60005473ffffffffffffffffffffffffffffffffffffffff1633146107aa57600080fd5b6004546105dd908263ffffffff61087316565b60005473ffffffffffffffffffffffffffffffffffffffff1633146107e157600080fd5b73ffffffffffffffffffffffffffffffffffffffff8116151561080357600080fd5b600180547fffffffffffffffffffffffff00000000000000000000000000000000000000001673ffffffffffffffffffffffffffffffffffffffff92909216919091179055565b60005473ffffffffffffffffffffffffffffffffffffffff16331461086e57600080fd5b600455565b8181018281101561088057fe5b92915050565b60008282111561089257fe5b509003905600a165627a7a72305820154605ec09aa8a1a2acc2d7f30e7d20d0314a1d7d019d398a5a0b41dee8e8e4a0029",
  "source": "pragma solidity ^0.4.24;\r\n\r\nimport \"../permissionedToken/PermissionedToken.sol\";\r\nimport \"../carbonToken/CarbonDollar.sol\";\r\nimport \"openzeppelin-solidity/contracts/AddressUtils.sol\";\r\nimport \"../../regulator/whitelistedRegulator/WhitelistedTokenRegulator.sol\";\r\n\r\n/**\r\n* @title WhitelistedToken\r\n* @notice A WhitelistedToken can be converted into CUSD and vice versa. Converting a WT into a CUSD\r\n* is the only way for a user to obtain CUSD. This is a permissioned token, so users have to be \r\n* whitelisted before they can do any mint/burn/convert operation.\r\n*/\r\ncontract WhitelistedToken is PermissionedToken {\r\n\r\n\r\n    address public cusdAddress;\r\n\r\n    /**\r\n        Events\r\n     */\r\n    event CUSDAddressChanged(address indexed oldCUSD, address indexed newCUSD);\r\n    event MintedToCUSD(address indexed user, uint256 amount);\r\n    event ConvertedToCUSD(address indexed user, uint256 amount);\r\n\r\n    /**\r\n    * @notice Constructor sets the regulator contract and the address of the\r\n    * CarbonUSD meta-token contract. The latter is necessary in order to make transactions\r\n    * with the CarbonDollar smart contract.\r\n    */\r\n    constructor(address _regulator, address _cusd) public PermissionedToken(_regulator) {\r\n\r\n        // base class fields\r\n        regulator = WhitelistedTokenRegulator(_regulator);\r\n\r\n        cusdAddress = _cusd;\r\n\r\n    }\r\n\r\n    /**\r\n    * @notice Mints CarbonUSD for the user. Stores the WT0 that backs the CarbonUSD\r\n    * into the CarbonUSD contract's escrow account.\r\n    * @param _to The address of the receiver\r\n    * @param _amount The number of CarbonTokens to mint to user\r\n    */\r\n    function mintCUSD(address _to, uint256 _amount) public requiresPermission whenNotPaused userWhitelisted(_to) {\r\n        return _mintCUSD(_to, _amount);\r\n    }\r\n\r\n    /**\r\n    * @notice Converts WT0 to CarbonUSD for the user. Stores the WT0 that backs the CarbonUSD\r\n    * into the CarbonUSD contract's escrow account.\r\n    * @param _amount The number of Whitelisted tokens to convert\r\n    */\r\n    function convertWT(uint256 _amount) public requiresPermission whenNotPaused {\r\n        require(balanceOf(msg.sender) >= _amount, \"Conversion amount should be less than balance\");\r\n        _burn(msg.sender, _amount);\r\n        _mintCUSD(msg.sender, _amount);\r\n        emit ConvertedToCUSD(msg.sender, _amount);\r\n    }\r\n\r\n    /**\r\n     * @notice Change the cusd address.\r\n     * @param _cusd the cusd address.\r\n     */\r\n    function setCUSDAddress(address _cusd) public onlyOwner {\r\n        require(_cusd != address(cusdAddress), \"Must be a new cusd address\");\r\n        require(AddressUtils.isContract(_cusd), \"Must be an actual contract\");\r\n        address oldCUSD = address(cusdAddress);\r\n        cusdAddress = _cusd;\r\n        emit CUSDAddressChanged(oldCUSD, _cusd);\r\n    }\r\n\r\n    function _mintCUSD(address _to, uint256 _amount) internal {\r\n        require(_to != cusdAddress, \"Cannot mint to CarbonUSD contract\"); // This is to prevent Carbon Labs from printing money out of thin air!\r\n        CarbonDollar(cusdAddress).mint(_to, _amount);\r\n        _mint(cusdAddress, _amount);\r\n        emit MintedToCUSD(_to, _amount);\r\n    }\r\n}",
  "sourcePath": "C:\\Users\\npain\\Projects\\Carbon\\fiat_gateway\\contracts\\tokens\\whitelistedToken\\WhitelistedToken.sol",
  "compiler": {
    "name": "solc",
    "version": "0.4.24+commit.e67f0147.Emscripten.clang"
  },
  "schemaVersion": "2.0.1",
  "updatedAt": "2018-09-21T21:01:17.945Z"
}