{
  "contractName": "WhitelistedTokenRegulator",
  "abi": [
    {
      "constant": false,
      "inputs": [
        {
          "name": "_who",
          "type": "address"
        }
      ],
      "name": "removeBlacklistSpender",
      "outputs": [],
      "payable": false,
      "stateMutability": "nonpayable",
      "type": "function"
    },
    {
      "constant": false,
      "inputs": [
        {
          "name": "_who",
          "type": "address"
        }
      ],
      "name": "setWhitelistedUser",
      "outputs": [],
      "payable": false,
      "stateMutability": "nonpayable",
      "type": "function"
    },
    {
      "constant": true,
      "inputs": [
        {
          "name": "_who",
          "type": "address"
        },
        {
          "name": "_methodsignature",
          "type": "bytes4"
        }
      ],
      "name": "hasUserPermission",
      "outputs": [
        {
          "name": "",
          "type": "bool"
        }
      ],
      "payable": false,
      "stateMutability": "view",
      "type": "function"
    },
    {
      "constant": true,
      "inputs": [
        {
          "name": "_methodsignature",
          "type": "bytes4"
        }
      ],
      "name": "getPermission",
      "outputs": [
        {
          "name": "name",
          "type": "string"
        },
        {
          "name": "description",
          "type": "string"
        },
        {
          "name": "contract_name",
          "type": "string"
        },
        {
          "name": "active",
          "type": "bool"
        }
      ],
      "payable": false,
      "stateMutability": "view",
      "type": "function"
    },
    {
      "constant": false,
      "inputs": [
        {
          "name": "_who",
          "type": "address"
        },
        {
          "name": "_methodsignature",
          "type": "bytes4"
        }
      ],
      "name": "setUserPermission",
      "outputs": [],
      "payable": false,
      "stateMutability": "nonpayable",
      "type": "function"
    },
    {
      "constant": false,
      "inputs": [
        {
          "name": "_who",
          "type": "address"
        }
      ],
      "name": "setBlacklistDestroyer",
      "outputs": [],
      "payable": false,
      "stateMutability": "nonpayable",
      "type": "function"
    },
    {
      "constant": false,
      "inputs": [
        {
          "name": "_who",
          "type": "address"
        }
      ],
      "name": "removeMinter",
      "outputs": [],
      "payable": false,
      "stateMutability": "nonpayable",
      "type": "function"
    },
    {
      "constant": true,
      "inputs": [
        {
          "name": "",
          "type": "bytes4"
        }
      ],
      "name": "permissions",
      "outputs": [
        {
          "name": "name",
          "type": "string"
        },
        {
          "name": "description",
          "type": "string"
        },
        {
          "name": "contract_name",
          "type": "string"
        },
        {
          "name": "active",
          "type": "bool"
        }
      ],
      "payable": false,
      "stateMutability": "view",
      "type": "function"
    },
    {
      "constant": false,
      "inputs": [
        {
          "name": "_validator",
          "type": "address"
        }
      ],
      "name": "removeValidator",
      "outputs": [],
      "payable": false,
      "stateMutability": "nonpayable",
      "type": "function"
    },
    {
      "constant": false,
      "inputs": [
        {
          "name": "_validator",
          "type": "address"
        }
      ],
      "name": "addValidator",
      "outputs": [],
      "payable": false,
      "stateMutability": "nonpayable",
      "type": "function"
    },
    {
      "constant": false,
      "inputs": [],
      "name": "claimOwnership",
      "outputs": [],
      "payable": false,
      "stateMutability": "nonpayable",
      "type": "function"
    },
    {
      "constant": false,
      "inputs": [
        {
          "name": "_who",
          "type": "address"
        },
        {
          "name": "_methodsignature",
          "type": "bytes4"
        }
      ],
      "name": "removeUserPermission",
      "outputs": [],
      "payable": false,
      "stateMutability": "nonpayable",
      "type": "function"
    },
    {
      "constant": false,
      "inputs": [
        {
          "name": "_who",
          "type": "address"
        }
      ],
      "name": "removeBlacklistDestroyer",
      "outputs": [],
      "payable": false,
      "stateMutability": "nonpayable",
      "type": "function"
    },
    {
      "constant": true,
      "inputs": [],
      "name": "CONVERT_WT_SIG",
      "outputs": [
        {
          "name": "",
          "type": "bytes4"
        }
      ],
      "payable": false,
      "stateMutability": "view",
      "type": "function"
    },
    {
      "constant": false,
      "inputs": [
        {
          "name": "_methodsignature",
          "type": "bytes4"
        },
        {
          "name": "_permissionName",
          "type": "string"
        },
        {
          "name": "_permissionDescription",
          "type": "string"
        },
        {
          "name": "_contractName",
          "type": "string"
        }
      ],
      "name": "addPermission",
      "outputs": [],
      "payable": false,
      "stateMutability": "nonpayable",
      "type": "function"
    },
    {
      "constant": true,
      "inputs": [
        {
          "name": "",
          "type": "address"
        },
        {
          "name": "",
          "type": "bytes4"
        }
      ],
      "name": "userPermissions",
      "outputs": [
        {
          "name": "",
          "type": "bool"
        }
      ],
      "payable": false,
      "stateMutability": "view",
      "type": "function"
    },
    {
      "constant": true,
      "inputs": [],
      "name": "MINT_SIG",
      "outputs": [
        {
          "name": "",
          "type": "bytes4"
        }
      ],
      "payable": false,
      "stateMutability": "view",
      "type": "function"
    },
    {
      "constant": true,
      "inputs": [],
      "name": "MINT_CUSD_SIG",
      "outputs": [
        {
          "name": "",
          "type": "bytes4"
        }
      ],
      "payable": false,
      "stateMutability": "view",
      "type": "function"
    },
    {
      "constant": true,
      "inputs": [],
      "name": "owner",
      "outputs": [
        {
          "name": "",
          "type": "address"
        }
      ],
      "payable": false,
      "stateMutability": "view",
      "type": "function"
    },
    {
      "constant": true,
      "inputs": [],
      "name": "APPROVE_BLACKLISTED_ADDRESS_SPENDER_SIG",
      "outputs": [
        {
          "name": "",
          "type": "bytes4"
        }
      ],
      "payable": false,
      "stateMutability": "view",
      "type": "function"
    },
    {
      "constant": true,
      "inputs": [
        {
          "name": "_who",
          "type": "address"
        }
      ],
      "name": "isBlacklistSpender",
      "outputs": [
        {
          "name": "",
          "type": "bool"
        }
      ],
      "payable": false,
      "stateMutability": "view",
      "type": "function"
    },
    {
      "constant": true,
      "inputs": [
        {
          "name": "_methodsignature",
          "type": "bytes4"
        }
      ],
      "name": "isPermission",
      "outputs": [
        {
          "name": "",
          "type": "bool"
        }
      ],
      "payable": false,
      "stateMutability": "view",
      "type": "function"
    },
    {
      "constant": true,
      "inputs": [],
      "name": "BLACKLISTED_SIG",
      "outputs": [
        {
          "name": "",
          "type": "bytes4"
        }
      ],
      "payable": false,
      "stateMutability": "view",
      "type": "function"
    },
    {
      "constant": true,
      "inputs": [],
      "name": "DESTROY_BLACKLISTED_TOKENS_SIG",
      "outputs": [
        {
          "name": "",
          "type": "bytes4"
        }
      ],
      "payable": false,
      "stateMutability": "view",
      "type": "function"
    },
    {
      "constant": false,
      "inputs": [
        {
          "name": "_methodsignature",
          "type": "bytes4"
        }
      ],
      "name": "removePermission",
      "outputs": [],
      "payable": false,
      "stateMutability": "nonpayable",
      "type": "function"
    },
    {
      "constant": false,
      "inputs": [
        {
          "name": "_who",
          "type": "address"
        }
      ],
      "name": "setBlacklistSpender",
      "outputs": [],
      "payable": false,
      "stateMutability": "nonpayable",
      "type": "function"
    },
    {
      "constant": true,
      "inputs": [],
      "name": "BURN_CARBON_DOLLAR_SIG",
      "outputs": [
        {
          "name": "",
          "type": "bytes4"
        }
      ],
      "payable": false,
      "stateMutability": "view",
      "type": "function"
    },
    {
      "constant": false,
      "inputs": [
        {
          "name": "_who",
          "type": "address"
        }
      ],
      "name": "setBlacklistedUser",
      "outputs": [],
      "payable": false,
      "stateMutability": "nonpayable",
      "type": "function"
    },
    {
      "constant": false,
      "inputs": [
        {
          "name": "_who",
          "type": "address"
        }
      ],
      "name": "setNonlistedUser",
      "outputs": [],
      "payable": false,
      "stateMutability": "nonpayable",
      "type": "function"
    },
    {
      "constant": true,
      "inputs": [],
      "name": "BURN_SIG",
      "outputs": [
        {
          "name": "",
          "type": "bytes4"
        }
      ],
      "payable": false,
      "stateMutability": "view",
      "type": "function"
    },
    {
      "constant": true,
      "inputs": [],
      "name": "pendingOwner",
      "outputs": [
        {
          "name": "",
          "type": "address"
        }
      ],
      "payable": false,
      "stateMutability": "view",
      "type": "function"
    },
    {
      "constant": false,
      "inputs": [
        {
          "name": "_newOwner",
          "type": "address"
        }
      ],
      "name": "transferOwnership",
      "outputs": [],
      "payable": false,
      "stateMutability": "nonpayable",
      "type": "function"
    },
    {
      "constant": true,
      "inputs": [
        {
          "name": "_who",
          "type": "address"
        }
      ],
      "name": "isBlacklistDestroyer",
      "outputs": [
        {
          "name": "",
          "type": "bool"
        }
      ],
      "payable": false,
      "stateMutability": "view",
      "type": "function"
    },
    {
      "constant": true,
      "inputs": [],
      "name": "CONVERT_CARBON_DOLLAR_SIG",
      "outputs": [
        {
          "name": "",
          "type": "bytes4"
        }
      ],
      "payable": false,
      "stateMutability": "view",
      "type": "function"
    },
    {
      "constant": true,
      "inputs": [
        {
          "name": "",
          "type": "address"
        }
      ],
      "name": "validators",
      "outputs": [
        {
          "name": "",
          "type": "bool"
        }
      ],
      "payable": false,
      "stateMutability": "view",
      "type": "function"
    },
    {
      "constant": true,
      "inputs": [
        {
          "name": "_validator",
          "type": "address"
        }
      ],
      "name": "isValidator",
      "outputs": [
        {
          "name": "",
          "type": "bool"
        }
      ],
      "payable": false,
      "stateMutability": "view",
      "type": "function"
    },
    {
      "constant": false,
      "inputs": [
        {
          "name": "_who",
          "type": "address"
        }
      ],
      "name": "setMinter",
      "outputs": [],
      "payable": false,
      "stateMutability": "nonpayable",
      "type": "function"
    },
    {
      "anonymous": false,
      "inputs": [
        {
          "indexed": true,
          "name": "who",
          "type": "address"
        }
      ],
      "name": "LogWhitelistedUser",
      "type": "event"
    },
    {
      "anonymous": false,
      "inputs": [
        {
          "indexed": true,
          "name": "who",
          "type": "address"
        }
      ],
      "name": "LogBlacklistedUser",
      "type": "event"
    },
    {
      "anonymous": false,
      "inputs": [
        {
          "indexed": true,
          "name": "who",
          "type": "address"
        }
      ],
      "name": "LogNonlistedUser",
      "type": "event"
    },
    {
      "anonymous": false,
      "inputs": [
        {
          "indexed": true,
          "name": "who",
          "type": "address"
        }
      ],
      "name": "LogSetMinter",
      "type": "event"
    },
    {
      "anonymous": false,
      "inputs": [
        {
          "indexed": true,
          "name": "who",
          "type": "address"
        }
      ],
      "name": "LogRemovedMinter",
      "type": "event"
    },
    {
      "anonymous": false,
      "inputs": [
        {
          "indexed": true,
          "name": "who",
          "type": "address"
        }
      ],
      "name": "LogSetBlacklistDestroyer",
      "type": "event"
    },
    {
      "anonymous": false,
      "inputs": [
        {
          "indexed": true,
          "name": "who",
          "type": "address"
        }
      ],
      "name": "LogRemovedBlacklistDestroyer",
      "type": "event"
    },
    {
      "anonymous": false,
      "inputs": [
        {
          "indexed": true,
          "name": "who",
          "type": "address"
        }
      ],
      "name": "LogSetBlacklistSpender",
      "type": "event"
    },
    {
      "anonymous": false,
      "inputs": [
        {
          "indexed": true,
          "name": "who",
          "type": "address"
        }
      ],
      "name": "LogRemovedBlacklistSpender",
      "type": "event"
    },
    {
      "anonymous": false,
      "inputs": [
        {
          "indexed": false,
          "name": "methodsignature",
          "type": "bytes4"
        }
      ],
      "name": "PermissionAdded",
      "type": "event"
    },
    {
      "anonymous": false,
      "inputs": [
        {
          "indexed": false,
          "name": "methodsignature",
          "type": "bytes4"
        }
      ],
      "name": "PermissionRemoved",
      "type": "event"
    },
    {
      "anonymous": false,
      "inputs": [
        {
          "indexed": true,
          "name": "validator",
          "type": "address"
        }
      ],
      "name": "ValidatorAdded",
      "type": "event"
    },
    {
      "anonymous": false,
      "inputs": [
        {
          "indexed": true,
          "name": "validator",
          "type": "address"
        }
      ],
      "name": "ValidatorRemoved",
      "type": "event"
    },
    {
      "anonymous": false,
      "inputs": [
        {
          "indexed": true,
          "name": "previousOwner",
          "type": "address"
        },
        {
          "indexed": true,
          "name": "newOwner",
          "type": "address"
        }
      ],
      "name": "OwnershipTransferred",
      "type": "event"
    },
    {
      "constant": true,
      "inputs": [
        {
          "name": "_who",
          "type": "address"
        }
      ],
      "name": "isMinter",
      "outputs": [
        {
          "name": "",
          "type": "bool"
        }
      ],
      "payable": false,
      "stateMutability": "view",
      "type": "function"
    },
    {
      "constant": true,
      "inputs": [
        {
          "name": "_who",
          "type": "address"
        }
      ],
      "name": "isWhitelistedUser",
      "outputs": [
        {
          "name": "",
          "type": "bool"
        }
      ],
      "payable": false,
      "stateMutability": "view",
      "type": "function"
    },
    {
      "constant": true,
      "inputs": [
        {
          "name": "_who",
          "type": "address"
        }
      ],
      "name": "isBlacklistedUser",
      "outputs": [
        {
          "name": "",
          "type": "bool"
        }
      ],
      "payable": false,
      "stateMutability": "view",
      "type": "function"
    },
    {
      "constant": true,
      "inputs": [
        {
          "name": "_who",
          "type": "address"
        }
      ],
      "name": "isNonlistedUser",
      "outputs": [
        {
          "name": "",
          "type": "bool"
        }
      ],
      "payable": false,
      "stateMutability": "view",
      "type": "function"
    }
  ],
  "bytecode": "0x608060405260008054600160a060020a03199081163317909155600180549091169055613aab806100316000396000f3006080604052600436106101f85763ffffffff7c0100000000000000000000000000000000000000000000000000000000600035041663029043a481146101fd578063095333031461022d57806314db6d581461025b5780631830f493146102c25780631c870eee14610448578063231a439e1461049b5780633092afd5146104c9578063395a7b30146104f757806340a141ff146105315780634d238c8e1461055f5780634d54dc961461058d5780634e71e0c8146105bb5780635317e444146105d0578063556b638414610623578063639c44cf14610651578063780bfed01461069b5780637ccce851146107975780638707e2f4146107c557806388f14b0e146108185780638b7c81091461082d5780638da5cb5b146108425780638f959f541461088057806391c4529f14610895578063933aa667146108c35780639491951b146108fd578063aa271e1a14610912578063ab96cb4614610940578063b8ccbd1714610955578063c1331bc31461098f578063c1c49cbb146109bd578063c56bea64146109d2578063cd49539114610a00578063cfbf1b9014610a2e578063d88c271e14610a43578063e30c397814610a71578063f2fde38b14610a86578063f530259e14610ab4578063f9d5054314610ae2578063fa52c7d814610af7578063facd743b14610b25578063fca3b5aa14610b53575b600080fd5b34801561020957600080fd5b5061022b73ffffffffffffffffffffffffffffffffffffffff60043516610b81565b005b34801561023957600080fd5b5061022b73ffffffffffffffffffffffffffffffffffffffff60043516610d92565b34801561026757600080fd5b506102ae73ffffffffffffffffffffffffffffffffffffffff600435167fffffffff0000000000000000000000000000000000000000000000000000000060243516610e14565b604080519115158252519081900360200190f35b3480156102ce57600080fd5b506102fc7fffffffff0000000000000000000000000000000000000000000000000000000060043516610e70565b604080518215156060820152608080825286519082015285519091829160208084019284019160a08501918a019080838360005b83811015610348578181015183820152602001610330565b50505050905090810190601f1680156103755780820380516001836020036101000a031916815260200191505b50848103835287518152875160209182019189019080838360005b838110156103a8578181015183820152602001610390565b50505050905090810190601f1680156103d55780820380516001836020036101000a031916815260200191505b50848103825286518152865160209182019188019080838360005b838110156104085781810151838201526020016103f0565b50505050905090810190601f1680156104355780820380516001836020036101000a031916815260200191505b5097505050505050505060405180910390f35b34801561045457600080fd5b5061022b73ffffffffffffffffffffffffffffffffffffffff600435167fffffffff00000000000000000000000000000000000000000000000000000000602435166110cf565b3480156104a757600080fd5b5061022b73ffffffffffffffffffffffffffffffffffffffff6004351661128e565b3480156104d557600080fd5b5061022b73ffffffffffffffffffffffffffffffffffffffff6004351661149f565b34801561050357600080fd5b506102fc7fffffffff000000000000000000000000000000000000000000000000000000006004351661151e565b34801561053d57600080fd5b5061022b73ffffffffffffffffffffffffffffffffffffffff6004351661172e565b34801561056b57600080fd5b5061022b73ffffffffffffffffffffffffffffffffffffffff600435166117c6565b34801561059957600080fd5b506102ae73ffffffffffffffffffffffffffffffffffffffff60043516611861565b3480156105c757600080fd5b5061022b6118b9565b3480156105dc57600080fd5b5061022b73ffffffffffffffffffffffffffffffffffffffff600435167fffffffff0000000000000000000000000000000000000000000000000000000060243516611973565b34801561062f57600080fd5b5061022b73ffffffffffffffffffffffffffffffffffffffff60043516611b2f565b34801561065d57600080fd5b50610666611d40565b604080517fffffffff000000000000000000000000000000000000000000000000000000009092168252519081900360200190f35b3480156106a757600080fd5b5060408051602060046024803582810135601f810185900485028601850190965285855261022b9583357fffffffff000000000000000000000000000000000000000000000000000000001695369560449491939091019190819084018382808284375050604080516020601f89358b018035918201839004830284018301909452808352979a99988101979196509182019450925082915084018382808284375050604080516020601f89358b018035918201839004830284018301909452808352979a999881019791965091820194509250829150840183828082843750949750611d759650505050505050565b3480156107a357600080fd5b506102ae73ffffffffffffffffffffffffffffffffffffffff60043516611f27565b3480156107d157600080fd5b506102ae73ffffffffffffffffffffffffffffffffffffffff600435167fffffffff0000000000000000000000000000000000000000000000000000000060243516611f79565b34801561082457600080fd5b50610666611f99565b34801561083957600080fd5b50610666611fce565b34801561084e57600080fd5b50610857612003565b6040805173ffffffffffffffffffffffffffffffffffffffff9092168252519081900360200190f35b34801561088c57600080fd5b5061066661201f565b3480156108a157600080fd5b506102ae73ffffffffffffffffffffffffffffffffffffffff6004351661207a565b3480156108cf57600080fd5b506102ae7fffffffff00000000000000000000000000000000000000000000000000000000600435166120e1565b34801561090957600080fd5b5061066661211b565b34801561091e57600080fd5b506102ae73ffffffffffffffffffffffffffffffffffffffff60043516612150565b34801561094c57600080fd5b5061066661219f565b34801561096157600080fd5b5061022b7fffffffff00000000000000000000000000000000000000000000000000000000600435166121fa565b34801561099b57600080fd5b5061022b73ffffffffffffffffffffffffffffffffffffffff60043516612302565b3480156109c957600080fd5b50610666612513565b3480156109de57600080fd5b5061022b73ffffffffffffffffffffffffffffffffffffffff6004351661256e565b348015610a0c57600080fd5b5061022b73ffffffffffffffffffffffffffffffffffffffff600435166125ed565b348015610a3a57600080fd5b5061066661266c565b348015610a4f57600080fd5b506102ae73ffffffffffffffffffffffffffffffffffffffff600435166126a1565b348015610a7d57600080fd5b506108576126f2565b348015610a9257600080fd5b5061022b73ffffffffffffffffffffffffffffffffffffffff6004351661270e565b348015610ac057600080fd5b506102ae73ffffffffffffffffffffffffffffffffffffffff6004351661279b565b348015610aee57600080fd5b50610666612802565b348015610b0357600080fd5b506102ae73ffffffffffffffffffffffffffffffffffffffff6004351661285d565b348015610b3157600080fd5b506102ae73ffffffffffffffffffffffffffffffffffffffff60043516612872565b348015610b5f57600080fd5b5061022b73ffffffffffffffffffffffffffffffffffffffff6004351661289d565b610b8a33612872565b1515610bf757604080517f08c379a000000000000000000000000000000000000000000000000000000000815260206004820152601860248201527f53656e646572206d7573742062652076616c696461746f720000000000000000604482015290519081900360640190fd5b604080517f617070726f7665426c61636b6c6973746564416464726573735370656e64657281527f286164647265737329000000000000000000000000000000000000000000000060208201529051908190036029019020610c58906120e1565b1515610ceb57604080517f08c379a000000000000000000000000000000000000000000000000000000000815260206004820152602960248201527f426c61636b6c697374207370656e64696e67206e6f7420737570706f7274656460448201527f20627920746f6b656e0000000000000000000000000000000000000000000000606482015290519081900360840190fd5b604080517f617070726f7665426c61636b6c6973746564416464726573735370656e64657281527f286164647265737329000000000000000000000000000000000000000000000060208201529051908190036029019020610d4e908290611973565b60405173ffffffffffffffffffffffffffffffffffffffff8216907fb5ead9fec464a658dd452c45cc1f51bd31f3a2d4bc054f90ae1fa8051794b0f590600090a250565b610d9b33612872565b1515610e0857604080517f08c379a000000000000000000000000000000000000000000000000000000000815260206004820152601860248201527f53656e646572206d7573742062652076616c696461746f720000000000000000604482015290519081900360640190fd5b610e118161291c565b50565b73ffffffffffffffffffffffffffffffffffffffff821660009081526004602090815260408083207fffffffff000000000000000000000000000000000000000000000000000000008516845290915290205460ff1692915050565b7fffffffff0000000000000000000000000000000000000000000000000000000081166000908152600260208181526040808420600381015481548351610100600180841615919091027fffffffffffffffffffffffffffffffffffffffffffffffffffffffffffffffff01909216879004601f8101879004870282018701909552848152606097889788979196938601949086019360ff9091169291869190830182828015610f615780601f10610f3657610100808354040283529160200191610f61565b820191906000526020600020905b815481529060010190602001808311610f4457829003601f168201915b5050865460408051602060026001851615610100027fffffffffffffffffffffffffffffffffffffffffffffffffffffffffffffffff0190941693909304601f81018490048402820184019092528181529599508894509250840190508282801561100d5780601f10610fe25761010080835404028352916020019161100d565b820191906000526020600020905b815481529060010190602001808311610ff057829003601f168201915b5050855460408051602060026001851615610100027fffffffffffffffffffffffffffffffffffffffffffffffffffffffffffffffff0190941693909304601f8101849004840282018401909252818152959850879450925084019050828280156110b95780601f1061108e576101008083540402835291602001916110b9565b820191906000526020600020905b81548152906001019060200180831161109c57829003601f168201915b5050505050915093509350935093509193509193565b6110d833612872565b151561114557604080517f08c379a000000000000000000000000000000000000000000000000000000000815260206004820152601860248201527f53656e646572206d7573742062652076616c696461746f720000000000000000604482015290519081900360640190fd5b7fffffffff00000000000000000000000000000000000000000000000000000000811660009081526002602052604090206003015460ff16151561121057604080517f08c379a000000000000000000000000000000000000000000000000000000000815260206004820152603960248201527f5065726d697373696f6e206265696e6720736574206d75737420626520666f7260448201527f20612076616c6964206d6574686f64207369676e617475726500000000000000606482015290519081900360840190fd5b73ffffffffffffffffffffffffffffffffffffffff90911660009081526004602090815260408083207fffffffff0000000000000000000000000000000000000000000000000000000090941683529290522080547fffffffffffffffffffffffffffffffffffffffffffffffffffffffffffffff00166001179055565b61129733612872565b151561130457604080517f08c379a000000000000000000000000000000000000000000000000000000000815260206004820152601860248201527f53656e646572206d7573742062652076616c696461746f720000000000000000604482015290519081900360640190fd5b604080517f64657374726f79426c61636b6c6973746564546f6b656e73286164647265737381527f2c75696e7432353629000000000000000000000000000000000000000000000060208201529051908190036029019020611365906120e1565b15156113f857604080517f08c379a000000000000000000000000000000000000000000000000000000000815260206004820152603260248201527f426c61636b6c69737420746f6b656e206465737472756374696f6e206e6f742060448201527f737570706f7274656420627920746f6b656e0000000000000000000000000000606482015290519081900360840190fd5b604080517f64657374726f79426c61636b6c6973746564546f6b656e73286164647265737381527f2c75696e743235362900000000000000000000000000000000000000000000006020820152905190819003602901902061145b9082906110cf565b60405173ffffffffffffffffffffffffffffffffffffffff8216907fc8cc73c74b92642427979fdf8cbcd3f3a1e5a071058f68d87d200483e90278b590600090a250565b6114a833612872565b151561151557604080517f08c379a000000000000000000000000000000000000000000000000000000000815260206004820152601860248201527f53656e646572206d7573742062652076616c696461746f720000000000000000604482015290519081900360640190fd5b610e1181612a30565b600260208181526000928352604092839020805484516001821615610100027fffffffffffffffffffffffffffffffffffffffffffffffffffffffffffffffff0190911693909304601f81018390048302840183019094528383529283918301828280156115cd5780601f106115a2576101008083540402835291602001916115cd565b820191906000526020600020905b8154815290600101906020018083116115b057829003601f168201915b505050505090806001018054600181600116156101000203166002900480601f01602080910402602001604051908101604052809291908181526020018280546001816001161561010002031660029004801561166b5780601f106116405761010080835404028352916020019161166b565b820191906000526020600020905b81548152906001019060200180831161164e57829003601f168201915b50505060028085018054604080516020601f7fffffffffffffffffffffffffffffffffffffffffffffffffffffffffffffffff610100600187161502019094169590950492830185900485028101850190915281815295969594509092509083018282801561171b5780601f106116f05761010080835404028352916020019161171b565b820191906000526020600020905b8154815290600101906020018083116116fe57829003601f168201915b5050506003909301549192505060ff1684565b60005473ffffffffffffffffffffffffffffffffffffffff16331461175257600080fd5b73ffffffffffffffffffffffffffffffffffffffff811660008181526003602052604080822080547fffffffffffffffffffffffffffffffffffffffffffffffffffffffffffffff00169055517fe1434e25d6611e0db941968fdc97811c982ac1602e951637d206f5fdda9dd8f19190a250565b60005473ffffffffffffffffffffffffffffffffffffffff1633146117ea57600080fd5b73ffffffffffffffffffffffffffffffffffffffff811660008181526003602052604080822080547fffffffffffffffffffffffffffffffffffffffffffffffffffffffffffffff00166001179055517fe366c1c0452ed8eec96861e9e54141ebff23c9ec89fe27b996b45f5ec38849879190a250565b60006118a28260405180807f636f6e7665727457542875696e7432353629000000000000000000000000000081525060120190506040518091039020610e14565b1580156118b357506118b382612b44565b92915050565b60015473ffffffffffffffffffffffffffffffffffffffff1633146118dd57600080fd5b6001546000805460405173ffffffffffffffffffffffffffffffffffffffff93841693909116917f8be0079c531659141344cd1fd0a4f28419497f9722a3daafe3b4186f6b6457e091a360018054600080547fffffffffffffffffffffffff000000000000000000000000000000000000000090811673ffffffffffffffffffffffffffffffffffffffff841617909155169055565b61197c33612872565b15156119e957604080517f08c379a000000000000000000000000000000000000000000000000000000000815260206004820152601860248201527f53656e646572206d7573742062652076616c696461746f720000000000000000604482015290519081900360640190fd5b7fffffffff00000000000000000000000000000000000000000000000000000000811660009081526002602052604090206003015460ff161515611ab457604080517f08c379a000000000000000000000000000000000000000000000000000000000815260206004820152603d60248201527f5065726d697373696f6e206265696e672072656d6f766564206d75737420626560448201527f20666f7220612076616c6964206d6574686f64207369676e6174757265000000606482015290519081900360840190fd5b73ffffffffffffffffffffffffffffffffffffffff90911660009081526004602090815260408083207fffffffff0000000000000000000000000000000000000000000000000000000090941683529290522080547fffffffffffffffffffffffffffffffffffffffffffffffffffffffffffffff00169055565b611b3833612872565b1515611ba557604080517f08c379a000000000000000000000000000000000000000000000000000000000815260206004820152601860248201527f53656e646572206d7573742062652076616c696461746f720000000000000000604482015290519081900360640190fd5b604080517f64657374726f79426c61636b6c6973746564546f6b656e73286164647265737381527f2c75696e7432353629000000000000000000000000000000000000000000000060208201529051908190036029019020611c06906120e1565b1515611c9957604080517f08c379a000000000000000000000000000000000000000000000000000000000815260206004820152603260248201527f426c61636b6c69737420746f6b656e206465737472756374696f6e206e6f742060448201527f737570706f7274656420627920746f6b656e0000000000000000000000000000606482015290519081900360840190fd5b604080517f64657374726f79426c61636b6c6973746564546f6b656e73286164647265737381527f2c75696e7432353629000000000000000000000000000000000000000000000060208201529051908190036029019020611cfc908290611973565b60405173ffffffffffffffffffffffffffffffffffffffff8216907fcc060ec5d05ac54bd2af5095f9a42db1cc630ebbfb1146724d624b4ce89a5e8490600090a250565b604080517f636f6e7665727457542875696e743235362900000000000000000000000000008152905190819003601201902081565b611d7d6139b9565b611d8633612872565b1515611df357604080517f08c379a000000000000000000000000000000000000000000000000000000000815260206004820152601860248201527f53656e646572206d7573742062652076616c696461746f720000000000000000604482015290519081900360640190fd5b50604080516080810182528481526020808201859052818301849052600160608301527fffffffff000000000000000000000000000000000000000000000000000000008716600090815260028252929092208151805192938493611e5b92849201906139e4565b506020828101518051611e7492600185019201906139e4565b5060408201518051611e909160028401916020909101906139e4565b5060609190910151600390910180547fffffffffffffffffffffffffffffffffffffffffffffffffffffffffffffff0016911515919091179055604080517fffffffff000000000000000000000000000000000000000000000000000000008716815290517f6195913f4ea9fc2f5193c9f6763975b23790b3be094b1eb18f31843739005512916020908290030190a15050505050565b6000611f688260405180807f636f6e7665727457542875696e7432353629000000000000000000000000000081525060120190506040518091039020610e14565b1580156118b357506118b382612bd1565b600460209081526000928352604080842090915290825290205460ff1681565b604080517f6d696e7428616464726573732c75696e743235362900000000000000000000008152905190819003601501902081565b604080517f6d696e744355534428616464726573732c75696e7432353629000000000000008152905190819003601901902081565b60005473ffffffffffffffffffffffffffffffffffffffff1681565b604080517f617070726f7665426c61636b6c6973746564416464726573735370656e64657281527f28616464726573732900000000000000000000000000000000000000000000006020820152905190819003602901902081565b60006118b38260405180807f617070726f7665426c61636b6c6973746564416464726573735370656e64657281526020017f286164647265737329000000000000000000000000000000000000000000000081525060290190506040518091039020610e14565b7fffffffff000000000000000000000000000000000000000000000000000000001660009081526002602052604090206003015460ff1690565b604080517f626c61636b6c69737465642829000000000000000000000000000000000000008152905190819003600d01902081565b600061215b82612c57565b80156118b35750604080517f6d696e744355534428616464726573732c75696e743235362900000000000000815290519081900360190190206118b3908390610e14565b604080517f64657374726f79426c61636b6c6973746564546f6b656e73286164647265737381527f2c75696e743235362900000000000000000000000000000000000000000000006020820152905190819003602901902081565b61220333612872565b151561227057604080517f08c379a000000000000000000000000000000000000000000000000000000000815260206004820152601860248201527f53656e646572206d7573742062652076616c696461746f720000000000000000604482015290519081900360640190fd5b7fffffffff00000000000000000000000000000000000000000000000000000000811660008181526002602090815260409182902060030180547fffffffffffffffffffffffffffffffffffffffffffffffffffffffffffffff00169055815192835290517f65cd5526557cbd93f0739d00ffcdf8f4a663eb2ed509203d884b3470158724c19281900390910190a150565b61230b33612872565b151561237857604080517f08c379a000000000000000000000000000000000000000000000000000000000815260206004820152601860248201527f53656e646572206d7573742062652076616c696461746f720000000000000000604482015290519081900360640190fd5b604080517f617070726f7665426c61636b6c6973746564416464726573735370656e64657281527f2861646472657373290000000000000000000000000000000000000000000000602082015290519081900360290190206123d9906120e1565b151561246c57604080517f08c379a000000000000000000000000000000000000000000000000000000000815260206004820152602960248201527f426c61636b6c697374207370656e64696e67206e6f7420737570706f7274656460448201527f20627920746f6b656e0000000000000000000000000000000000000000000000606482015290519081900360840190fd5b604080517f617070726f7665426c61636b6c6973746564416464726573735370656e64657281527f2861646472657373290000000000000000000000000000000000000000000000602082015290519081900360290190206124cf9082906110cf565b60405173ffffffffffffffffffffffffffffffffffffffff8216907feb9ec59379e252bf8accf2ecf164d50f79b20d66ba85abae9cc795ad1ba5e5a890600090a250565b604080517f6275726e436172626f6e446f6c6c617228616464726573732c75696e7432353681527f29000000000000000000000000000000000000000000000000000000000000006020820152905190819003602101902081565b61257733612872565b15156125e457604080517f08c379a000000000000000000000000000000000000000000000000000000000815260206004820152601860248201527f53656e646572206d7573742062652076616c696461746f720000000000000000604482015290519081900360640190fd5b610e1181612c98565b6125f633612872565b151561266357604080517f08c379a000000000000000000000000000000000000000000000000000000000815260206004820152601860248201527f53656e646572206d7573742062652076616c696461746f720000000000000000604482015290519081900360640190fd5b610e1181612dac565b604080517f6275726e2875696e7432353629000000000000000000000000000000000000008152905190819003600d01902081565b60006126e28260405180807f636f6e7665727457542875696e7432353629000000000000000000000000000081525060120190506040518091039020610e14565b80156118b357506118b382612ec0565b60015473ffffffffffffffffffffffffffffffffffffffff1681565b60005473ffffffffffffffffffffffffffffffffffffffff16331461273257600080fd5b73ffffffffffffffffffffffffffffffffffffffff8116151561275457600080fd5b600180547fffffffffffffffffffffffff00000000000000000000000000000000000000001673ffffffffffffffffffffffffffffffffffffffff92909216919091179055565b60006118b38260405180807f64657374726f79426c61636b6c6973746564546f6b656e73286164647265737381526020017f2c75696e7432353629000000000000000000000000000000000000000000000081525060290190506040518091039020610e14565b604080517f636f6e76657274436172626f6e446f6c6c617228616464726573732c75696e7481527f32353629000000000000000000000000000000000000000000000000000000006020820152905190819003602401902081565b60036020526000908152604090205460ff1681565b73ffffffffffffffffffffffffffffffffffffffff1660009081526003602052604090205460ff1690565b6128a633612872565b151561291357604080517f08c379a000000000000000000000000000000000000000000000000000000000815260206004820152601860248201527f53656e646572206d7573742062652076616c696461746f720000000000000000604482015290519081900360640190fd5b610e1181612f45565b604080517f636f6e7665727457542875696e7432353629000000000000000000000000000081529051908190036012019020612957906120e1565b15156129ea57604080517f08c379a000000000000000000000000000000000000000000000000000000000815260206004820152602960248201527f436f6e76657274696e6720746f2043555344206e6f7420737570706f7274656460448201527f20627920746f6b656e0000000000000000000000000000000000000000000000606482015290519081900360840190fd5b604080517f636f6e7665727457542875696e7432353629000000000000000000000000000081529051908190036012019020612a279082906110cf565b610e1181613059565b604080517f6d696e744355534428616464726573732c75696e74323536290000000000000081529051908190036019019020612a6b906120e1565b1515612afe57604080517f08c379a000000000000000000000000000000000000000000000000000000000815260206004820152602660248201527f4d696e74696e6720746f2043555344206e6f7420737570706f7274656420627960448201527f20746f6b656e0000000000000000000000000000000000000000000000000000606482015290519081900360840190fd5b604080517f6d696e744355534428616464726573732c75696e74323536290000000000000081529051908190036019019020612b3b908290611973565b610e11816132b3565b6000612b858260405180807f6275726e2875696e743235362900000000000000000000000000000000000000815250600d0190506040518091039020610e14565b1580156118b35750604080517f626c61636b6c69737465642829000000000000000000000000000000000000008152905190819003600d019020612bca908390610e14565b1592915050565b6000612c128260405180807f6275726e2875696e743235362900000000000000000000000000000000000000815250600d0190506040518091039020610e14565b1580156118b35750604080517f626c61636b6c69737465642829000000000000000000000000000000000000008152905190819003600d0190206118b3908390610e14565b60006118b38260405180807f6d696e7428616464726573732c75696e7432353629000000000000000000000081525060150190506040518091039020610e14565b604080517f636f6e7665727457542875696e7432353629000000000000000000000000000081529051908190036012019020612cd3906120e1565b1515612d6657604080517f08c379a000000000000000000000000000000000000000000000000000000000815260206004820152602960248201527f436f6e76657274696e6720746f2043555344206e6f7420737570706f7274656460448201527f20627920746f6b656e0000000000000000000000000000000000000000000000606482015290519081900360840190fd5b604080517f636f6e7665727457542875696e7432353629000000000000000000000000000081529051908190036012019020612da3908290611973565b610e11816133dc565b604080517f636f6e7665727457542875696e7432353629000000000000000000000000000081529051908190036012019020612de7906120e1565b1515612e7a57604080517f08c379a000000000000000000000000000000000000000000000000000000000815260206004820152602960248201527f436f6e76657274696e6720746f2043555344206e6f7420737570706f7274656460448201527f20627920746f6b656e0000000000000000000000000000000000000000000000606482015290519081900360840190fd5b604080517f636f6e7665727457542875696e7432353629000000000000000000000000000081529051908190036012019020612eb7908290611973565b610e1181613636565b6000612f018260405180807f6275726e2875696e743235362900000000000000000000000000000000000000815250600d0190506040518091039020610e14565b80156118b35750604080517f626c61636b6c69737465642829000000000000000000000000000000000000008152905190819003600d019020612bca908390610e14565b604080517f6d696e744355534428616464726573732c75696e74323536290000000000000081529051908190036019019020612f80906120e1565b151561301357604080517f08c379a000000000000000000000000000000000000000000000000000000000815260206004820152602660248201527f4d696e74696e6720746f2043555344206e6f7420737570706f7274656420627960448201527f20746f6b656e0000000000000000000000000000000000000000000000000000606482015290519081900360840190fd5b604080517f6d696e744355534428616464726573732c75696e743235362900000000000000815290519081900360190190206130509082906110cf565b610e1181613890565b604080517f6275726e2875696e7432353629000000000000000000000000000000000000008152905190819003600d019020613094906120e1565b151561312757604080517f08c379a000000000000000000000000000000000000000000000000000000000815260206004820152602260248201527f4275726e206d6574686f64206e6f7420737570706f7274656420627920746f6b60448201527f656e000000000000000000000000000000000000000000000000000000000000606482015290519081900360840190fd5b604080517f626c61636b6c69737465642829000000000000000000000000000000000000008152905190819003600d019020613162906120e1565b15156131f557604080517f08c379a000000000000000000000000000000000000000000000000000000000815260206004820152602b60248201527f53656c662d6465737472756374206d6574686f64206e6f7420737570706f727460448201527f656420627920746f6b656e000000000000000000000000000000000000000000606482015290519081900360840190fd5b604080517f6275726e2875696e7432353629000000000000000000000000000000000000008152905190819003600d0190206132329082906110cf565b604080517f626c61636b6c69737465642829000000000000000000000000000000000000008152905190819003600d01902061326f908290611973565b60405173ffffffffffffffffffffffffffffffffffffffff8216907f6b590ec768de031dd76382caebc58b5029c599845931fdcce18afc34fd15b18790600090a250565b604080517f6d696e7428616464726573732c75696e74323536290000000000000000000000815290519081900360150190206132ee906120e1565b151561335b57604080517f08c379a000000000000000000000000000000000000000000000000000000000815260206004820152601e60248201527f4d696e74696e67206e6f7420737570706f7274656420627920746f6b656e0000604482015290519081900360640190fd5b604080517f6d696e7428616464726573732c75696e7432353629000000000000000000000081529051908190036015019020613398908290611973565b60405173ffffffffffffffffffffffffffffffffffffffff8216907fcfee518972af5b17e262a5c3d62175cf1150cdad0423ac7d4e7f4ae1c0934df090600090a250565b604080517f6275726e2875696e7432353629000000000000000000000000000000000000008152905190819003600d019020613417906120e1565b15156134aa57604080517f08c379a000000000000000000000000000000000000000000000000000000000815260206004820152602260248201527f4275726e206d6574686f64206e6f7420737570706f7274656420627920746f6b60448201527f656e000000000000000000000000000000000000000000000000000000000000606482015290519081900360840190fd5b604080517f626c61636b6c69737465642829000000000000000000000000000000000000008152905190819003600d0190206134e5906120e1565b151561357857604080517f08c379a000000000000000000000000000000000000000000000000000000000815260206004820152602b60248201527f53656c662d6465737472756374206d6574686f64206e6f7420737570706f727460448201527f656420627920746f6b656e000000000000000000000000000000000000000000606482015290519081900360840190fd5b604080517f6275726e2875696e7432353629000000000000000000000000000000000000008152905190819003600d0190206135b5908290611973565b604080517f626c61636b6c69737465642829000000000000000000000000000000000000008152905190819003600d0190206135f29082906110cf565b60405173ffffffffffffffffffffffffffffffffffffffff8216907fe188e80e8d523dc5ac6bbae932c30011688c5a4269bd1d97fb3493e57056459990600090a250565b604080517f6275726e2875696e7432353629000000000000000000000000000000000000008152905190819003600d019020613671906120e1565b151561370457604080517f08c379a000000000000000000000000000000000000000000000000000000000815260206004820152602260248201527f4275726e206d6574686f64206e6f7420737570706f7274656420627920746f6b60448201527f656e000000000000000000000000000000000000000000000000000000000000606482015290519081900360840190fd5b604080517f626c61636b6c69737465642829000000000000000000000000000000000000008152905190819003600d01902061373f906120e1565b15156137d257604080517f08c379a000000000000000000000000000000000000000000000000000000000815260206004820152602b60248201527f53656c662d6465737472756374206d6574686f64206e6f7420737570706f727460448201527f656420627920746f6b656e000000000000000000000000000000000000000000606482015290519081900360840190fd5b604080517f6275726e2875696e7432353629000000000000000000000000000000000000008152905190819003600d01902061380f908290611973565b604080517f626c61636b6c69737465642829000000000000000000000000000000000000008152905190819003600d01902061384c908290611973565b60405173ffffffffffffffffffffffffffffffffffffffff8216907f49f6559c19d7cf5ee40d0715f3e79859ac083e76d8fbb79267a3a7dca5e463d090600090a250565b604080517f6d696e7428616464726573732c75696e74323536290000000000000000000000815290519081900360150190206138cb906120e1565b151561393857604080517f08c379a000000000000000000000000000000000000000000000000000000000815260206004820152601e60248201527f4d696e74696e67206e6f7420737570706f7274656420627920746f6b656e0000604482015290519081900360640190fd5b604080517f6d696e7428616464726573732c75696e74323536290000000000000000000000815290519081900360150190206139759082906110cf565b60405173ffffffffffffffffffffffffffffffffffffffff8216907f5e0c8c15134773cb6fe4d2cc6f9e5683049cc6277f742e2a7e0e89a2d3d1e40890600090a250565b6080604051908101604052806060815260200160608152602001606081526020016000151581525090565b828054600181600116156101000203166002900490600052602060002090601f016020900481019282601f10613a2557805160ff1916838001178555613a52565b82800160010185558215613a52579182015b82811115613a52578251825591602001919060010190613a37565b50613a5e929150613a62565b5090565b613a7c91905b80821115613a5e5760008155600101613a68565b905600a165627a7a72305820c6d18d0cc0b22e8ef4c7408026b32d4de6ca56024708409da544f4052ce918730029",
  "source": "pragma solidity ^0.4.24;\r\n\r\nimport \"../Regulator.sol\";\r\n\r\n/**\r\n * @title WhitelistedTokenRegulator\r\n * @dev WhitelistedTokenRegulator is a type of Regulator that modifies its definitions of\r\n * what constitutes a \"whitelisted/nonlisted/blacklisted\" user. A WhitelistedToken\r\n * provides a user the additional ability to convert from a whtielisted stablecoin into the\r\n * meta-token CUSD, or mint CUSD directly through a specific WT.\r\n *\r\n */\r\ncontract WhitelistedTokenRegulator is Regulator {\r\n\r\n    function isMinter(address _who) public view returns (bool) {\r\n        return (super.isMinter(_who) && hasUserPermission(_who, MINT_CUSD_SIG));\r\n    }\r\n\r\n    // Getters\r\n\r\n    function isWhitelistedUser(address _who) public view returns (bool) {\r\n        return (hasUserPermission(_who, CONVERT_WT_SIG) && super.isWhitelistedUser(_who));\r\n    }\r\n\r\n    function isBlacklistedUser(address _who) public view returns (bool) {\r\n        return (!hasUserPermission(_who, CONVERT_WT_SIG) && super.isBlacklistedUser(_who));\r\n    }\r\n\r\n    function isNonlistedUser(address _who) public view returns (bool) {\r\n        return (!hasUserPermission(_who, CONVERT_WT_SIG) && super.isNonlistedUser(_who));\r\n    }   \r\n\r\n    /** Internal functions **/\r\n\r\n    // A WT minter should have option to either mint directly into CUSD via mintCUSD(), or\r\n    // mint the WT via an ordinary mint() \r\n    function _setMinter(address _who) internal {\r\n        require(isPermission(MINT_CUSD_SIG), \"Minting to CUSD not supported by token\");\r\n        setUserPermission(_who, MINT_CUSD_SIG);\r\n        super._setMinter(_who);\r\n    }\r\n\r\n    function _removeMinter(address _who) internal {\r\n        require(isPermission(MINT_CUSD_SIG), \"Minting to CUSD not supported by token\");\r\n        removeUserPermission(_who, MINT_CUSD_SIG);\r\n        super._removeMinter(_who);\r\n    }\r\n\r\n    // Setters\r\n\r\n    // A WT whitelisted user should gain ability to convert their WT into CUSD. They can also burn their WT, as a\r\n    // PermissionedToken whitelisted user can do\r\n    function _setWhitelistedUser(address _who) internal {\r\n        require(isPermission(CONVERT_WT_SIG), \"Converting to CUSD not supported by token\");\r\n        setUserPermission(_who, CONVERT_WT_SIG);\r\n        super._setWhitelistedUser(_who);\r\n    }\r\n\r\n    function _setBlacklistedUser(address _who) internal {\r\n        require(isPermission(CONVERT_WT_SIG), \"Converting to CUSD not supported by token\");\r\n        removeUserPermission(_who, CONVERT_WT_SIG);\r\n        super._setBlacklistedUser(_who);\r\n    }\r\n\r\n    function _setNonlistedUser(address _who) internal {\r\n        require(isPermission(CONVERT_WT_SIG), \"Converting to CUSD not supported by token\");\r\n        removeUserPermission(_who, CONVERT_WT_SIG);\r\n        super._setNonlistedUser(_who);\r\n    }\r\n\r\n}",
  "sourcePath": "C:\\Users\\npain\\Projects\\Carbon\\fiat_gateway\\contracts\\regulator\\whitelistedRegulator\\WhitelistedTokenRegulator.sol",
  "compiler": {
    "name": "solc",
    "version": "0.4.24+commit.e67f0147.Emscripten.clang"
  },
  "schemaVersion": "2.0.1",
  "updatedAt": "2018-09-21T20:27:32.094Z"
}